:1000000000300020010800004508000045080000FD
:1000100000000000000000000000000000000000E0
:100020000000000000000000000000004508000083
:10003000000000000000000045080000FD21000055
:10004000450800004508000045080000450800007C
:10005000450800004508000045080000450800006C
:10006000450800004508000045080000450800005C
:10007000312200006D220000A92200004508000086
:10008000450800004508000045080000450800003C
:10009000450800004508000045080000450800002C
:1000A000450800004508000045080000450800001C
:1000B000450800004508000045080000450800000C
:10040000FFFFFFFFFFFFFFFFFFFFFFFFFEFFFFFFFD
:1008000072B603F065FA62B609490A4A0A4B9B1AA6
:1008100003DD043BC858D050FBDC0849084A521A93
:1008200003DD00208850043AFCDA01F05BFD000093
:10083000AC40000000F0FF1F08F0FF1F08F0FF1F92
:1008400010F0FF1F0048004745080000002934D081
:100850000123002210B488422CD301242407A14292
:1008600004D2814202D209011B01F8E7E400A1424F
:1008700004D2814202D249005B00F8E7884201D3EA
:10088000401A1A434C08A04202D3001B5C082243C2
:100890008C08A04202D3001B9C082243CC08A04233
:1008A00002D3001BDC082243002803D01B0901D01F
:1008B0000909E3E7101C10BC7047002801D0002094
:1008C000C04307B4024802A14018029003BDC046CD
:1008D000D90000000029F0D003B5FFF7B9FF0EBC26
:1008E0004243891A1847C046002941D010B4041C5D
:1008F0004C40A44601230022002900D5494200288B
:1009000000D5404288422CD301242407A14204D2BE
:10091000814202D209011B01F8E7E400A14204D29E
:10092000814202D249005B00F8E7884201D3401AB5
:100930001A434C08A04202D3001B5C0822438C08D7
:10094000A04202D3001B9C082243CC08A04202D341
:10095000001BDC082243002803D01B0901D0090931
:10096000E3E7101C6446002C00D5404210BC7047E1
:10097000002806D003DB0020C043400801E08020AF
:10098000000607B4024802A14018029003BDC04609
:10099000190000000029EBD003B5FFF7A7FF0EBC3C
:1009A0004243891A1847C0467047C0468446101C07
:1009B00062468C46191C634600E0C0461FB500F035
:1009C00095F9002801D40021C8421FBD10B500F0E0
:1009D000C5F84042013010BD10B500F087F900287D
:1009E00001DB002010BD012010BDC04610B500F095
:1009F0007DF9002801DD002010BD012010BDC0469A
:100A000010B500F0F5F8002801DC002010BD012031
:100A100010BDC04610B500F0EBF8002801DA002048
:100A200010BD012010BDC046002B11D1002A0FD1EE
:100A3000002900D1002802D00021C943081C07B4B6
:100A4000024802A14018029003BDC0465DFFFFFFAF
:100A500003B4684601B5029800F066F8019B9E4613
:100A600002B00CBC7047C04638B50E4B0C4A041C93
:100A70000D1CFFF7CFFF002804D1201C291C00F01B
:100A800077FF38BD074B064A201C291C00F03CFCB0
:100A900000F06EFF80231B06C018F2E7C046C04678
:100AA000000000000000E04170B50E4B0C4A0D1C28
:100AB000041C00F099F9FFF7D7FF061C00F08CFF2B
:100AC000094A0A4B00F090F9021C0B1C201C291C3F
:100AD00000F01AFCFFF7C8FF311C70BDC046C046CD
:100AE000000000000000F03D000000000000F041A8
:100AF000F0B583B0161C1F1C0090019100F0E0FFC0
:100B0000041C0D1C221C2B1C301C391C00F0B6FFD1
:100B1000009A019B121A8B410899201C0A604B60B5
:100B2000291C03B0F0BDC046F0B583B0141C1D1CD9
:100B30000090019101F0A0F9221C2B1C061C0F1C37
:100B400000F09CFF009A019B121A8B410899301CFF
:100B50000A604B60391C03B0F0BDC046F0B55F467B
:100B600056464D464446F0B40D1C041C8046E80F22
:100B7000814618030F03000B3F0B83B084461B48CC
:100B8000009749005E00DF0F490D9246760DBB4687
:100B900081420CD01548864210D00120B14215D0B8
:100BA00003B03CBC90469946A246AB46F0BD009FC0
:100BB00001202743F4D10D488642EED1604602431E
:100BC0000120002AECD10120B142E9D1009B63450C
:100BD000E6D1D045E4D1D94506D00029E0D11C4367
:100BE000201C441EA041DBE70020D9E7FF070000DE
:100BF000F0B55F4656464D464446F0B4CD0FDE0F85
:100C0000AC461D032D0BB146374E0F034C00AB46CF
:100C10005D0080463F0B640D92466D0DB44232D0AC
:100C2000314EB54235D0002C0ED1384341424141BE
:100C3000081C002D0BD0002919D1CC452DD06546BC
:100C400068420123184318E0002DF6D1281C5946AC
:100C50000A4353425341002806D1002BEDD063468E
:100C600058420123184308E00020002B05D14A46D2
:100C7000504250414042012318433CBC90469946A3
:100C8000A246AB46F0BD3E1C0643C9D002204042FE
:100C9000F3E75E461643C6D0F8E7AC4207DC0BDA52
:100CA000614648424841404201231843E5E7664611
:100CB000704201231843E0E75F450AD80ED00020B8
:100CC0005F45DAD2654668426841404201231843D5
:100CD000D3E76246504201231843CEE7D045F8D807
:100CE0000020D045EED3C8E7FF070000F0B5564618
:100CF0004D4644465F46F0B40D1C83B0041C019081
:100D0000E80F814618030F03000B3F0B844635485C
:100D1000009749005E00DF0F490D9246760DB846F8
:100D2000814234D02F48864236D0002918D0002E78
:100D30001FD1341C67463A4353425341002C1FD005
:100D40000020002B05D14246504250414042012331
:100D5000184303B03CBC90469946A246AB46F0BD52
:100D60000098044360426041041C002EE2D0002839
:100D7000E9D1C14515D04F46784201231843E8E731
:100D8000002BF6D04B46584201231843E1E7009F61
:100D900002202743DDD1C5E7674602201743D8D19B
:100DA000C3E7B14204DD4A46504201231843D0E76D
:100DB000B14207DB00986045E4D80AD0009F0020CC
:100DC0006745C6D24F4678427841404201231843D6
:100DD000BFE7019A5245D5D8019A00205245F1D378
:100DE000B7E7C046FF070000F0B5564644465F46E9
:100DF0004D46F0B41F1C0B031B0B9A464B0087B0EB
:100E0000041C80465B0DC80F161C02938146002B04
:100E100068D0694B0299994232D0802253465203DE
:100E20001A43D200630F1A439246644AE0008918BD
:100E300080460291002400253B031B0B9B46780053
:100E4000FB0F321C400D039300D175E05A4B9842C2
:100E500069D08022594652030A43730FD2001A43C5
:100E6000564B9346C018F200002303994E4671403A
:100E70001C430F2C00D9A9E0514EA4003459A746B9
:100E800053461C4300D087E00025AA46A846082404
:100E90000225D1E74946022D6CD0032D00D117E27F
:100EA000012D00D058E10D40EDB20024A9460023E9
:100EB000A0460020002125030A0D1C052D0B12055C
:100EC000404B2A43134023435B004C465B08E20738
:100ED000191C4046114307B03CBC90469946A246B7
:100EE000AB46F0BD5346234350D05346002B00D1B0
:100EF00084E1504600F0A4FD031E272B00DD76E1BF
:100F000028210D1A211C083B5246E9409A400D1C2D
:100F10001543221C9A40AA4690462B4B00241B1ACC
:100F20000293002588E75B461E430323002E9CD1D5
:100F3000B3460022022398E75B46334321D058464C
:100F4000002800D14EE100F07BFD272800DD42E1C2
:100F500028210F1A021C311C083A5B46F9409340C5
:100F60000F1C1F43331C9340BB461A1C164B181A08
:100F700000237AE701230B4000249946A0460E4B3C
:100F800097E70027BB46002201236EE700210424D7
:100F90008A46884601254FE70C2403254CE70025A7
:100FA0008024A9462403A846034B82E7DA469046EC
:100FB00003991D1C6FE7C046FF07000001FCFFFFFF
:100FC0006C3F0000FFFF0F800DFCFFFF029F160C1F
:100FD000381804904046070C0004000C1204120C50
:100FE000031C5343041C3D1C7443554398463B1C4F
:100FF00073436419A44644460293230C63449D4200
:1010000004D9029D802464022D1902951D0C0395BC
:1010100045462C041B04240C1C1905945C46230C27
:10102000051C58432404240C8446381C6043654343
:101030005F438146CC44280C6044BB46814502D9BD
:1010400080277F02BB442D04070C2D0C000440199F
:101050005546BC462F04E3448446280C3D0C2F1C07
:101060005743B8462F1C77434243B94647463F0C87
:101070009144BA46D14446434A4502D9802252029D
:10108000B6184F463A0CB6183A0447463F043F0C90
:10109000B8462F1C67435D4344435843651901908C
:1010A000380C2D184244B846AC4204D9019880232C
:1010B0005B02C0180190039C029F201C6044C01971
:1010C0006045A44147466442A4462B043C0499462B
:1010D000240C4C44A046D8448018C246E2449042B6
:1010E0009241574652429146F219E245BF417F4232
:1010F0004B46BC46D845BF41D4187F4263461F4388
:101100002D0C7F19B24292414C45AD4152426D4285
:101110001543019E7D19AB19E20D5B02059F134338
:1011200042023A439A46531E9A41C30D101C18437B
:101130006402204380465046C0010DD54546012239
:101140005646049C6B082A401A43F30701341A439D
:10115000760804949046B246049E634FF319002B20
:1011600061DD404640070BD00F2244462240042A4E
:1011700006D0424604324245804140428244904675
:101180005546ED0107D5594B5646049F80201E4019
:10119000C000B2463B18564A934200DDEAE6444698
:1011A0005546E2086807104301226C025B050A40BD
:1011B0008046240B5B0D91467BE6DA4690461D1C6B
:1011C00069E680242403574627421CD13C4324036C
:1011D000240B484B6DE6031C283B311C99408B4681
:1011E0000022C3E6301C00F02BFC2030ADE6283B8B
:1011F000211C994000228A4690468EE6201C00F071
:101200001FFC203078E65846204207D1044303995A
:101210002403240B89469046364B4AE63C4324037C
:10122000240B344B45E6344B049E9B1B382B06DDC8
:1012300001230B4000249946A046002339E61F2BCA
:1012400025DC049C2D4D4646601952464446864096
:10125000DC4082405746301C2243DF40441EA04100
:1012600002433B1C540709D00F201040042805D02E
:10127000101D9042924152429B18021C1D021AD529
:1012800001230B4000249946A046012311E61C4887
:10129000049C5546001BC540281C202B16D0194E17
:1012A0005746A21997403A1C43461A43531E9A4187
:1012B00002430023D6E758075B02D2081C0B012328
:1012C0000B401043994680460023F2E50022EBE7ED
:1012D0008024240350460123044319402403240B93
:1012E0008946044BE5E5C046FF030000FFFFFFFE13
:1012F000FE070000FF07000002FCFFFF1E040000C5
:10130000E2FBFFFF3E040000F8B55F465646444648
:101310004D46F0B40C034D00CF0F610A440F21433A
:10132000C4001803DE0F8046B44646465800760ACD
:10133000530F3343D600D14A6D0DBA46400DB34624
:10134000904200D1F5E0624601267240944667451E
:1013500000D1ABE02F1A002F00DC11E100283ED1B4
:101360005846184300D0F1E0600700D197E00F2302
:101370002340042B00D122E1221DA242A441644259
:10138000802309191B04012750460B400740141CF9
:10139000002B00D179E0B94B01359D4200D10BE122
:1013A000B74BE40819404807490204430B0B0020DF
:1013B00000211B031A0B0B0D6D051B0513436A0857
:1013C000B04DFF071D4015436D006D08291C3943C2
:1013D000201C3CBC90469946A246AB46F8BDA748A7
:1013E0008542C1D0802000040343382F00DDFDE09A
:1013F0001F2F00DD31E12020C01B1A1C5E468240F9
:10140000FE40324394465A468240101C421E904190
:10141000FB40624602431F1CA21A9442A44164424C
:10142000C91B091B141C0A029ED549024F0A002F32
:1014300000D1D6E0381C00F003FB021C083A1F2A3A
:1014400000DDC3E02821231C091A9740CB401F432D
:101450009440954200DDC0E0551B691C1F2900DD4A
:10146000EAE01F22551B3B1C221CAB40CA40AC408B
:10147000651EAC411343CF401C43391C002573E764
:1014800080217E4D0027C90300247C4B4807E408D7
:101490000443C9089D4250D009030B0B87E7802302
:1014A0001B04012752460B40174071E72A1A944645
:1014B000002A00DCA1E0002854D07048854200D109
:1014C00052E78020000403436046382800DD0EE127
:1014D0001F2800DD57E162462020801A1E1C86402E
:1014E000B1465E46D6404A4632435E468640904606
:1014F000301C421E9041424602436046C3401219CE
:10150000A242A441644259180919141C080200D4CB
:101510002AE75A4B01359D4200D131E1584B600812
:101520001940012323401C1C0443CB071C434908DA
:101530001AE71E4300D00AE705E7231C0B433BD004
:1015400080231B030B431B031B0B30E7013F002FC2
:101550006DD15E46A21B9442A4416442C91A091B84
:10156000141C60E75846184300D1FDE60126764278
:10157000B4446046002800D0D0E05E463219BFE790
:10158000002F00D080E0681C4005400D012800DCE1
:10159000E8E05A46A21A9442BF41C81A7F42C71BCC
:1015A0003E0200D498E05846041BA3459241591AC4
:1015B00052428F1AE2463AE700230024F7E68023DE
:1015C0001B04012756460B403740E1E6271C28380C
:1015D00087400024954200DC3EE72949AD1A394096
:1015E000C2E6201C00F02CFA203026E75A461A43A7
:1015F000531E9A41D2B200270EE7002A00D0DEE047
:10160000681C4605760D012E00DC90E01B4DA842BB
:1016100000D1F5E05E463219A242A4416442591855
:101620000919CC07520814434908051C9CE61348C5
:10163000854200D0D9E697E62B1C1F3B3E1CDE40BE
:10164000331C20296FD03F22551BAF403C43601E06
:1016500084411C430021002586E6381C20381E1CCE
:10166000C640301C202F60D04022D71BBB405A46BA
:101670001A43531E9A4102430027CDE6FF0700009C
:10168000FFFF7FFFFFFF0F80002D37D0B64DA84230
:1016900000D18FE080252D047F422943382F00DDC3
:1016A000A8E01F2F00DD24E12025ED1B0E1CAE401D
:1016B000B046261CFE404246AC401643651EAC4177
:1016C0003443F9405A46141BA34592415B1A5242D7
:1016D000991A051CE246A6E6131C3B43141C002B7A
:1016E00000D0A4E60027002100250024CDE65A46BC
:1016F0001A43531E9A41D2B2002300E70D1C254322
:1017000058D0FF43002F51D15A46141BA345924194
:10171000591A5242891A051CE24684E692488542CB
:1017200000D0D1E620E6002790E700239FE7081CC1
:101730002043002D00D0C2E0002800D1EFE0584641
:10174000184300D110E658460219A242A44164424F
:1017500059180919141C0A0200D405E6834B012507
:10176000194001E6081C2043002D38D100286FD114
:101770005946194303D0191C5C46E246F4E500279C
:101780000021002481E6604620381A1CC2406646CB
:10179000101C202E00D1AAE04022921B93405A46F2
:1017A0001A43531E9A4102430023A8E66E4DA842F5
:1017B00000D073E7191C5C46051CE246D4E5002DF9
:1017C00022D10D1C254376D0D543002D70D15C4429
:1017D0005C459241591852428918051C96E600282A
:1017E0004CD15946194300D14AE6191C5C46E246E1
:1017F0005D4DB9E50C43611E8C41E4B2002161E707
:10180000051C0021002440E6574DA84253D0554204
:10181000802216043143382D7BDC1F2D00DD8CE047
:101820002022561B0A1CB446B240261CEE4032430E
:10183000904662469440661EB44142461443E940D5
:101840005C445C459241CB1852429918051C5DE6F8
:101850005846184300D187E55E46A71BBC4292411B
:10186000C81A5242801A060260D55846041BA34586
:101870009241591A5242891AE24675E55846184370
:1018800033D04807E40804438020C908000301421C
:1018900008D0DD08054205D15946CA085C07144343
:1018A000291CE246630FC9001943E4002E4D5BE595
:1018B0002D4A9042AFD1191C5C46051C54E5002806
:1018C00030D05846184310D080254807E408C9088E
:1018D0002D0304432942E5D0D8082842E2D15D46D1
:1018E000EA085C071443011CDCE71F4D3CE50023BC
:1018F00055E73D1C203D0E1CEE40351C202F2ED000
:101900004026F71BB9400C43611E8C412C4300213B
:10191000D8E60C43611E8C41E4B2002190E7191C0B
:101920005C4621E5191C5C460F4D1DE5031C3B433D
:1019300000D124E7011C3C1C16E5202676427619CE
:101940000A1CF2409046202D0BD04026751BA94062
:101950000C43611E8C4145462C43002170E7002159
:10196000D1E70021F4E7C046FF070000FFFF7FFF3B
:1019700070B50B1C124C09030E0B5900021C490DCB
:10198000DD0F0020A14211DD0E4881420FDC8020D6
:10199000400306430C48401A1F280BDD0B4A521A1D
:1019A000D640321C5042002D00D1101C70BD084B97
:1019B000E818FBE7074BC240C9188E403243F1E7F5
:1019C000FE0300001D0400003304000013040000A7
:1019D000FFFFFF7FEDFBFFFF10B5041E28D000F0D6
:1019E0002FF8154A121A0A2815DD0B3884402403F3
:1019F0005205240B520D0023002000212403181C43
:101A00000B0D240B1B0523430C4C12051C401443E7
:101A10006400610810BD031C1533211C99400B1C88
:101A20000B21081AC44024035205240B520DE3E78E
:101A3000002200240023DFE71E040000FFFF0F80C8
:101A40001C2101231B04984201D3000C10391B0AEE
:101A5000984201D3000A08391B09984201D30009B2
:101A6000043902A2105C40187047C0460403020209
:101A70000101010100000000000000009C46030479
:101A8000F0B51B0C17043F0C150C1E1C041C000C9D
:101A90007E436B4347434543FB18300C181887427D
:101AA00002D980235B02ED18030CED1863465C43FA
:101AB0004A433604360CA118000480194919F0BDB8
:101AC000F0B544465F4656464D46F0B41C1C85B002
:101AD000002900DADBE00F1C0021061C8A46101CDE
:101AE000191C002C00DAC9E0019600908946804656
:101AF000002951D1B84200D871E0FFF7A1FF0028BA
:101B000009D020234546311C1B1A85408740D94007
:101B1000A8460F4386404246150C13041B0C291C93
:101B2000381C9B46FEF792FE5B464343041C291C6F
:101B3000381C9946FEF7CEFE330C08041843814545
:101B400009D94044631E804500D978E1814500D819
:101B500075E1023C40444946411A8946081C291C4B
:101B6000FEF774FE5A464243071C291C484693461A
:101B7000FEF7B0FE36040904360C0E43B34507D910
:101B800046447B1EB04502D8023FB34500D81F1C17
:101B900024042743002403E0B94211D9002400277C
:101BA0005246381C211C002A03D03B1C00215842FD
:101BB000A14105B03CBC90469946A246AB46F0BD5B
:101BC000081CFFF73DFF041E00D0BFE0B94500D25E
:101BD00042E1019D0099071C8D424741E0E7002842
:101BE00004D101200021FEF731FE80464046FFF778
:101BF00027FF002852D1414644460B043C1B1B0CD6
:101C0000A3460D0C00930124291C5846FEF71EFE26
:101C1000009F81464743291C5846FEF75BFE330C64
:101C2000090419438F4208D94B464144013B88457A
:101C300002D88F4200D91AE19946C91B8B46081C6D
:101C4000291CFEF703FE009B291C4343071C584632
:101C50000093FEF73FFE3604009D0904360C0E4348
:101C6000B54207D946447B1EB04502D8023FB54273
:101C700000D81F1C49460E04374391E75246D24311
:101C8000031C0C1C924600215842A1412CE700275E
:101C900046428F41012149428A4620E720231B1AF0
:101CA0004246351C82403C1CDD40DC4087402B1CFA
:101CB000150C3B43291C8640201C009317049046BA
:101CC000FEF7C4FD3F0C011C794381468B46201C66
:101CD000291CFEF7FFFD009C0904230C19438B45CA
:101CE0000CD94B464144013B884500D9BDE08B45AA
:101CF00000D8BAE002225242914441445C460C1B97
:101D0000201C291C0194FEF7A1FD391C4143041C31
:101D10008B460198291CFEF7DDFD009A0904130487
:101D20001B0C19438B4509D94144631E884500D9D2
:101D300097E08B4500D894E0023C41445B46CB1AC7
:101D400049469B460B041C4300975DE7009D2023FA
:101D50001B1A4A468240DD401543391C009AD9407F
:101D600082408846311C0092D9403A1C82400B1CAC
:101D7000134301932F0C2B041B0C391C4046029378
:101D8000FEF764FD029A81464243391C4046934661
:101D9000FEF7A0FD019A0904130C19438B450AD9DB
:101DA0004B464919013B8D425DD88B455BD90223D7
:101DB0005B42994449195A468A1A101C391C0392ED
:101DC000FEF744FD029B80464343391C03989B4623
:101DD000FEF780FD019A090413041B0C19438B457F
:101DE0000AD943464919013B8D4238D88B4536D92B
:101DF00002235B42984449195D464D1BAB46494658
:101E0000009D0F04424617432A04120C3B042D0C7C
:101E10001B0C380C111C594342436B436843D318C5
:101E20000D0C5B198C469A4202D98022520280180E
:101E30001D0C401983450CD303D00024B0E61C1CB4
:101E400089E665462A041B04120C9B18A6409E4294
:101E5000F3D2013F0024A3E600240127A0E6984620
:101E6000CAE71C1C6AE79946A5E7994646E702229D
:101E7000524291444144E0E6F0B55F4656464D4635
:101E80004446F0B40D1C85B0061C9246984602905C
:101E9000019103921F1C141C8346A946002B59D1A3
:101EA000AA4269D9101CFFF7CBFD00280AD02023D5
:101EB0001B1A311CD94085400B1C2B4386408440A3
:101EC0009946B346250C23041B0C291C484698460A
:101ED000FEF7BCFC4646071C4643291C4846FEF755
:101EE000F9FC5A460904130C19438E4209D9091901
:101EF0007B1E8C4200D957E18E4200D854E1023F4C
:101F00000919891B8946081C291CFEF79FFC4346BA
:101F10004343061C291C48469846FEF7DBFC5A46FC
:101F2000130409041B0C1943884508D90919731EA9
:101F30008C4200D936E1023E884500D832E13804AF
:101F400030430027391C05B03CBC90469946A24658
:101F5000AB46F0BD019A934262D8181CFFF770FDA2
:101F6000041E60D1019B9F4200D22CE1029F039985
:101F70008F4260410027E5E7002A04D101200021BB
:101F8000FEF764FC041C201CFFF75AFD002800D05B
:101F9000B9E023042D1B1B0CA946260C98460127EB
:101FA000311C4846FEF752FC41464143051C8A4617
:101FB0004846311CFEF78EFC5A460804130C1843A1
:101FC000824507D900196B1E844202D8824500D988
:101FD00010E11D1C5346C31A181C311C9A46FEF70B
:101FE00035FC41464143814688465046311CFEF748
:101FF00071FC5A46130409041B0C194388450BD97C
:102000004B460919013B8C4200D9CFE0884500D8E6
:10201000CCE002235B42994428044946084391E7F7
:10202000002700208EE720231B1A42465746824095
:10203000DF401743524682400192321CDA40291C8D
:10204000D9408540131C2B4302933D0C3B041B0CD1
:102050008846081C291C9A46FEF7F8FB5346434362
:102060008146291C40469B46FEF734FC029A09042F
:10207000130C19438B4506D94B46C919013B8F42B6
:1020800000D8ABE099465A468A1A101C291C934680
:10209000FEF7DCFB53464343291C804658469A46CC
:1020A000FEF718FC029A090415042D0C29438A45F1
:1020B00006D94346C919013B8F4200D886E09846AD
:1020C0005746CF1BBA464946019F08044246104373
:1020D0003D042D0C03043F0C1B0C020C291C59431E
:1020E00055437B437A43EB180F0CDB198C469D421A
:1020F00002D980277F02D2191D0C521992455FD355
:1021000056D000271EE720231B1A311C2F1CD94054
:10211000DF4085400B1C84402B4386400193B3462F
:102120002304260C1B0C381C311C9846FEF78EFB32
:1021300042464243051C311C381C9146FEF7CAFB3F
:10214000019F09043B0C1943894507D909196B1EE6
:102150008C424DD889454BD9023D09194A468A1A05
:10216000101C311C9246FEF771FB43464343071C8B
:10217000311C50469946FEF7ADFB019A0904130441
:102180001B0C1943894507D909197B1E8C422DD890
:1021900089452BD9023F09194B46CB1A2D04994684
:1021A0002F43FDE61E1CCAE61F1CAAE6994633E72C
:1021B00061460A041B04120C9B18A6409E42A0D242
:1021C00001380027BEE600270120BBE68A4500D87B
:1021D00075E702235B429844C91971E78B4500D823
:1021E00050E702235B429944C9194CE71F1CD3E70F
:1021F0001D1CB3E7023D0019ECE6C04680B500AFF8
:10220000094B1B780133DAB2074B1A70064B1B7867
:10221000632B06D9044B00221A70044B181C01F0E2
:10222000E3F8BD4680BDC04608F0FF1F0CF0FF1F5D
:1022300090B583B000AFBB1D01221A7072B6FC1DB1
:10224000BB1D0020191C01F0E1FA031C2370BB1D0B
:102250001B78012B05D1FB1D1B780020191C01F0F8
:1022600081FA62B6BD4603B090BDC04690B583B05A
:1022700000AFBB1D01221A7072B6FC1DBB1D0120F0
:10228000191C01F0C3FA031C2370BB1D1B78012B22
:1022900005D1FB1D1B780120191C01F063FA62B601
:1022A000BD4603B090BDC04690B583B000AFBB1D26
:1022B00001221A7072B6FC1DBB1D0220191C01F010
:1022C000A5FA031C2370BB1D1B78012B05D1FB1D38
:1022D0001B780220191C01F045FA62B6BD4603B016
:1022E00090BDC04680B582B000AF72B60A23FF33FE
:1022F000181C002101F0AEF896239B010120191C47
:1023000001F0E2F896239B010220191C01F0DCF891
:1023100000200A2101F09EFB184B181C01F040F828
:10232000174B00221A70164B00225A70144B0022D1
:102330009A70134B9B787B60012001F0CBFA02204E
:1023400001F0C8FA62B60E4B9B781A1C7B689A4261
:1023500013D00A23FF33181C01F092F8084B1B78A6
:10236000191C074B5B781A1C054B9B78054801F03C
:1023700017F8034B9B787B60E5E7E4E71C3F000020
:102380000CF0FF1F483F000080B582B000AF021C78
:10239000FB1D1A70FB1D1B780220191C01F0E2F9CD
:1023A000BD4602B080BDC04680B584B000AFF860C5
:1023B000B9607A607B681B68012B02D0022B08D0C1
:1023C00012E07B685B68FA68D2B252B2101C984780
:1023D0000AE07B689B68FA68D2B21A707B689B68D7
:1023E0005A1C7B689A60C046BB681B685A1CBB6855
:1023F0001A60BD4604B080BDF0B5A7B000AFF8606C
:10240000B9607A603B1C5C3300221A6000225A607B
:1024100000229A600022DA6000221A613B1C10330D
:102420001A1C4C23101C00211A1C01F021FD002352
:102430009421C9190B60002300248022D219136053
:102440005460FB685C681B68181C211CFEF70CFBC1
:10245000031C9421C9190B60FB681D685E689422F7
:10246000D2191068FFF7B8FA031C0C1C281C311C89
:102470001A1C231CFEF748FF031C0C1CBB67FC67DF
:102480007B68002B24D1FB681D685E689423DB19F0
:102490001868FFF7A1FA031C0C1C281C311C1A1C1D
:1024A000231CFEF731FF031C0C1C181C211CB34B12
:1024B000B14AFEF799FC031C0C1C181C211CFEF7EA
:1024C000F3FA031C0C1C8021C9190B604C6019E045
:1024D00009E0B86FF96FAA4AAA4BFEF785FC031C06
:1024E0000C1CBB67FC677B685A1E7A60002BF0D11E
:1024F000B86FF96FFEF7D8FA031C0C1C8022D219B2
:1025000013605460FB681D685E689423DB191868CB
:10251000FFF762FA031C0C1C281C311C1A1C231C1C
:10252000FEF7F2FE031C0C1C3B677C67002388212E
:10253000C9190B6010E0386F796F914A914BFEF723
:1025400053FC031C0C1C3B677C678822D219136860
:1025500001338821C9190B60386F796F8A4A8B4B18
:10256000FEF73AFA031C002BE5D18822D219136832
:10257000013B8821C9190B6000239022D2191360F6
:102580009421C9190B68002B0BD19022D219136822
:102590005A1C9021C9190A60BA68D31830221A70DF
:1025A0004BE000238C22D21913601EE08C23DB1930
:1025B0001C68631C8C21C9190B609422D219136802
:1025C000181C0A21FEF786F90B1C191C3B1C5C33F6
:1025D000A200D1509421C9190B68181C0A21FEF7DA
:1025E00035F9031C9422D21913609421C9190B6880
:1025F000002BDBD11CE09022D21913685A1C9021C9
:10260000C9190A60BA68D3188C21C9190A68511E01
:102610003A1C5C3289008A58D2B23032D2B2D2B27D
:102620001A708C22D2191368013B8C21C9190B60D6
:102630008C22D2191368002BDDD19021C9190B68A7
:102640005A1C9021C9190A60BA68D3182E221A7030
:102650008022D21913688421C9190A6813430BD147
:102660009022D21913685A1C9021C9190A60BA68BD
:10267000D31830221A7070E000238C22D219136014
:1026800027E08C23DB191D686B1C8C21C9190B609A
:102690008022D21913685468181C211C0A220023B6
:1026A000FEF7C2F91C1C131C191C3B1C1033AA009A
:1026B000D1508021C9190B684C68181C211C0A22B2
:1026C0000023FEF7B1F9031C0C1C8022D219136001
:1026D00054608021C9190B688421C9190A68134301
:1026E000CFD112E08C22D21913685A1C8C21C9193F
:1026F0000A603A1C10329B00002199508822D2199E
:102700001368013B8821C9190B608822D21913680C
:10271000002BE7D11CE09021C9190B685A1C9021AD
:10272000C9190A60BA68D3188C21C9190A68511EE0
:102730003A1C103289008A58D2B23032D2B2D2B2A8
:102740001A708C22D2191368013B8C21C9190B60B5
:102750008C22D2191368002BDDD1BA689021C919D7
:102760000B68D31800221A709022D2191368181C13
:10277000BD4627B0F0BDC04600A0D885573476438B
:102780000000000000002440000000000000F03FB6
:1027900080B58CB000AFF860B9607A603B60002310
:1027A000FB61FB68BB61BB695A1CBA6100221A70ED
:1027B0007B68002B33D0BB681B68FB62FB6A002B75
:1027C00006D1BB6930221A70FB690133FB6159E005
:1027D00021E0F86A3968FEF787F8031C7B617B69A2
:1027E0003A685343FA6AD31ABB62BB6A002B04DA15
:1027F000BB6A3022D31ABB6202E0BB6A3033BB62D1
:102800007B69FB62BB695A1CBA61BA6AD2B21A70A0
:10281000FB690133FB61FB6A002BDAD132E0BB6854
:102820001B687B627B6A002B06D1BB6930221A7061
:10283000FB690133FB6125E021E03B68786A191CE4
:10284000FEF704F8031C3B613B683A6953437A6A1C
:10285000D31A3B623B6A092B03D83B6A30333B6295
:1028600002E03B6A37333B623B697B62BB695A1CBF
:10287000BA613A6AD2B21A70FB690133FB617B6AB2
:10288000002BDAD1FB69181CBD460CB080BDC046D8
:1028900080B586B000AFF860B9607A603B60FB68D5
:1028A0007B6109E07A683B683020111C1A1CFFF735
:1028B0007BFD7B6901337B617A69BB689A42F1DBFE
:1028C000BD4606B080BDC04680B586B000AFF8609A
:1028D000B9607A603B60FB687B6109E07A683B68BD
:1028E0002020111C1A1CFFF75FFD7B6901337B61FF
:1028F0007A69BB689A42F1DBBD4606B080BDC0462E
:1029000090B5A7B000AFF860B9607A603B1C2C337B
:1029100000221A6000225A6000229A600022DA60C7
:1029200000221A6100225A6100229A610022DA61B3
:102930002022002199543B1C2C3330221A70002392
:10294000BB620023FB670123BB67BB689421C919E5
:102950000B6000F013FD7B6E252B1FD07B6E0A2BC6
:102960000AD0796E3A1C2832FB68081C111C1A1C0C
:10297000FFF71AFD00F0FBFC3A1C2832FB680D2023
:10298000111C1A1CFFF710FD3A1C2832FB680A20A4
:10299000111C1A1CFFF708FD00F0E9FC002384223B
:1029A000D219136000238821C9190B604CE09422CE
:1029B000D219136801339421C9190B609422D219DA
:1029C00013681B785BB2203B102B31D89A00D64B92
:1029D000D3181B689F468421C9190B680122134331
:1029E0008422D21913602FE08421C9190B680222B6
:1029F00013438422D219136026E08421C9190B687D
:102A0000042213438422D21913601DE08421C919C2
:102A10000B68082213438422D219136014E0842126
:102A2000C9190B68102213438422D21913600BE0DA
:102A30009421C9190B68013B9422D2191360012318
:102A40008821C9190B60C0468822D2191368002B4F
:102A5000ADD000238021C9190B6000238822D21930
:102A600013602BE09421C9190B6801339422D21909
:102A700013609421C9190B681B785BB27B667B6E6F
:102A8000303B092B0ED88023DB191A68131C9B00DE
:102A90009B185B001A1C7B6E303BD3188021C91930
:102AA0000B600BE09422D2191368013B9421C919E1
:102AB0000B6001238822D2191360C0468821C919EE
:102AC0000B68002BCED09422D219136801339421C5
:102AD000C9190B609422D21913681B785BB22E2B94
:102AE00034D100237B6700238821C9190B6027E0BC
:102AF0009422D219136801339421C9190B609422CE
:102B0000D21913681B785BB27B667B6E303B092B56
:102B10000AD87A6F131C9B009B185B001A1C7B6EF3
:102B2000303BD3187B670BE09421C9190B68013B3C
:102B30009422D219136001238821C9190B60C04661
:102B40008822D2191368002BD2D00AE09421C91927
:102B50000B68013B9422D21913600023BB6700234A
:102B60007B679421C9190B6801339422D219136031
:102B70009421C9190B681B785BB2682B16D06C2B9B
:102B800002D04C2B05D009E0FB6F01221343FB67F9
:102B90000DE0FB6F02221343FB6708E09422D21979
:102BA0001368013B9421C9190B6000E0C0469422D0
:102BB000D219136801339421C9190B609422D219D8
:102BC00013681B785BB27B667B6E583B202B01D968
:102BD00000F0C3FB9A00554BD3181B689F467B68D7
:102BE00004337B607B68043B1B687B623A1C2C329D
:102BF0003B1C2433101C191C01220A23FFF7C8FDBB
:102C0000031C8C21C9190B603A1C2C328C21C91968
:102C10000B68D3189022D21913607B6A002B09DA53
:102C20002D233B678C21C9190B6801338C22D219E3
:102C3000136021E08423DB191A680223134009D0B2
:102C40002B233B678C21C9190B6801338C22D219C5
:102C5000136011E08423DB191A680423134009D0A0
:102C600020233B678C21C9190B6801338C22D219B0
:102C7000136001E000233B670023FB668423DB191C
:102C80001A68082313401FD03B6F002B08D0396F00
:102C90003A1C2832FB68081C111C1A1CFFF784FB25
:102CA0000123FB668C21C91908688022D21911689A
:102CB0003A1C2832FB68FFF7EBFD8021C9190B682D
:102CC0008C22D21913601EE08423DB191A680123B9
:102CD000134018D18C21C91908688022D2191168B3
:102CE0003A1C2832FB68FFF7EFFD3B6F002B08D042
:102CF000396F3A1C2832FB68081C111C1A1CFFF79C
:102D000053FB0123FB66FB6E002B0CD13B6F002BAA
:102D100009D0396F3A1C2832FB68081C111C1A1C98
:102D2000FFF742FB68E267E2AC3F0000F03F0000C3
:102D3000FB6F002B1DD17B6808337B607B68083BF1
:102D40005C681B683B657C653B1C63333A1C5032F6
:102D5000D2791A703B6D7B6500233B653B1C503379
:102D60003A1C63321278DA703B6D7C6DBB61FC619A
:102D700011E0FB6F012B02D0FB6F022B0BD17B68A4
:102D800004337B607B6808337B607B68083B5C684E
:102D90001B68BB61FC61BB6F002B13D0391C183161
:102DA0003A1C2C327B6F081C111C1A1CFFF724FBE9
:102DB000031C8C21C9190B603B1C2C339022D219A7
:102DC000136028E0FB6F002B12D13A1C18323B1C19
:102DD0002C33101C191C0822FFF70EFB031C8C213E
:102DE000C9190B603B1C2C339022D219136012E0DE
:102DF000391C18313A1C2C327B6F081C111C1A1C10
:102E0000FFF7FAFA031C8C21C9190B603B1C2C3309
:102E10009022D2191360BB69FC69181C211CD14B8C
:102E2000CF4AFDF7D9FD031C002B09D02D233B67AA
:102E30008C21C9190B6801338C22D219136021E04F
:102E40008423DB191A680223134009D02B233B6724
:102E50008C21C9190B6801338C22D219136011E03F
:102E60008423DB191A680423134009D020233B670D
:102E70008C21C9190B6801338C22D219136001E02F
:102E800000233B670023FB668423DB191A680823B1
:102E900013401FD03B6F002B08D0396F3A1C2832EB
:102EA000FB68081C111C1A1CFFF77EFA0123FB6645
:102EB0008C21C91908688022D21911683A1C28325D
:102EC000FB68FFF7E5FC8021C9190B688C22D21939
:102ED00013601EE08423DB191A680123134018D104
:102EE0008C21C91908688022D21911683A1C28322D
:102EF000FB68FFF7E9FC3B6F002B08D0396F3A1CE9
:102F00002832FB68081C111C1A1CFFF74DFA01231C
:102F1000FB66FB6E002B0CD13B6F002B09D0396F89
:102F20003A1C2832FB68081C111C1A1CFFF73CFADB
:102F300011E010E09021C9190B685A1C9021C919A1
:102F40000A601B7859B23A1C2832FB68081C111C15
:102F50001A1CFFF729FA9022D21913681B78002B4C
:102F6000E8D18423DB191A68012313400BD08C218C
:102F7000C91908688022D21911683A1C2832FB68E6
:102F8000FFF7A2FCF3E1F2E17B6804337B607B682E
:102F9000043B1B687B613A1C2C323B1C1433101C15
:102FA000191C00221023FFF7F3FB031C8C21C91905
:102FB0000B603A1C2C328C21C9190B68D318902253
:102FC000D21913600023FB668423DB191A680823D7
:102FD000134029D08421C9190A681023134011D045
:102FE0003A1C2832FB683020111C1A1CFFF7DCF950
:102FF0003A1C2832FB687820111C1A1CFFF7D4F900
:103000000123FB668C22D21910688023DB19196812
:103010003A1C2832FB68FFF73BFC8021C9190B687A
:103020008C22D219136035E08423DB191A6801233E
:1030300013402FD18421C9190A681023134006D0E8
:103040008C22D219136802338C21C9190B608C228F
:10305000D21910688023DB1919683A1C2832FB68E2
:10306000FFF732FC8421C9190A681023134011D0DC
:103070003A1C2832FB683020111C1A1CFFF794F907
:103080003A1C2832FB687820111C1A1CFFF78CF9B7
:103090000123FB668423DB191A68102313401AD01E
:1030A000FB6E002B17D13A1C2832FB683020111C14
:1030B0001A1CFFF779F93A1C2832FB687820111C9A
:1030C0001A1CFFF771F98C21C9190B6802338C2285
:1030D000D219136090E08FE07B6804337B607B68DB
:1030E000043B1B687B613A1C2C323B1C1433101CC4
:1030F000191C00220823FFF74BFB031C8C21C91964
:103100000B6046E07B6804337B607B68043B1B6894
:103110007B613A1C2C323B1C1433101C191C0022FE
:103120000223FFF735FB031C8C22D219136030E019
:103130007B6804337B607B68043B1B687B613A1CC3
:103140002C323B1C1433101C191C00221023FFF7D7
:103150001FFB031C8C21C9190B601AE0C046C04636
:1031600000000000000000007B6804337B607B6887
:10317000043B1B687B613A1C2C323B1C1433101C33
:10318000191C00220A23FFF703FB031C8C22D2190F
:1031900013603A1C2C328C21C9190B68D318902269
:1031A000D21913608423DB191A680823134011D045
:1031B0008C21C91908688022D21911683A1C28325A
:1031C000FB68FFF765FB8021C9190B688C22D219B7
:1031D000136011E08423DB191A68012313400BD11B
:1031E0008C21C91908688022D21911683A1C28322A
:1031F000FB68FFF769FB11E010E09021C9190B682B
:103200005A1E9021C9190A601B7859B23A1C2832FB
:10321000FB68081C111C1A1CFFF7C6F89022D21973
:1032200013681B78002BE8D18423DB191A6801236B
:1032300013400BD08C21C91908688022D21911685B
:103240003A1C2832FB68FFF73FFB90E08FE07B6879
:1032500004337B607B68043B1B68DBB25BB2FB65BD
:10326000F96D3A1C2832FB68081C111C1A1CFFF768
:103270009BF87CE07B6804337B607B68043B1B68C5
:10328000BB66BB6E002B5CD0BB6E181C00F03EFE14
:10329000031C8C21C9190B608423DB191A680123D4
:1032A00013400AD18C21C91908688022D2191168EB
:1032B0003A1C2832FB68FFF707FB7B6F002B1CD002
:1032C00016E07B6F002B10D07B6F013B7B67BB6EE2
:1032D0005A1CBA661B7859B23A1C2832FB68081C83
:1032E000111C1A1CFFF760F802E0BB6E0133BB66CD
:1032F000BB6E1B78002BE4D111E00CE0BB6E5A1CB6
:10330000BA661B7859B23A1C2832FB68081C111C9B
:103310001A1CFFF749F8BB6E1B78002BEED18423F3
:10332000DB191A68012313400BD08C21C9190868D6
:103330008022D21911683A1C2832FB68FFF7C4FAC0
:1033400015E014E07B6804337B607B68043B1B68FA
:10335000BB65BA6ABB6D1A6009E0796E3A1C283207
:10336000FB68081C111C1A1CFFF71EF8C0469421AC
:10337000C9190B6801339422D21913609421C91919
:103380000B681B785BB27B667B6E002B01D0FFF76E
:10339000E2FABB6A181CBD4627B090BDC046C046C5
:1033A0000FB480B586B000AF3B1D01221A603B1DF3
:1033B0000C4A5A603B1C24337B613A6A391D7B6995
:1033C000081C111C1A1CFFF79BFA031C3B6100230D
:1033D0007B613B69181CBD4606B080BC08BC04B0CC
:1033E0001847C0468923000080B582B000AF7860DE
:1033F0007B6802337A68023212780132D2B21A70D4
:103400007B6802331B783B2B21D97B680233002277
:103410001A707B6801337A68013212780132D2B2B5
:103420001A707B6801331B783B2B10D97B68013302
:1034300000221A707B681B780133DAB27B681A703D
:103440007B681B78172B02D97B6800221A70BD4657
:1034500002B080BD80B582B000AF0A1CBB1D011C4C
:1034600019807B1D1A70BB1D1A887B1D1B78101CD0
:1034700001211A1C00F034FBBD4602B080BDC046DD
:1034800080B582B000AF021CBB1D1A80BB1D1B881B
:10349000181C00F0D9FBBD4602B080BD80B582B0DB
:1034A00000AF021CFB1D1A70064BFA1D1278111C8E
:1034B0001F220A400121081C9040021C1A60BD46D0
:1034C00002B080BD00E100E080B586B000AF021C14
:1034D0003960FB1D1A709B4B7B61FB1D1B78181C10
:1034E00000F036FA031C002B00D128E1FB1D1B78ED
:1034F000002B00D098E0944A9349944BCB588021FC
:10350000C9041943914BD1508F4A8F498F4BCB58E7
:103510008021490219438D4BD1508D4B8C4A926BBF
:10352000C02189000A439A63894B894AD26BC02122
:1035300089000A43DA63C046834A8349854BCB58E6
:103540008021C9001943834BD1507B69DB78DBB202
:103550000C229343DAB27B69DA707F4B1B68181C2C
:10356000FA239900FDF772F9031CFA2292005A43DC
:103570003B681B01101C191CFDF768F9031C1A1C81
:103580003B1C12331A807B691B78DAB23B1C113367
:103590001F218A431A703B1C12331A88F8235B01DF
:1035A00013401B12DAB21F231340DAB23B1C113353
:1035B0001B781343DAB27B691A703B1C12331B88E9
:1035C000DAB27B695A707B690F229A727B6900229A
:1035D0009A707B6900229A717B6900221A727B695A
:1035E00000225A727B691B79DBB21F221343DAB2C5
:1035F0007B691A717B695B79DBB2402252421343CB
:10360000DAB27B695A717B69DB78DAB27F231340C7
:10361000DAB27B69DA707B69DB78DBB20C221343A8
:10362000DAB27B69DA708AE0FB1D1B78012B02D0CD
:10363000022B13D025E0494BC02292001A60474B61
:10364000C02292005A60C0463F4A3F49414BCB5886
:103650008021090119433F4BD15012E03F4B80229A
:10366000D2009A653D4B8022D200DA65C046364AC8
:103670003549384BCB58802149011943354BD1503E
:10368000C046FB1D1B785A1E354B9200D358FB6079
:10369000FB68DB78DBB20C229343DAB2FB68DA70AA
:1036A0002D4B1B68181CFA23D900FDF7CFF8031C1B
:1036B000FA2292005A433B681B01101C191CFDF7AB
:1036C000C5F8031C1A1C3B1C12331A80FB681B78BC
:1036D000DAB23B1C11331F218A431A703B1C123390
:1036E0001A88F8235B0113401B12DAB21F23134020
:1036F000DAB23B1C11331B781343DAB2FB681A7041
:103700003B1C12331B88DAB2FB685A70FB6800223C
:103710009A70FB6800229A71FB6800225A71FB685C
:10372000DB78DAB27F231340DAB2FB68DA70FB6829
:10373000DB78DBB20C221343DAB2FB68DA70BD46E9
:1037400006B080BD00A006400070044004100000D8
:10375000009004403410000004F0FF1F00D004402B
:103760007440000080B586B000AF0A1CFB1D011C30
:103770001970BB1D1A70224B3B61FB1D1B785A1E32
:10378000204B9200D358FB60FB1D1B78181C00F0E7
:10379000DFF8031C002B01D100232CE000237B6108
:1037A0001EE0FB1D1B78002B0BD13B691B79DBB2A4
:1037B000DBB25BB2002B10DA3B69BA1D1278DA710A
:1037C00012E0FB681B79DBB2DBB25BB2002B04DAE0
:1037D000FB68BA1D1278DA7106E07B6901337B6100
:1037E0007A69094B9A42DCD97A69074B9A4201D926
:1037F000002300E00123181CBD4606B080BDC04672
:1038000000A0064074400000BAFB000080B586B0FE
:1038100000AF021C3960FB1D1A702B4BFB60FB1DB7
:103820001B785A1E294B9200D358BB60FB1D1B7896
:10383000181C00F08DF8031C002B04D13B680022FB
:103840001A7000233BE000237B6126E0FB1D1B7800
:10385000002B0FD1FB681B79DBB21A1C202313400D
:1038600018D03B1C1333FA68D2791A703B680122D6
:103870001A7016E0BB681B79DBB21A1C20231340B8
:1038800008D03B1C1333BA68D2791A703B68012206
:103890001A7006E07B6901337B617A690C4B9A42AE
:1038A000D4D97A690A4B9A4206D93B1C1333FF22BA
:1038B0001A703B6800221A703B1C13331B78181CCB
:1038C000BD4606B080BDC04600A006407440000062
:1038D000BAFB000080B584B000AF021CFB1D1A705B
:1038E000184BFB60FB1D1B785A1E174B9200D358D8
:1038F000BB60FB1D1B78181C00F02AF8031C002B72
:1039000000D11CE0FB1D1B78002B08D1FB68DB7885
:10391000DBB220221343DAB2FB68DA7007E0BB683F
:10392000DB78DBB220221343DAB2BB68DA70FB1D0E
:103930001B78064AD35C5BB2181CFFF7AFFDBD468F
:1039400004B080BD00A006407440000000F0FF1FDE
:1039500080B582B000AF021CFB1D1A70FB1D1B78E6
:10396000022B01D9002300E00123181CBD4602B040
:1039700080BDC046B0B582B000AF021C3960FB1DEF
:103980001A70FB1D1B787F2B32D93049FB1D1B7829
:103990001A1C0F231340083B98082C4AFB1D1B7868
:1039A0001C1C0F232340083B9B0806339B00D318A5
:1039B0005B68FA1D1278141C03222240D200FF24F7
:1039C000251C95402A1CD2431A403B689C01FF23CA
:1039D0001C40FB1D1B781D1C03232B40DB00251CFA
:1039E0009D402B1C1A43831D9B00CB185A6029E075
:1039F000174BFA1D127852B292081549F81D00783B
:103A000040B28008C03080004158F81D0078041C86
:103A100003202040C000FF24251C8540281CC043F3
:103A2000084039688C01FF210C40F91D09780D1CF4
:103A300003212940C900251C8D40291C0143C032A7
:103A40009200D150BD4602B0B0BDC04600ED00E0CE
:103A500000E100E090B583B000AF0A1CFB1D011C23
:103A60001970BB1D1A701C4B00221A601A4B0022E1
:103A70009A60FB1D1B78002B0ED1174C174B1B684F
:103A8000181CFA239900FCF7E1FE031CBA1D1278FA
:103A900053431B0963600FE00F4C104B1B68181C4D
:103AA000FA239900FCF7D2FE031CBA1D1278534387
:103AB0006360094B04221A6001235B42181C032136
:103AC000FFF758FF044B044A126803210A431A60A7
:103AD000BD4603B090BDC04610E000E004F0FF1FFB
:103AE00080B586B000AFBB1D18807B1D19703B1DD3
:103AF0001A70BB1D19883A1C0F323B1C0E33081C70
:103B0000111C1A1C00F0CAF83B1C0F331B781A1C3E
:103B10002A4B9200D3587B613B1C0F331B781A1C35
:103B2000274B9200D3583B613B1C0E331B781A1C69
:103B30003B1C0E331B78191C7B698900C958214B2B
:103B400019407B699200D1503B1C0E331B781A1C24
:103B50003B1C0E331B78191C7B698900CB588021D4
:103B6000490019437B699200D1507B1D1B78012BC2
:103B700014D13B695A693B1C0E331B780121081C88
:103B80009840031C1A433B695A61BB1D1A883B1DB0
:103B90001B78101C191C00F017F80CE03B695B69DE
:103BA0003A1C0E3212780121081C9040021CD243AC
:103BB0001A403B695A61BD4606B080BD7C4000009A
:103BC00090400000FFF8FFFF80B584B000AF0A1CF2
:103BD000BB1D011C19807B1D1A70BB1D19883A1C66
:103BE0000B323B1C0A33081C111C1A1C00F056F83F
:103BF0003B1C0B331B781A1C124B9200D358FB60F2
:103C00007B1D1B78012B0CD1FB681A683B1C0A3307
:103C10001B780121081C9840031C1A43FB681A609A
:103C20000CE0FB681B683A1C0A3212780121081C60
:103C30009040021CD2431A40FB681A60BD4604B093
:103C400080BDC0469040000080B584B000AF021C2B
:103C5000BB1D1A80BB1D19883A1C0B323B1C0A3352
:103C6000081C111C1A1C00F019F83B1C0B331B78A4
:103C70001A1C094B9200D358FB60FB68DA683B1CA6
:103C80000A331B780121081C9840031C1A43FB6867
:103C9000DA60BD4604B080BD9040000080B584B0BD
:103CA00000AFB9607A603B1C0E33021C1A803B1CCB
:103CB0000E331B881B0A9BB2DAB2BB681A703B1C1E
:103CC0000E331B88DAB27B681A70BD4604B080BD23
:103CD00080B582B000AF00237B60FB1C00221A700D
:103CE0005B4A88235B010021D1505A4B14225A7041
:103CF000584B98221A7000237B600AE0554B9B7941
:103D0000DBB21A1C0223134000D006E07B680133AB
:103D10007B607A68504B9A42F0D900237B600AE0BE
:103D20004C4B9B79DBB21A1C1023134000D106E0E8
:103D30007B6801337B607A68484B9A42F0D9002354
:103D40007B600CE0434B9B79DBB21A1C0C231340C5
:103D50009B08022B00D106E07B6801337B607A6808
:103D60003E4B9A42EED93B4B3A4A5279D2B220218D
:103D70000A43D2B25A71374B364A1279D2B2012174
:103D80000A43D2B21A71334B5B79DAB2FB1C1A7058
:103D9000FB1CFA1C12781F218A431A70FB1CFA1CA8
:103DA000127840210A431A702A4BFA1C12785A7171
:103DB00000237B600AE0274B9B79DBB21A1C20238F
:103DC000134000D006E07B6801337B607A68234BA8
:103DD0009A42F0D900237B600AE01E4B9B79DBB24C
:103DE0001A1C4023134000D006E07B6801337B603F
:103DF0007A681B4B9A42F0D9154A1A4B1A49D1508E
:103E0000144B144A1278D1B23F220A40D2B21A702F
:103E100000237B600CE00F4B9B79DBB21A1C0C2358
:103E200013409B08032B00D106E07B6801337B60C5
:103E30007A680A4B9A42EED9054A05490B4BCB5892
:103E4000F82189011943094BD150BD4602B080BD0C
:103E500000700440004006401F4E0000CF070000E5
:103E60009F0F0000441000000000011038100000F7
:103E7000F0B5830746D0541E002A42D0CEB2031CB0
:103E8000032503E0621E002C3BD0141C01335A1E94
:103E900016702B42F6D1032C2BD9FF250D402A0298
:103EA00015432A0415430F2C15D9271C103F3F0931
:103EB0001E1C3A011036B6181A1C15605560956024
:103EC000D5601032B242F8D101373F010F22DB1921
:103ED0001440032C0DD9271FBF08BA001E1DB618A9
:103EE0001A1C20C2B242FCD10137BF000322DB19E9
:103EF0001440002C05D01C19C9B219700133A3421B
:103F0000FBD1F0BD141C031CC5E7C0460023C25CF6
:103F10000133002AFBD1581E7047C0460D0ACBD58D
:103F2000D6DDB4F3D1A7C7B6C8EBCABDCAB5D1E9CF
:103F3000CAD25379735469636BB9B9BCFEB2E2CA91
:103F4000D4D3C3C0FD2100000D0A4D4355BCC7C2E8
:103F5000BCB5C4CFE0B6D4CAB1BCE4A3BA253032F4
:103F6000643A253032643A2530326400CC0F0000C8
:103F7000BA110000BA110000AC0F0000960E00004C
:103F8000960E00009E0F0000AC0F0000960E000081
:103F90009E0F0000960E0000AC0F0000940E000073
:103FA000940E0000940E0000C2110000FA290000D7
:103FB000302A0000302A00001E2A0000302A0000AB
:103FC000302A0000302A0000302A0000302A000089
:103FD000302A0000302A0000E8290000302A0000C2
:103FE000D6290000302A0000302A00000C2A0000E8
:103FF000882F00005A3300005A3300005A33000063
:104000005A3300005A3300005A3300005A3300007C
:104010005A3300005A330000043100004E320000D1
:10402000DE2B00005A330000302D00005A33000010
:104030005A330000DE2B00005A3300005A330000D0
:104040005A3300005A33000044330000D8300000D7
:10405000303100005A3300005A330000743200003F
:104060005A330000683100005A3300005A33000010
:10407000882F000000B0064000C0064000900440B9
:1040800000A0044000B0044000C0044000D0044040
:1040900000F00F4040F00F4080F00F40C0F00F40A4
:0440A00000F10F40DC
:0840A4001CDAFF7F010000009F
:0840AC000C0D0E00006CDC029B
:0400000300000801F0
:00000001FF
