:1000000000300020110400005504000055040000D9
:1000100000000000000000000000000000000000E0
:100020000000000000000000000000005504000077
:10003000000000000000000055040000DD0D00007D
:10004000550400005504000055040000550400004C
:10005000550400005504000055040000550400003C
:10006000550400005504000055040000550400002C
:10007000290E0000310E0000390E0000550400006A
:10008000550400005504000055040000550400000C
:1000900055040000550400005504000055040000FC
:1000A00055040000550400005504000055040000EC
:1000B00055040000550400005504000055040000DC
:10040000FFFFFFFFFFFFFFFFFFFFFFFFFEFFFFFFFD
:1004100072B601F00BFB62B609490A4A0A4B9B1AF5
:1004200003DD043BC858D050FBDC0849084A521A87
:1004300003DD00208850043AFCDA00F001FD0000E2
:10044000941C000000F0FF1F24F0FF1F24F0FF1F8A
:1004500050F0FF1F0048004755040000002934D029
:100460000123002210B488422CD301242407A14286
:1004700004D2814202D209011B01F8E7E400A14243
:1004800004D2814202D249005B00F8E7884201D3DE
:10049000401A1A434C08A04202D3001B5C082243B6
:1004A0008C08A04202D3001B9C082243CC08A04227
:1004B00002D3001BDC082243002803D01B0901D013
:1004C0000909E3E7101C10BC7047002801D0002088
:1004D000C04307B4024802A14018029003BDC046C1
:1004E000190000000029F0D003B5FFF7B9FF0EBCDA
:1004F0004243891A1847C0467047C0468446101CBC
:1005000062468C46191C634600E0C0461FB500F0E9
:10051000FBF8002801D40021C8421FBD10B500F02F
:100520002BF84042013010BD10B500F0EDF8002866
:1005300001DB002010BD012010BDC04610B500F049
:10054000E3F8002801DD002010BD012010BDC046E9
:1005500010B500F05BF8002801DC002010BD012080
:1005600010BDC04610B500F051F8002801DA002097
:1005700010BD012010BDC046F0B55F4656464D4641
:100580004446F0B40D1C041C8046E80F8146180355
:100590000F03000B3F0B83B084461B4800974900B4
:1005A0005E00DF0F490D9246760DBB4681420CD0AE
:1005B0001548864210D00120B14215D003B03CBC92
:1005C00090469946A246AB46F0BD009F01202743C6
:1005D000F4D10D488642EED1604602430120002A44
:1005E000ECD10120B142E9D1009B6345E6D1D04571
:1005F000E4D1D94506D00029E0D11C43201C441E7B
:10060000A041DBE70020D9E7FF070000F0B55F4617
:1006100056464D464446F0B4CD0FDE0FAC461D03A2
:100620002D0BB146374E0F034C00AB465D008046A4
:100630003F0B640D92466D0DB44232D0314EB5423F
:1006400035D0002C0ED1384341424141081C002DC9
:100650000BD0002919D1CC452DD065466842012325
:10066000184318E0002DF6D1281C59460A4353427E
:100670005341002806D1002BEDD063465842012398
:10068000184308E00020002B05D14A465042504153
:100690004042012318433CBC90469946A246AB46D3
:1006A000F0BD3E1C0643C9D002204042F3E75E463F
:1006B0001643C6D0F8E7AC4207DC0BDA6146484285
:1006C0004841404201231843E5E766467042012352
:1006D0001843E0E75F450AD80ED000205F45DAD224
:1006E000654668426841404201231843D3E76246A9
:1006F000504201231843CEE7D045F8D80020D0451A
:10070000EED3C8E7FF070000F0B556464D46444615
:100710005F46F0B40D1C83B0041C0190E80F8146C5
:1007200018030F03000B3F0B844635480097490020
:100730005E00DF0F490D9246760DB846814234D0F7
:100740002F48864236D0002918D0002E1FD1341CE5
:1007500067463A4353425341002C1FD00020002BE0
:1007600005D142465042504140420123184303B054
:100770003CBC90469946A246AB46F0BD0098044367
:1007800060426041041C002EE2D00028E9D1C1453E
:1007900015D04F46784201231843E8E7002BF6D0E6
:1007A0004B46584201231843E1E7009F02202743AC
:1007B000DDD1C5E7674602201743D8D1C3E7B14270
:1007C00004DD4A46504201231843D0E7B14207DB1B
:1007D00000986045E4D80AD0009F00206745C6D243
:1007E0004F4678427841404201231843BFE7019ABF
:1007F0005245D5D8019A00205245F1D3B7E7C046FB
:10080000FF070000F0B5564644465F464D46F0B43B
:100810001F1C0B031B0B9A464B0087B0041C804621
:100820005B0DC80F161C02938146002B68D0694BE4
:100830000299994232D08022534652031A43D20081
:10084000630F1A439246644AE00089188046029179
:10085000002400253B031B0B9B467800FB0F321C3A
:10086000400D039300D175E05A4B984269D0802225
:10087000594652030A43730FD2001A43564B93460C
:10088000C018F200002303994E4671401C430F2C00
:1008900000D9A9E0514EA4003459A74653461C4341
:1008A00000D087E00025AA46A84608240225D1E703
:1008B0004946022D6CD0032D00D117E2012D00D046
:1008C00058E10D40EDB20024A9460023A0460020C7
:1008D000002125030A0D1C052D0B1205404B2A4350
:1008E000134023435B004C465B08E207191C40465B
:1008F000114307B03CBC90469946A246AB46F0BDBA
:100900005346234350D05346002B00D184E1504638
:1009100000F046FA031E272B00DD76E128210D1A90
:10092000211C083B5246E9409A400D1C1543221CED
:100930009A40AA4690462B4B00241B1A029300258E
:1009400088E75B461E430323002E9CD1B34600225A
:10095000022398E75B46334321D05846002800D154
:100960004EE100F01DFA272800DD42E128210F1A90
:10097000021C311C083A5B46F94093400F1C1F4390
:10098000331C9340BB461A1C164B181A00237AE7F7
:1009900001230B4000249946A0460E4B97E7002701
:1009A000BB46002201236EE7002104248A468846C4
:1009B00001254FE70C2403254CE700258024A94698
:1009C0002403A846034B82E7DA46904603991D1C90
:1009D0006FE7C046FF07000001FCFFFFD81B0000C7
:1009E000FFFF0F800DFCFFFF029F160C38180490CC
:1009F0004046070C0004000C1204120C031C534365
:100A0000041C3D1C7443554398463B1C73436419B6
:100A1000A44644460293230C63449D4204D9029D9C
:100A2000802464022D1902951D0C039545462C0463
:100A30001B04240C1C1905945C46230C051C58430C
:100A40002404240C8446381C604365435F4381467C
:100A5000CC44280C6044BB46814502D980277F02E4
:100A6000BB442D04070C2D0C000440195546BC4610
:100A70002F04E3448446280C3D0C2F1C5743B846F2
:100A80002F1C77434243B94647463F0C9144BA4630
:100A9000D14446434A4502D980225202B6184F46F5
:100AA0003A0CB6183A0447463F043F0CB8462F1C90
:100AB00067435D434443584365190190380C2D1832
:100AC0004244B846AC4204D9019880235B02C01866
:100AD0000190039C029F201C6044C0196045A44102
:100AE00047466442A4462B043C049946240C4C44DB
:100AF000A046D8448018C246E244904292415746EC
:100B000052429146F219E245BF417F424B46BC46F4
:100B1000D845BF41D4187F4263461F432D0C7F192F
:100B2000B24292414C45AD4152426D421543019E45
:100B30007D19AB19E20D5B02059F134342023A4354
:100B40009A46531E9A41C30D101C18436402204359
:100B500080465046C0010DD5454601225646049CAC
:100B60006B082A401A43F30701341A4376080494A9
:100B70009046B246049E634FF319002B61DD404658
:100B800040070BD00F2244462240042A06D042469A
:100B90000432424580414042824490465546ED0130
:100BA00007D5594B5646049F80201E40C000B246D0
:100BB0003B18564A934200DDEAE644465546E208B1
:100BC0006807104301226C025B050A408046240B33
:100BD0005B0D91467BE6DA4690461D1C69E6802453
:100BE0002403574627421CD13C432403240B484B83
:100BF0006DE6031C283B311C99408B460022C3E65E
:100C0000301C00F0CDF82030ADE6283B211C994087
:100C100000228A4690468EE6201C00F0C1F8203063
:100C200078E65846204207D1044303992403240B55
:100C300089469046364B4AE63C432403240B344B0A
:100C400045E6344B049E9B1B382B06DD01230B40ED
:100C500000249946A046002339E61F2B25DC049C7E
:100C60002D4D46466019524644468640DC4082403F
:100C70005746301C2243DF40441EA04102433B1C28
:100C8000540709D00F201040042805D0101D9042B1
:100C9000924152429B18021C1D021AD501230B409F
:100CA00000249946A046012311E61C48049C5546A1
:100CB000001BC540281C202B16D0194E5746A219E0
:100CC00097403A1C43461A43531E9A41024300235D
:100CD000D6E758075B02D2081C0B01230B401043D8
:100CE000994680460023F2E50022EBE780242403A6
:100CF00050460123044319402403240B8946044B26
:100D0000E5E5C046FF030000FFFFFFFEFE07000011
:100D1000FF07000002FCFFFF1E040000E2FBFFFFD4
:100D20003E040000F8B5041E31D0C70F00D0444285
:100D3000201C00F035F8184D2D1A0A2819DD0B3843
:100D4000844024036D05240B6D0D3A1C0026002001
:100D500000210B0D2403240B1B0523430F4C2D05F1
:100D60001C402C4364006408D307211C301C194329
:100D7000F8BD061C1536231CB3401E1C0B23181A85
:100D8000C44024036D05240B6D0D3A1CDFE70022DF
:100D9000002500240026DAE71E040000FFFF0F8074
:100DA0001C2101231B04984201D3000C10391B0A9B
:100DB000984201D3000A08391B09984201D300095F
:100DC000043902A2105C40187047C04604030202B6
:100DD00001010101000000000000000090B583B097
:100DE00000AF0F4B181C00F0B1F8FC1D0A2000F0FA
:100DF000A7FA031C2370FB1D1B78FF2B0CD0FB1DD7
:100E00001B78181C00F018FB031C1A1C054BDA7722
:100E1000044B181C00F072F9BD4603B090BDC046EB
:100E20004CF0FF1F28F0FF1F80B500AFBD4680BD0E
:100E300080B500AFBD4680BD80B500AFBD4680BD6A
:100E400090B58BB000AF3B1D1F4A13CA13C313CA22
:100E500013C303CA03C372B600F03CF800F0F4F801
:100E600000F02CFA0020052100F014FC174B08229A
:100E70001A70164B06225A70144B09229A70134BA3
:100E80000222DA703B1C273300221A7010E03B1C50
:100E900027331B783A1C27321278391D895C0C4A9B
:100EA000D1543B1C27331A783B1C273301321A706C
:100EB0003B1C27331B781F2BE9D9054B181C00F06E
:100EC0001DF962B6FEE7C046B41B00004CF0FF1FE0
:100ED00028F0FF1F80B582B000AFFB1D00221A7002
:100EE000FB1D00221A700EE0FB1D1A78154B5200F4
:100EF000D35A181C0121002200F012FCFB1D1A78A5
:100F0000FB1D01321A70FB1D1B78072BECD9FB1D52
:100F100000221A700EE0FB1D1A780B4B5200D35AB8
:100F2000181C0121002200F0FBFBFB1D1A78FB1DA1
:100F300001321A70FB1D1B78032BECD9BD4602B0A1
:100F400080BDC046381C0000301C000080B584B055
:100F500000AF7860384B1B787A68D2183B1C0E3390
:100F600012781A703B1C0E331A783B1C0D33334930
:100F70008A5C1A703B1C0F3300221A7010E03B1C75
:100F80000F331A782E4B5200D35A181C002100F050
:100F90003BFC3B1C0F331A783B1C0F3301321A7099
:100FA0003B1C0F331B78032BE9D93B1C0F3300226A
:100FB0001A7022E03B1C0D331A783B1C0F331B7850
:100FC000111C19410B1CD9B23B1C0C3301220A40E5
:100FD0001A703B1C0F331A781A4B5200D25A3B1C22
:100FE0000C331B78101C191C00F00EFC3B1C0F333B
:100FF0001A783B1C0F3301321A703B1C0F331B78DD
:10100000072BD7D90C4B1B781A1C0D4B5200D35A07
:10101000181C012100F0F8FB074B1B780133DAB2F2
:10102000054B1A70044B1B78032B02D9024B00228C
:101030001A70BD4604B080BD24F0FF1F181C0000CC
:10104000301C0000381C000080B582B000AF0023C7
:101050007B60254B181C0121002200F061FB234B13
:10106000181C0121002200F05BFB214B181C012100
:10107000002200F055FB00237B600BE01D4B7A68DB
:101080005200D35A181C0121002200F049FB7B6852
:1010900001337B607B68072BF0D90020382100F0FA
:1010A00075F80020082100F071F80020012100F0FF
:1010B0006DF800237B6003E0C0467B6801337B60F2
:1010C0007A680D4B9A42F7D90020062100F05EF8AD
:1010D0000020142100F05AF800200C2100F056F8EE
:1010E000BD4602B080BDC0460703000006030000F5
:1010F0000503000000F0FF1F7F38010080B584B0B9
:1011000000AF7860FFF7A0FF0020802100F03EF8DC
:101110003B1C0F3300221A7010E03B1C0F331B786E
:101120007A68D3181B780120191C00F02FF83B1C9B
:101130000F331A783B1C0F3301321A703B1C0F33EC
:101140001B780F2BE9D90020C02100F01FF83B1CB1
:101150000F3310221A7010E03B1C0F331B787A6893
:10116000D3181B780120191C00F010F83B1C0F331A
:101170001A783B1C0F3301321A703B1C0F331B785B
:101180001F2BE9D9BD4604B080BDC04680B584B0F0
:1011900000AF0A1CFB1D011C1970BB1D1A70424ACE
:1011A000FB1D1B78101C191C00F02EFB3F4B181C5C
:1011B000002100F029FB3B1C0C3300221A8006E0C2
:1011C0003B1C0C331A883B1C0C3301321A803B1C2D
:1011D0000C331A88364B9A42F2D9C0463B1C0F3367
:1011E00000221A7010E03B1C0F331A78314B52006A
:1011F000D35A181C002100F007FB3B1C0F331A7850
:101200003B1C0F3301321A703B1C0F331B78072B2A
:10121000E9D93B1C0F3300221A7021E0BB1D1A785C
:101220003B1C0F331B78111C19410B1CD9B23B1C02
:101230000B3301220A401A703B1C0F331A781D4BE6
:101240005200D25A3B1C0B331B78101C191C00F0A7
:10125000DBFA3B1C0F331A783B1C0F3301321A7038
:101260003B1C0F331B78072BD8D9134B181C0121BB
:1012700000F0CAFA3B1C0C3300221A8007E0C0467B
:101280003B1C0C331A883B1C0C3301321A803B1C6C
:101290000C331B88182BF2D9074B181C002100F0C7
:1012A000B3FABD4604B080BD07030000060300008A
:1012B0000F0E000000F0FF1F0503000080B582B094
:1012C00000AFFB1D00221A7017E0FB1D1A781A4BA5
:1012D0005200D35A181C0021002200F021FAFB1DF5
:1012E0001A78154B5200D35A181C012100F0F6FA57
:1012F000FB1D1A78FB1D01321A70FB1D1B78032B96
:10130000E3D9FB1D00221A700EE0FB1D1A780B4B6F
:101310005200D35A181C0121002200F001FAFB1DD3
:101320001A78FB1D01321A70FB1D1B78032BECD9B8
:10133000BD4602B080BDC04618F0FF1F10F0FF1F71
:10134000F0B585B000AF021CFB1D1A703B1C0C33BE
:1013500000221A703B1C0D33FF221A70FB1D1B78F4
:10136000002B03D0FB1D1B78142B02D9FB1D01227F
:101370001A703B1C0F3301221A704BE03C1C0E34D8
:1013800000F094F8031C23703A1C0E323B1C0D3302
:1013900012781B789A422CD13B1C0E331B78FF2B02
:1013A00027D03B1C0C331A783B1C0C3301321A70CB
:1013B0003B1C0C331B78181CFFF7B4FC051C0E1CDF
:1013C000FB1D1B78181CFFF7ADFC031C0C1C181C24
:1013D000211C184B164AFFF715FA031C0C1C281C7D
:1013E000311C1A1C231CFFF7BDF8031C002B0AD06C
:1013F00017E03B1C0D333A1C0E3212781A703B1C5E
:101400000C3301221A703B1C0F331A783B1C0F332C
:1014100001321A703A1C0F32FB1D12781B789A4267
:10142000ACD93B1C0E331B78181CBD4605B0F0BD73
:10143000000000000000E03F80B584B000AF021C57
:10144000FB1D1A703B1C0E3300221A703B1C0F331D
:10145000FF221A7019E03B1C0E331B78124AD35C32
:10146000FA1D12789A4209D13B1C0E331B785A1C84
:101470003B1C0F330C498A5C1A700DE03B1C0E3389
:101480003A1C0E32127802321A703B1C0E331B7853
:10149000054AD35C002BDED13B1C0F331B78181C94
:1014A000BD4604B080BDC046481C000080B582B077
:1014B00000AFFB1DFF221A703B1D00221A70FFF7C0
:1014C000FDFEBB1D00221A7065E07B1D00221A7014
:1014D0000DE07B1D1A78354B5200D35A181C0121A0
:1014E00000F092F97B1D1A787B1D01321A707B1D6A
:1014F0001B78032BEDD9BB1D1A782C4B5200D35A05
:10150000181C002100F080F9C046C0467B1D002257
:101510001A7032E07B1D1A78254B5200D35A181CE2
:1015200000F0B2F9031C002B22D1BB1D1B78043341
:101530000122111C99400B1CDBB2DB43DBB2FA1D0C
:1015400012781340DAB2FB1D1A707B1D1B78012242
:10155000111C99400B1CDBB2DB43DBB2FA1D127885
:101560001340DAB2FB1D1A703B1D01221A7008E00D
:101570007B1D1A787B1D01321A707B1D1B78032B93
:10158000C8D93B1D1B78012B00D108E0BB1D1A7880
:10159000BB1D01321A70BB1D1B78032B95D9FB1D97
:1015A0001B78181CBD4602B080BDC04610F0FF1F5E
:1015B00018F0FF1FB0B582B000AF021C3960FB1DF0
:1015C0001A70FB1D1B787F2B32D93049FB1D1B780D
:1015D0001A1C0F231340083B98082C4AFB1D1B784C
:1015E0001C1C0F232340083B9B0806339B00D31889
:1015F0005B68FA1D1278141C03222240D200FF24DB
:10160000251C95402A1CD2431A403B689C01FF23AD
:101610001C40FB1D1B781D1C03232B40DB00251CDD
:101620009D402B1C1A43831D9B00CB185A6029E058
:10163000174BFA1D127852B292081549F81D00781E
:1016400040B28008C03080004158F81D0078041C6A
:1016500003202040C000FF24251C8540281CC043D7
:10166000084039688C01FF210C40F91D09780D1CD8
:1016700003212940C900251C8D40291C0143C0328B
:101680009200D150BD4602B0B0BDC04600ED00E0B2
:1016900000E100E090B583B000AF0A1CFB1D011C07
:1016A0001970BB1D1A701C4B00221A601A4B0022C5
:1016B0009A60FB1D1B78002B0ED1174C174B1B6833
:1016C000181CFA239900FEF7C9FE031CBA1D1278F4
:1016D00053431B0963600FE00F4C104B1B68181C31
:1016E000FA239900FEF7BAFE031CBA1D1278534381
:1016F0006360094B04221A6001235B42181C03211A
:10170000FFF758FF044B044A126803210A431A608A
:10171000BD4603B090BDC04610E000E020F0FF1FC2
:1017200080B586B000AFBB1D18807B1D19703B1DB6
:101730001A70BB1D19883A1C0F323B1C0E33081C53
:10174000111C1A1C00F058F93B1C0F331B781A1C93
:101750002A4B9200D3587B613B1C0F331B781A1C19
:10176000274B9200D3583B613B1C0E331B781A1C4D
:101770003B1C0E331B78191C7B698900C958214B0F
:1017800019407B699200D1503B1C0E331B781A1C08
:101790003B1C0E331B78191C7B698900CB588021B8
:1017A000490019437B699200D1507B1D1B78012BA6
:1017B00014D13B695A693B1C0E331B780121081C6C
:1017C0009840031C1A433B695A61BB1D1A883B1D94
:1017D0001B78101C191C00F017F80CE03B695B69C2
:1017E0003A1C0E3212780121081C9040021CD24390
:1017F0001A403B695A61BD4606B080BD6C1C0000B2
:10180000801C0000FFF8FFFF80B584B000AF0A1C09
:10181000BB1D011C19807B1D1A70BB1D19883A1C49
:101820000B323B1C0A33081C111C1A1C00F0E4F894
:101830003B1C0B331B781A1C124B9200D358FB60D5
:101840007B1D1B78012B0CD1FB681A683B1C0A33EB
:101850001B780121081C9840031C1A43FB681A607E
:101860000CE0FB681B683A1C0A3212780121081C44
:101870009040021CD2431A40FB681A60BD4604B077
:1018800080BDC046801C000080B584B000AF021C43
:10189000BB1D1A80BB1D19883A1C0B323B1C0A3336
:1018A000081C111C1A1C00F0A7F83B1C0B331B78FA
:1018B0001A1C094B9200D358FB60FB681A693B1C49
:1018C0000A331B78DA40012313405A1E9341DBB2DE
:1018D000181CBD4604B080BD801C000080B584B0DB
:1018E00000AF0A1CBB1D011C19807B1D1A70BB1D9B
:1018F00019883A1C0B323B1C0A33081C111C1A1C99
:1019000000F07AF83B1C0B331B781A1C384B920002
:10191000D358FB603B1C0A331B781A1C3B1C0A3350
:101920001B78191CFB688900C958324B1940FB68A9
:101930009200D1503B1C0A331B781A1C3B1C0A3303
:101940001B78191CFB688900CB588021490019437A
:10195000FB689200D1503B1C0A331B781A1C3B1CBD
:101960000A331B78191CFB688900CB584021181CCE
:101970008843011CFB689200D1503B1C0A331B7842
:101980001A1C3B1C0A331B78191CFB688900CB58B6
:1019900002211943FB689200D1507B1D1B78012B5B
:1019A00010D13B1C0A331B781A1C3B1C0A331B78D2
:1019B000191CFB688900CB5801211943FB68920070
:1019C000D15011E03B1C0A331B781A1C3B1C0A3314
:1019D0001B78191CFB688900CB580121181C88430F
:1019E000011CFB689200D150BD4604B080BDC046CA
:1019F0006C1C0000FFF8FFFF80B584B000AFB96039
:101A00007A603B1C0E33021C1A803B1C0E331B8871
:101A10001B0A9BB2DAB2BB681A703B1C0E331B88E0
:101A2000DAB27B681A70BD4604B080BD80B500AFE5
:101A3000534A88235B010021D150524B1B78DBB203
:101A40001A1C012313400ED04F4B9B78DBB21A1C9B
:101A50000823134007D04C4B4B4A9278D2B208214E
:101A60000A43D2B29A70494B2A221A70444A484B10
:101A70004849D150424B424A1268C02109030A43E7
:101A80001A603F4A3E49444BCB58802149021943D2
:101A9000414BD1503A4A3A493F4BC9583F4B0B4012
:101AA0008021490419433C4BD150354A34493C4BC1
:101AB000CB58802189001943394BD150394B394AD1
:101AC000916C394A0A409A64364B364AD16C364A90
:101AD0000A40DA64354B00221A72344B24225A70C1
:101AE000334B80221A70314B9A221A70C0462F4B0A
:101AF0009B79DBB21A1C02231340F8D0C0462B4B53
:101B00009B79DBB21A1C10231340F8D1274B274ACC
:101B1000D278D1B21F220A40D2B2DA70234B01220E
:101B20001A71224B00225A71204B204A5279D2B2AC
:101B300040210A43D2B25A71C0461C4B9B79DBB29A
:101B40001A1C40231340F8D0184B184A1278D1B20F
:101B50003F220A40D2B21A70C046144B9B79DBB2C6
:101B60001A1C0C2313400C2BF7D1054A04490C4BCB
:101B7000CB58F82189011943094BD150BD4680BD8E
:101B80000070044000F0074000D0074000E007402C
:101B9000441000000000011004100000FFFFFFFCD3
:101BA0003810000000900440FFF8FFFE004006409F
:101BB00000500640546865206B6579626F617264FD
:101BC00020796F75206A75737420696E7075742042
:101BD0006973202E00000000E8090000D60B000009
:101BE000D60B0000C8090000B2080000B2080000CF
:101BF000BA090000C8090000B2080000BA090000D4
:101C0000B2080000C8090000B0080000B0080000D9
:101C1000B0080000DE0B00003F065B4F666D7D07DD
:101C20007F6FBF86DB4F666D7D07FF6F7971FF00A9
:101C300013011201110110010B010A010901080130
:101C40000301020101010001EE37ED34EB31E73011
:101C5000DE38DD35DB32D741BE39BD36BB33B74266
:101C60007E437D447B4577460000000000900440A1
:101C700000A0044000B0044000C0044000D0044074
:101C800000F00F4040F00F4080F00F40C0F00F40D8
:041C900000F10F4010
:101C940004030303020301030003110210020D02F3
:101CA4000B020A02090208020702060205020402E4
:041CB400006CDC02E2
:0400000300000411E4
:00000001FF
