:1000000000300020110400005504000055040000D9
:1000100000000000000000000000000000000000E0
:100020000000000000000000000000005504000077
:10003000000000000000000055040000550400000E
:10004000550400005504000055040000550400004C
:10005000550400005504000055040000550400003C
:10006000550400005504000055040000350600004A
:1000700055040000BD050000F9050000550400000E
:10008000550400005504000055040000550400000C
:1000900055040000550400005504000055040000FC
:1000A00055040000550400005504000055040000EC
:1000B00055040000550400005504000055040000DC
:10040000FFFFFFFFFFFFFFFFFFFFFFFFFEFFFFFFFD
:1004100072B600F059FF62B609490A4A0A4B9B1AA4
:1004200003DD043BC858D050FBDC0849084A521A87
:1004300003DD00208850043AFCDA00F01FF90000C8
:100440009814000000F0FF1F04F0FF1F04F0FF1FCE
:1004500004F0FF1F0048004755040000002934D075
:100460000123002210B488422CD301242407A14286
:1004700004D2814202D209011B01F8E7E400A14243
:1004800004D2814202D249005B00F8E7884201D3DE
:10049000401A1A434C08A04202D3001B5C082243B6
:1004A0008C08A04202D3001B9C082243CC08A04227
:1004B00002D3001BDC082243002803D01B0901D013
:1004C0000909E3E7101C10BC7047002801D0002088
:1004D000C04307B4024802A14018029003BDC046C1
:1004E000D90000000029F0D003B5FFF7B9FF0EBC1A
:1004F0004243891A1847C046002941D010B4041C51
:100500004C40A44601230022002900D5494200287E
:1005100000D5404288422CD301242407A14204D2B2
:10052000814202D209011B01F8E7E400A14204D292
:10053000814202D249005B00F8E7884201D3401AA9
:100540001A434C08A04202D3001B5C0822438C08CB
:10055000A04202D3001B9C082243CC08A04202D335
:10056000001BDC082243002803D01B0901D0090925
:10057000E3E7101C6446002C00D5404210BC7047D5
:10058000002806D003DB0020C043400801E08020A3
:10059000000607B4024802A14018029003BDC046FD
:1005A000190000000029EBD003B5FFF7A7FF0EBC30
:1005B0004243891A1847C0467047C04690B583B079
:1005C00000AFBB1D01221A7072B6FC1DBB1D0120BD
:1005D000191C00F0DBFA031C2370BB1D1B78002BD9
:1005E00005D1FB1D1B780120191C00F04DFA62B6E5
:1005F000BD4603B090BDC04690B583B000AFBB1DF3
:1006000001221A7072B6FC1DBB1D0220191C00F0DD
:10061000BDFA031C2370BB1D1B78002B05D1FB1DED
:100620001B780220191C00F02FFA62B6BD4603B0F9
:1006300090BDC04690B583B000AF72B6FC1D0120DE
:1006400000F02CFD031C2370FB1D1B78302B10D0F9
:10065000FB1D1B780220191C00F016FAFB1D1A78EE
:10066000FB1D01321A70FB1D1B780120191C00F0C4
:10067000DDFC62B6BD4603B090BDC04680B586B015
:1006800002AF72B60A23FF33181C012100F0B0F844
:1006900096239B010120191C00F0E4F896239B018E
:1006A0000220191C00F0DEF8364B0120191C00F066
:1006B00035FA344B0220191C00F030FA324B00227C
:1006C0000092002001211A1C002300F0EBFA2E4BAF
:1006D00000220092012000211A1C002300F0E2FAFF
:1006E0000023FB600023BB60FB1D41221A70BB1D71
:1006F00000221A70012000F09FFA022000F09CFAFC
:10070000012000F0E9FC62B6FB680133FB60BB68C6
:100710000133BB60FA681D4B9A4206D90023FB6087
:100720000A23FF33181C00F079F8BA68174B9A4275
:1007300026D90023BB60FB1D1B78FA1D591C1170C4
:100740000020191C00F072FCBB1D1B78042B01D883
:100750000F4BDB780E4BDB78DBB2DBB25BB2002BEE
:1007600006DA0B4B5B79DBB20120191C00F08CF927
:10077000FB1D1B78592B03D9FB1D40221A70C3E7C0
:10078000C2E7C04650140000701700005FE3160077
:100790000060074080B582B000AF021CFB1D1A70DC
:1007A000064BFA1D1278111C1F220A400121081C59
:1007B0009040021C1A60BD4602B080BD00E100E01E
:1007C00080B582B000AF021CFB1D1A70FB1D1B78A8
:1007D0005BB2202B02DDFB1D20221A70FB1D1B7853
:1007E0005BB2181CFFF7D6FFBD4602B080BDC04605
:1007F00080B582B000AF0A1CBB1D011C19807B1D97
:100800001A70BB1D1A887B1D1B78101C01211A1C35
:1008100000F08EFCBD4602B080BDC04680B582B0FF
:1008200000AF021CBB1D1A80BB1D1B88181C00F0EA
:1008300021FDBD4602B080BD80B582B000AF021C74
:10084000FB1D1A70064BFA1D1278111C1F220A405C
:100850000121081C9040021C1A60BD4602B080BDF8
:1008600000E100E080B586B000AF021C3960FB1DDE
:100870001A707D4B7B61FB1D1B78002B76D17B4A68
:100880007A497B4BCB588021C9041943784BD1500E
:10089000764A7649764BCB58802149021943744BEE
:1008A000D150724A7149734BCB588021C90019430A
:1008B000704BD1507B69DB78DBB20C229343DAB208
:1008C0007B69DA703B681B016B48191CFFF7C6FD9A
:1008D000031C1A1C3B1C12331A807B691B78DAB28A
:1008E0003B1C11331F218A431A703B1C12331A8898
:1008F000F8235B0113401B12DAB21F231340DAB254
:100900003B1C11331B781343DAB27B691A703B1C12
:1009100012331B88DAB27B695A70534B0F229A72DA
:10092000514B00229A70504B00229A714E4B00227C
:100930001A724D4B00225A724B4B4B4A1279D2B26B
:100940001F210A43D2B21A71474B474A5279D2B299
:10095000402149420A43D2B25A717B69DB78DBB24B
:100960000C221343DAB27B69DA707AE0FB1D1B7844
:10097000012B02D0022B13D025E0404BC022920065
:100980001A603E4BC02292005A60C046374A37492F
:10099000384BCB58802109011943364BD15012E016
:1009A000364B8022D2009A65344B8022D200DA6521
:1009B000C0462E4A2D492F4BCB588021490119435F
:1009C0002C4BD150C046FB1D1B785A1E2C4B92005D
:1009D000D358FB60FB68DB78DBB20C229343DAB2BE
:1009E000FB68DA70FB6800229A703B681B0125489F
:1009F000191CFFF733FD031C1A1C3B1C12331A8011
:100A0000FB681B78DAB23B1C11331F218A431A7032
:100A10003B1C12331A88F8235B0113401B12DAB215
:100A20001F231340DAB23B1C11331B781343DAB295
:100A3000FB681A703B1C12331B88DAB2FB685A70D1
:100A4000FB6800229A70FB6800229A71FB68002202
:100A50005A71FB68DB78DBB20C221343DAB2FB6815
:100A6000DA70BD4606B080BD00A0064000700440AC
:100A70000410000034100000006CDC0200D00440C0
:100A80006814000000366E0180B586B000AF0A1C05
:100A9000FB1D011C1970BB1D1A701D4B3B61FB1D1A
:100AA0001B785A1E1B4B9200D358FB6000237B61BE
:100AB0001EE0FB1D1B78002B0BD13B691B79DBB2C1
:100AC000DBB25BB2002B10DA3B69BA1D1278DA7127
:100AD00012E0FB681B79DBB2DBB25BB2002B04DAFD
:100AE000FB68BA1D1278DA7106E07B6901337B611D
:100AF0007A69094B9A42DCD97A69074B9A4201D943
:100B0000012300E00023181CBD4606B080BDC0468E
:100B100000A0064068140000BAFB000080B584B055
:100B200000AF021C3960FB1D1A703B1C0E33002203
:100B30001A803B68BB603B1C0E3300221A8017E012
:100B40003B1C0E331B88BA68D3181B78FA1D127829
:100B5000101C191CFFF798FF031C002B01D0012368
:100B60000FE03B1C0E331A883B1C0E3301321A80F7
:100B70003B1C0E331B88BA68D3181B78002BDFD1BF
:100B80000023181CBD4604B080BDC04680B586B0A9
:100B900000AF021C3960FB1D1A70244BFB60FB1D6B
:100BA0001B785A1E224B9200D358BB6000237B61F6
:100BB00026E0FB1D1B78002B0FD1FB681B79DBB2F5
:100BC0001A1C2023134018D03B1C1333FA68D27927
:100BD0001A703B6800221A7016E0BB681B79DBB202
:100BE0001A1C2023134008D03B1C1333BA68D27957
:100BF0001A703B6800221A7006E07B6901337B6142
:100C00007A690C4B9A42D4D97A690A4B9A4206D92E
:100C10003B1C1333FF221A703B6801221A703B1CE5
:100C200013331B78181CBD4606B080BD00A00640DB
:100C300068140000BAFB000080B584B000AF021C4D
:100C4000FB1D1A70144BFB60FB1D1B785A1E134BC7
:100C50009200D358BB60FB1D1B78002B08D1FB68AA
:100C6000DB78DBB220221343DAB2FB68DA7007E0EC
:100C7000BB68DB78DBB220221343DAB2BB68DA70E0
:100C8000FB1D1B78064AD35C5BB2181CFFF7D4FD32
:100C9000BD4604B080BDC04600A0064068140000F8
:100CA00000F0FF1F90B585B000AF041C081C111C9C
:100CB0001A1CFB1D1C70BB1D18703B1D1980FB1CF2
:100CC0001A70FB1D1B78012B02D9FB1D00221A7024
:100CD000FB1D1B78002B00D0D0E0CD4ACC49CD4B7A
:100CE000CB588021C9031943CA4BD150CA4B80222B
:100CF00092009A63C84B80229200DA63C64B80222E
:100D000092001A64C44B802292005A64C34B0022A2
:100D10001A70C24BC14A1278D2B240210A43D2B2F1
:100D20001A70BB1D1B78012B08D1BC4BBB4A127833
:100D3000D2B210210A43D2B21A7008E0B74BB74AB8
:100D40001278D2B2802149420A43D2B21A70FB1CF7
:100D50001B78002B08D1B14BB04A1278D2B20821CF
:100D60008A43D2B21A7007E0AC4BAC4A1278D2B2C6
:100D700008210A43D2B21A703B1C20331B78002B87
:100D800008D1A64BA54A1278D2B204218A43D2B226
:100D90001A7007E0A14BA14A1278D2B204210A438B
:100DA000D2B21A709D4B9D4A1278D2B202210A43E8
:100DB000D2B21A70994B00225A70BB1D1B78012BBE
:100DC00007D1964B954A5278D2B210210A43D2B23B
:100DD0005A70924B914A1278D2B2802149420A430A
:100DE000D2B21A708D4B00229A703B1C0D33002238
:100DF0001A703B1C0E3300221A703B1D1B8888485A
:100E0000191CFFF779FB031C1A1C3B1C0F331A70CB
:100E10000DE03B1C0F333A1C0F32127852081A7047
:100E20003B1C0E331A783B1C0E3301321A703B1CEC
:100E30000F331A7801231340DBB2002BE9D03B1C9F
:100E40000F333A1C0F321278013A1A703B1C0D33E3
:100E50003A1C0F3212781A70704B3A1C0D3212780D
:100E60001201D2B29A706D4B6C4A9278D1B23A1C90
:100E70000E3212780A43D2B29A70C6E0644A6449CC
:100E8000644BCB58802109041943624BD150654B08
:100E9000802292009A62634B80229200DA62614B58
:100EA000802292001A645F4B802292005A645E4B4B
:100EB00000221A705C4B5C4A1278D2B240210A437D
:100EC000D2B21A70BB1D1B78012B08D1564B564A63
:100ED0001278D2B210210A43D2B21A7008E0524BF3
:100EE000514A1278D2B2802149420A43D2B21A70D2
:100EF000FB1C1B78002B08D14B4B4B4A1278D2B20B
:100F000008218A43D2B21A7007E0474B464A12784A
:100F1000D2B208210A43D2B21A703B1C20331B788C
:100F2000002B08D1404B404A1278D2B204218A43A8
:100F3000D2B21A7007E03C4B3B4A1278D2B204217D
:100F40000A43D2B21A70384B374A1278D2B2022111
:100F50000A43D2B21A70344B00225A70BB1D1B7860
:100F6000012B07D1304B304A5278D2B210210A43BC
:100F7000D2B25A702C4B00229A703B1C0D330022C7
:100F80001A703B1C0E3300221A703B1D1B8824482C
:100F9000191CFFF7B1FA031C1A1C3B1C0F331A7003
:100FA0000DE03B1C0F333A1C0F32127852081A70B6
:100FB0003B1C0E331A783B1C0E3301321A703B1C5B
:100FC0000F331A7801231340DBB2002BE9D03B1C0E
:100FD0000F333A1C0F321278013A1A703B1C0D3352
:100FE0003A1C0F3212781A700F4B3A1C0D321278DD
:100FF0001201D2B29A700C4B0B4A9278D1B23A1CC1
:101000000E3212780A43D2B29A70BD4605B090BD36
:10101000007004403410000000900440006007405D
:10102000E02E000000A004400070074080B584B0AE
:1010300000AF0A1CFB1D011C1970BB1D1A70FB1DA3
:101040001B78144A9B181B03BB60C046BB68DB7847
:10105000DBB21A1C20231340F8D0BB68BA1D1278EB
:101060005A710023FB600BE0BB68DB78DBB21A1C13
:101070002023134001D0012307E0FB680133FB600C
:10108000FA68054B9A42EFD90023181CBD4604B0FC
:1010900080BDC04676000400EFFF000080B584B03C
:1010A00000AF021CFB1D1A70FB1D1B78094A9B1820
:1010B0001B03FB60C046FB68DB78DBB2DBB25BB2D4
:1010C000002BF8DAFB685B79DBB2181CBD4604B074
:1010D00080BDC0467600040080B582B000AF021C1F
:1010E000FB1D1A70FB1D1B780A33DBB2DBB25BB24F
:1010F000181CFFF765FBBD4602B080BD80B584B00B
:1011000000AFB9607A603B1C0E33021C1A803B1C96
:101110000E331B881B0A9BB2DAB2BB681A703B1CE9
:101120000E331B88DAB27B681A70BD4604B080BDEE
:1011300080B586B000AFBB1D18807B1D19703B1DAC
:101140001A70BB1D19883A1C0F323B1C0E33081C49
:10115000111C1A1CFFF7D2FF3B1C0F331B781A1C03
:10116000224B9200D3587B613B1C0F331B781A1C17
:101170001F4B9200D3583B613B1C0E331B781A1C4B
:101180003B1C0E331B78191C7B698900CB588021CE
:10119000490019437B699200D1507B1D1B78012BBC
:1011A00014D13B695A693B1C0E331B780121081C82
:1011B0009840031C1A433B695A61BB1D1A883B1DAA
:1011C0001B78101C191C00F015F80CE03B695B69DA
:1011D0003A1C0E3212780121081C9040021CD243A6
:1011E0001A403B695A61BD4606B080BD70140000CC
:1011F0008414000080B584B000AF0A1CBB1D011C24
:1012000019807B1D1A70BB1D19883A1C0B323B1CC0
:101210000A33081C111C1A1CFFF770FF3B1C0B3310
:101220001B781A1C124B9200D358FB607B1D1B7855
:10123000012B0CD1FB681A683B1C0A331B78012177
:10124000081C9840031C1A43FB681A600CE0FB68FA
:101250001B683A1C0A3212780121081C9040021CBB
:10126000D2431A40FB681A60BD4604B080BDC04638
:101270008414000080B584B000AF021CBB1D1A802E
:10128000BB1D19883A1C0B323B1C0A33081C111C6D
:101290001A1CFFF733FF3B1C0B331B781A1C094B3E
:1012A0009200D358FB60FB68DA683B1C0A331B785A
:1012B0000121081C9840031C1A43FB68DA60BD46F4
:1012C00004B080BD8414000080B500AF534A882369
:1012D0005B010021D150524B1B78DBB21A1C012359
:1012E00013400ED04F4B9B78DBB21A1C08231340DF
:1012F00007D04C4B4B4A9278D2B208210A43D2B263
:101300009A70494B2A221A70444A484B4849D15096
:10131000424B424A1268C02109030A431A603F4AFD
:101320003E49444BCB58802149021943414BD1508F
:101330003A4A3A493F4BC9583F4B0B408021490438
:1013400019433C4BD150354A34493C4BCB58802152
:1013500089001943394BD150394B394A916C394A7C
:101360000A409A64364B364AD16C364A0A40DA64EF
:10137000354B00221A72344B24225A70334B802290
:101380001A70314B9A221A70C0462F4B9B79DBB2F0
:101390001A1C02231340F8D0C0462B4B9B79DBB2BA
:1013A0001A1C10231340F8D1274B274AD278D1B208
:1013B0001F220A40D2B2DA70234B01221A71224B4B
:1013C00000225A71204B204A5279D2B240210A435E
:1013D000D2B25A71C0461C4B9B79DBB21A1C402317
:1013E0001340F8D0184B184A1278D1B23F220A4065
:1013F000D2B21A70C046144B9B79DBB21A1C0C2374
:1014000013400C2BF7D1054A04490C4BCB58F8215B
:1014100089011943094BD150BD4680BD007004407D
:1014200000F0074000D0074000E0074044100000F3
:101430000000011004100000FFFFFFFC3810000046
:1014400000900440FFF8FFFE0040064000500640B8
:101450005468697320697320612053504920546592
:101460007374210D0A00000000B0064000C0064061
:101470000090044000A0044000B0044000C00440BC
:1014800000D0044000F00F4040F00F4080F00F40CB
:08149000C0F00F4000F10F4015
:041498000C0D0E0029
:0400000300000411E4
:00000001FF
