:1000000000300020BD0D0000010E0000010E0000B8
:1000100000000000000000000000000000000000E0
:10002000000000000000000000000000010E0000C1
:100030000000000000000000010E0000010E0000A2
:10004000010E0000010E0000010E0000010E000074
:10005000010E0000010E0000010E0000010E000064
:10006000010E0000010E0000010E0000010E000054
:10007000010E000001080000010E0000010E00004A
:10008000010E0000010E0000010E0000010E000034
:10009000010E0000010E0000010E0000010E000024
:1000A000010E0000010E0000010E0000010E000014
:1000B000010E0000010E0000010E0000010E000004
:10040000FFFFFFFFFFFFFFFFFFFFFFFFFEFFFFFFFD
:10080000F0B572B6012000F025F9012000F0E1F802
:1008100062B6F0BD72B61848002300F039F81748E8
:1008200017490022002300F041F80120154900F08B
:10083000FCF801200A2100F0CCF801200A2100F088
:10084000C8F8012010491F2200F0DCF801200A211D
:1008500000F0BFF801200A2100F0BBF8012000F0F1
:1008600025F962B6094C2468013C012CFCD10248F0
:1008700000F018F8F6E7C04609010000C05D01006D
:100880008025000070100000931000006C10000024
:100890000FB5012200F056F90FBD0FB5012200F08F
:1008A00084F90FBD0FB500F0A8F90FBDF0B5021C1B
:1008B000000C8F4B1A40002844D18E4C8E4D2E6870
:1008C00034438E4E34432C6080008D4F3F588D4E04
:1008D0003E608D4F3F583E608C4F3E688C4D2E439E
:1008E0003E608C4F3F58FE788B4D2E403E608B4CC7
:1008F0008B4A62430901101C00F086FA81B23E78EF
:10090000B6B21F25AE43874B0B401B12DAB23243FF
:100910003A7079700026BE70BE710F26BE72002636
:100920003E727E723D79EDB21F262E433E717D7977
:10093000EDB2C0262E437E71FD78EDB20C262E431B
:10094000FE7045E0012802D002280ED040E0800071
:100950006D4F3F58744E3E60694F3F583E606B4F3D
:100960003E68724D2E433E600CE08000664F3F585B
:10097000674E3E60624F3F583E60644F3E686C4D2C
:100980002E433E60634F3F58FC78E4B20C25AC43E5
:10099000FC700024BC70614C66486043090100F0A3
:1009A00033FA81B23E78B6B21F25AE435D4B0340A9
:1009B0001B12DAB232433A7078700026BE70BE71F4
:1009C0007E711F263E71FD78EDB20C262E43FE701F
:1009D000F0BDF0B500258000574CA5420BD2013583
:1009E0004C4F3F580426BC5DA4B280263440002CF6
:1009F000F2D00726B955504CA54201D3012000E0A2
:100A00000020F0BDF0B5051C0F1C141C0026281C8E
:100A1000B95DFFF7DEFF002803D10136A642F6D309
:100A200001E0012000E00020F0BDF0B5041C0F1C27
:100A30000026201CB95D0025A94204D0FFF7C9FF9C
:100A400001360028F5D00025A94201D0012000E0A0
:100A50000020F0BDF0B580000025374EB5420BD226
:100A600001352C4F3F580426BC59A4B220263440EF
:100A7000002CF2D00726B95D2F4EB54201D30120DC
:100A800000E00020F0BDF0B5051C0F1C0026281C5E
:100A9000FFF7E0FF002803D1B9550136A642F6D38F
:100AA000A64201D9012000E00020F0BDF0B5800091
:100AB000184F3F580326BC5DA4B220252C43BC55DB
:100AC00080081E4F385C80B200F0FEFAF0BDF0B531
:100AD0008000104F3F580326BC5DA4B2184D2C4037
:100AE000BC558008154F385C80B200F0FEFAF0BDAE
:100AF000FFFF00000000000404800440000001002B
:100B00002011000000010000141100003480044096
:100B10000004000008110000F3FFFFFFE8030000DD
:100B200080BB0000001F0000000300000008000060
:100B300000100000C05D0000BBFB00002C11000095
:100B4000DFFFFFFFFFB500F00FF9071C8B4C674379
:100B50008B4C3F190C1C04256C433F19894C3D6894
:100B60002540894C25433D60884C071C40267E4328
:100B7000A41901268E40012B04D125683543256038
:100B800000F004F8F643256835402560143401264A
:100B90008E40012A04D125683543256000F004F811
:100BA000F643256835402560FFBDFFB500F0DCF851
:100BB000051C40266E43012B06D1754DAD1901264B
:100BC0008E402E6000F005F8724DAD1901268E4062
:100BD0002E60FFBDFFB500F0C7F8051C40266E4330
:100BE0006D4DAD1901268E402C683440002C02D189
:100BF000002200F001F80122FFBDFFB500F0B4F8BB
:100C0000051C40266E43654DAD19604CA41927683C
:100C100001268E402E602768FFBDFFB500F0A4F8C6
:100C2000071C564C6743564C3F190C1C04256C435B
:100C30003F19544C3D682540534C25433D60002BE3
:100C400005D0012B0AD0022B0FD000F010F802249F
:100C50002543534C25403D6000F009F8022425430C
:100C6000012425433D6000F002F84E4C2540FFBDB5
:100C7000FFB500F079F8071C404C6743404C3F1922
:100C80000C1C04256C433F19474C3D6825401E1C35
:100C9000B60135433D60FFBDFFB500F065F8071CA8
:100CA000364C6743364C3F190C1C04256C433F19E6
:100CB0003E4C3D6825433E4C25401C1C24042543E6
:100CC0003D60002805D0022816D0032814D000F07B
:100CD00024F8384E384C371C3F193D680124A407CE
:100CE00025433D600024371C3F193D680124A407BB
:100CF00025433D6000F011F82E4E2F4C371C3F1954
:100D00003D680124E40725433D600024371C3F195A
:100D10003D680124E40725433D60FFBDFFB500F0B9
:100D200023F8071C154C6743154C3F190C1C042570
:100D30006C433F191E4C3D6825401E4E80243619D9
:100D40003568002805D0022809D0032807D000F014
:100D50000AF80124A40725433560FFF7DEFF0124CC
:100D6000E40725433560FFBD00B5041C051C240ABB
:100D7000201CFF263540291C00BD0000001000008B
:100D800000900440FFF8FFFF0001000000F00F405A
:100D900004F00F4008F00F4010F00F400CF00F402F
:100DA000FEFFFFFFFDFFFFFFBFFFFFFF0000000191
:100DB000FFFFF0FF00E100E08001000072B600F0EC
:100DC00073F862B609490A4A0A4B9B1A03DD043BD1
:100DD000C858D050FBDC0849084A521A03DD0020ED
:100DE0008850043AFCDAFFF715FD000030110000CE
:100DF00000F0FF1F00F0FF1F00F0FF1F00F0FF1FBB
:100E000000480047010E0000002934D001230022D1
:100E100010B488422CD301242407A14204D2814279
:100E200002D209011B01F8E7E400A14204D2814289
:100E300002D249005B00F8E7884201D3401A1A4306
:100E40004C08A04202D3001B5C0822438C08A0423D
:100E500002D3001B9C082243CC08A04202D3001BF3
:100E6000DC082243002803D01B0901D00909E3E76D
:100E7000101C10BC7047002801D00020C04307B4EC
:100E8000024802A14018029003BDC04619000000AC
:100E90000029F0D003B5FFF7B9FF0EBC4243891A11
:100EA0001847C0467047C04680B582B000AF0023E7
:100EB0007B60FB1C00221A705B4A88235B010021C7
:100EC000D1505A4B14225A70584B98221A70002352
:100ED0007B600AE0554B9B79DBB21A1C022313405E
:100EE00000D006E07B6801337B607A68504B9A4201
:100EF000F0D900237B600AE04C4B9B79DBB21A1CD3
:100F00001023134000D106E07B6801337B607A68D0
:100F1000484B9A42F0D900237B600CE0434B9B790D
:100F2000DBB21A1C0C2313409B08022B00D106E0F5
:100F30007B6801337B607A683E4B9A42EED93B4B2B
:100F40003A4A5279D2B220210A43D2B25A71374B6F
:100F5000364A1279D2B201210A43D2B21A71334B06
:100F60005B79DAB2FB1C1A70FB1CFA1C12781F2189
:100F70008A431A70FB1CFA1C127840210A431A702B
:100F80002A4BFA1C12785A7100237B600AE0274B27
:100F90009B79DBB21A1C2023134000D006E07B684B
:100FA00001337B607A68234B9A42F0D900237B603F
:100FB0000AE01E4B9B79DBB21A1C4023134000D081
:100FC00006E07B6801337B607A681B4B9A42F0D95C
:100FD000154A1A4B1A49D150144B144A1278D1B2FF
:100FE0003F220A40D2B21A7000237B600CE00F4B04
:100FF0009B79DBB21A1C0C2313409B08032B00D1F6
:1010000006E07B6801337B607A680A4B9A42EED92E
:10101000054A05490B4BCB58F82189011943094B67
:10102000D150BD4602B080BD007004400040064073
:101030001F4E0000CF0700009F0F0000441000006B
:10104000000001103810000000A0064000B006406B
:1010500000C006403890044000D0044088D00440CE
:101060003C90044004D004405CD0044060E316008F
:10107000CFD6D4DAB2E2CAD4756172745F73656E8A
:10108000645F737472BAAFCAFDB5C4B9A6C4DC2E6E
:101090002E2E00CFD6D4DAB2E2CAD4756172745F54
:1010A00073656E644EBAAFCAFDB5C4B9A6C4DC2E72
:1010B0002E2E000000E100E080E100E000E200E010
:1010C00080E200E000E400E0F0B5202800D300203A
:1010D0000C4C24682568012787403D432560094C56
:1010E000E46825683D432560F0BDF0B5202800D3B5
:1010F0000020044C64682568012787403D43256033
:10110000F0BD0000B410000000A0064000B0064092
:1011100000C006403890044000D0044088D004400D
:101120003C90044004D004405CD004400C0D0E0000
:0400000300000DBD2F
:00000001FF
