:1000000000300020010800004508000045080000FD
:1000100000000000000000000000000000000000E0
:100020000000000000000000000000004508000083
:100030000000000000000000450800004508000026
:10004000450800004508000045080000450800007C
:10005000450800004508000045080000450800006C
:10006000450800004508000045080000450800005C
:100070004D080000550800005D080000450800001C
:10008000450800004508000045080000450800003C
:10009000450800004508000045080000450800002C
:1000A000450800004508000045080000450800001C
:1000B000450800004508000045080000450800000C
:10040000FFFFFFFFFFFFFFFFFFFFFFFFFEFFFFFFFD
:1008000072B600F0A3FA62B609490A4A0A4B9B1A6B
:1008100003DD043BC858D050FBDC0849084A521A93
:1008200003DD00208850043AFCDA00F01BF80000D9
:10083000140F000000F0FF1F00F0FF1F00F0FF1F6B
:1008400000F0FF1F004800474508000080B500AFDA
:10085000BD4680BD80B500AFBD4680BD80B500AF50
:10086000BD4680BD90B583B000AF72B600237B60FB
:10087000FB1C00221A701423FF33181C012100F006
:10088000EBF80A23FF33181C012100F0E5F8892357
:100890005B00181C012100F0DFF880235B00181CAE
:1008A00000F012F981235B00181C00F00DF9022002
:1008B00000F00AF9052000F007F962B6BC1C80239D
:1008C0005B00181C00F010F9031C23707C1C8123B2
:1008D0005B00181C00F008F9031C2370BB1C1B787C
:1008E000012B58D17B1C1B78002B54D17B68013322
:1008F0007B607A68574B9A424CD900237B60BC1CC2
:1009000080235B00181C00F0EFF8031C23707C1C94
:1009100081235B00181C00F0E7F8031C2370BB1C4C
:100920001B78002B05D17B1C1B78012B01D1C04605
:100930008EE0FB1C1B78002B02D0012B15D0D5E7D5
:100940001423FF33181C00F0B1F80A23FF33181CDE
:10095000012100F097F889235B00181C012100F0A9
:1009600091F8FB1C01221A7014E00A23FF33181CB3
:1009700000F09CF81423FF33181C012100F082F8CA
:1009800089235B00181C012100F07CF8FB1C00226D
:100990001A70C046AAE7BB1C1B78002B58D17B1CE1
:1009A0001B78012B54D17B6801337B607A68294B1B
:1009B0009A424CD900237B60BC1C80235B00181C2E
:1009C00000F092F8031C23707C1C81235B00181C30
:1009D00000F08AF8031C2370BB1C1B78012B05D187
:1009E0007B1C1B78002B01D1C04631E0FB1C1B781F
:1009F000002B02D0012B15D0D5E789235B00181CF2
:100A000000F054F80A23FF33181C012100F03AF8D3
:100A10001423FF33181C012100F034F8FB1C0122C1
:100A20001A7014E00A23FF33181C00F03FF8142357
:100A3000FF33181C012100F025F889235B00181CE6
:100A4000012100F01FF8FB1C00221A70C046AAE723
:100A500034E7C0465FE3160080B582B000AF0A1CE1
:100A6000BB1D011C19807B1D1A70BB1D1A887B1DC4
:100A70001B78101C01211A1C00F046F8BD4602B07C
:100A800080BDC04680B582B000AF0A1CBB1D011CF2
:100A900019807B1D1A70BB1D1A887B1D1B78101CCA
:100AA000191C00F0A5F8BD4602B080BD80B582B02B
:100AB00000AF021CBB1D1A80BB1D1B88181C00F058
:100AC00001F9BD4602B080BD80B582B000AF021C06
:100AD000BB1D1A80BB1D1B88181C0021012200F0C1
:100AE00013F8BD4602B080BD80B582B000AF021CD5
:100AF000BB1D1A80BB1D1B88181C00F0B9F8031C15
:100B0000181CBD4602B080BD80B586B000AFBB1DCD
:100B100018807B1D19703B1D1A70BB1D19883A1C6B
:100B20000F323B1C0E33081C111C1A1C00F0F4F889
:100B30003B1C0F331B781A1C2A4B9200D3587B6145
:100B40003B1C0F331B781A1C274B9200D3583B6178
:100B50003B1C0E331B781A1C3B1C0E331B78191CD4
:100B60007B698900C958214B19407B699200D1509B
:100B70003B1C0E331B781A1C3B1C0E331B78191CB4
:100B80007B698900CB588021490019437B69920019
:100B9000D1507B1D1B78012B14D13B695A693B1C3A
:100BA0000E331B780121081C9840031C1A433B6933
:100BB0005A61BB1D1A883B1D1B78101C191C00F0C4
:100BC00017F80CE03B695B693A1C0E321278012180
:100BD000081C9040021CD2431A403B695A61BD4632
:100BE00006B080BDEC0E0000000F0000FFF8FFFF14
:100BF00080B584B000AF0A1CBB1D011C19807B1D91
:100C00001A70BB1D19883A1C0B323B1C0A33081C96
:100C1000111C1A1C00F080F83B1C0B331B781A1CAB
:100C2000124B9200D358FB607B1D1B78012B0CD11B
:100C3000FB681A683B1C0A331B780121081C98408A
:100C4000031C1A43FB681A600CE0FB681B683A1C23
:100C50000A3212780121081C9040021CD2431A402B
:100C6000FB681A60BD4604B080BDC046000F00009E
:100C700080B584B000AF021CBB1D1A80BB1D198853
:100C80003A1C0B323B1C0A33081C111C1A1C00F0C6
:100C900043F83B1C0B331B781A1C094B9200D358AA
:100CA000FB60FB681A693B1C0A331B78DA4001239E
:100CB00013405A1E9341DBB2181CBD4604B080BDE0
:100CC000000F000080B584B000AF021CBB1D1A806D
:100CD000BB1D19883A1C0B323B1C0A33081C111C23
:100CE0001A1C00F019F83B1C0B331B781A1C094B1B
:100CF0009200D358FB60FB68DA683B1C0A331B7810
:100D00000121081C9840031C1A43FB68DA60BD46A9
:100D100004B080BD000F000080B584B000AFB960A2
:100D20007A603B1C0E33021C1A803B1C0E331B885E
:100D30001B0A9BB2DAB2BB681A703B1C0E331B88CD
:100D4000DAB27B681A70BD4604B080BD80B582B04F
:100D500000AF00237B60FB1C00221A705B4A8823D3
:100D60005B010021D1505A4B14225A70584B9822E3
:100D70001A7000237B600AE0554B9B79DBB21A1C8A
:100D80000223134000D006E07B6801337B607A6861
:100D9000504B9A42F0D900237B600AE04C4B9B7980
:100DA000DBB21A1C1023134000D106E07B6801332C
:100DB0007B607A68484B9A42F0D900237B600CE054
:100DC000434B9B79DBB21A1C0C2313409B08022B6C
:100DD00000D106E07B6801337B607A683E4B9A4223
:100DE000EED93B4B3A4A5279D2B220210A43D2B2D1
:100DF0005A71374B364A1279D2B201210A43D2B224
:100E00001A71334B5B79DAB2FB1C1A70FB1CFA1CAB
:100E100012781F218A431A70FB1CFA1C1278402199
:100E20000A431A702A4BFA1C12785A7100237B600D
:100E30000AE0274B9B79DBB21A1C2023134000D019
:100E400006E07B6801337B607A68234B9A42F0D9D5
:100E500000237B600AE01E4B9B79DBB21A1C402307
:100E6000134000D006E07B6801337B607A681B4B3F
:100E70009A42F0D9154A1A4B1A49D150144B144AC8
:100E80001278D1B23F220A40D2B21A7000237B609E
:100E90000CE00F4B9B79DBB21A1C0C2313409B0810
:100EA000032B00D106E07B6801337B607A680A4B34
:100EB0009A42EED9054A05490B4BCB58F8218901D6
:100EC0001943094BD150BD4602B080BD00700440AB
:100ED000004006401F4E0000CF0700009F0F00009B
:100EE0004410000000000110381000000090044081
:100EF00000A0044000B0044000C0044000D0044002
:100F000000F00F4040F00F4080F00F40C0F00F4065
:040F100000F10F409D
:0400000300000801F0
:00000001FF
