:1000000000300020110400005504000055040000D9
:1000100000000000000000000000000000000000E0
:100020000000000000000000000000005504000077
:10003000000000000000000055040000550400000E
:10004000550400005504000055040000550400004C
:10005000550400005504000055040000550400003C
:10006000550400005504000055040000550400002C
:100070005D040000650400006D04000055040000EC
:10008000550400005504000055040000550400000C
:1000900055040000550400005504000055040000FC
:1000A00055040000550400005504000055040000EC
:1000B00055040000550400005504000055040000DC
:10040000FFFFFFFFFFFFFFFFFFFFFFFFFEFFFFFFFD
:1004100072B600F0BFF862B609490A4A0A4B9B1A45
:1004200003DD043BC858D050FBDC0849084A521A87
:1004300003DD00208850043AFCDA00F01BF80000CD
:100440001C07000000F0FF1F00F0FF1F00F0FF1F5F
:1004500000F0FF1F004800475504000080B500AFC2
:10046000BD4680BD80B500AFBD4680BD80B500AF44
:10047000BD4680BD80B58EB000AF00237B6372B6F1
:100480003E4B3B633B6B4833FB623D4BBB62BB6AFD
:1004900004337B62BB6A08333B627B6A1A68394B60
:1004A0001A407B6A1A607B6A1B68802252001A43DA
:1004B0007B6A1A603B6A1A68324B1A403B6A1A60C0
:1004C0003B6A1B68802252001A433B6A1A602E4B1B
:1004D000FB61FB691033BB61FB6914337B617B6992
:1004E0001B680222191C91430A1C7B691A60274B66
:1004F0003B613B691433FB603B69BB603B690C3378
:100500007B60FB6A1A681F4B1A40FB6A1A60FB6A21
:100510001B68802252001A43FB6A1A60BB681B6882
:100520008022D2021A43BB681A60FB681B688022D3
:10053000D2021A43FB681A60BB681A68144B1A404F
:10054000BB681A60BB681B688022D2021A43BB6872
:100550001A60BB681A680E4B1A40BB681A60BB6809
:100560001B688022D2021A43BB681A6000237B6397
:1005700062B60023181CBD460EB080BD00A004402A
:1005800000900440FFF8FFFF00F00F4040F00F40E4
:10059000FFFFFBFF80B500AF534A88235B010021BA
:1005A000D150524B1B78DBB21A1C012313400ED0E2
:1005B0004F4B9B78DBB21A1C0823134007D04C4BDF
:1005C0004B4A9278D2B208210A43D2B29A70494B70
:1005D0002A221A70444A484B4849D150424B424A59
:1005E0001268C02109030A431A603F4A3E49444B3E
:1005F000CB58802149021943414BD1503A4A3A49DC
:100600003F4BC9583F4B0B408021490419433C4B99
:10061000D150354A34493C4BCB588021890019438D
:10062000394BD150394B394A916C394A0A409A6456
:10063000364B364AD16C364A0A40DA64354B0022D2
:100640001A72344B24225A70334B80221A70314B69
:100650009A221A70C0462F4B9B79DBB21A1C0223D8
:100660001340F8D0C0462B4B9B79DBB21A1C1023E9
:100670001340F8D1274B274AD278D1B21F220A4023
:10068000D2B2DA70234B01221A71224B00225A7126
:10069000204B204A5279D2B240210A43D2B25A7139
:1006A000C0461C4B9B79DBB21A1C40231340F8D088
:1006B000184B184A1278D1B23F220A40D2B21A70AF
:1006C000C046144B9B79DBB21A1C0C2313400C2B35
:1006D000F7D1054A04490C4BCB58F821890119433D
:1006E000094BD150BD4680BD0070044000F007406A
:1006F00000D0074000E00740441000000000011057
:1007000004100000FFFFFFFC3810000000900440C0
:0C071000FFF8FFFE0040064000500640CD
:0400000300000411E4
:00000001FF
