:1000000000300020010800004508000045080000FD
:1000100000000000000000000000000000000000E0
:100020000000000000000000000000004508000083
:100030000000000000000000450800004508000026
:10004000450800004508000045080000450800007C
:10005000450800004508000045080000450800006C
:10006000450800004508000045080000450800005C
:10007000450800004508000045080000450800004C
:10008000450800004508000045080000450800003C
:10009000450800004508000045080000450800002C
:1000A0004D08000045080000450800004508000014
:1000B000450800004508000045080000450800000C
:10040000FFFFFFFFFFFFFFFFFFFFFFFFFEFFFFFFFD
:1008000072B601F09BF862B609490A4A0A4B9B1A74
:1008100003DD043BC858D050FBDC0849084A521A93
:1008200003DD00208850043AFCDA00F095F800005F
:10083000541B000000F0FF1FD8F0FF1FD8F0FF1F6F
:10084000D0F7FF1F004800474508000090B583B06F
:1008500000AF72B6FC1D00F08BFC031C2370FB1D67
:100860001B78002B05D0FB1D1B78181C00F04AFCE0
:1008700052E0314A30499423CB5CDBB202210B4376
:10088000D9B29423D1542C4A9023D35CDBB21B09F8
:10089000DBB2002B02D100F011FB3DE0264A902391
:1008A000D35CDBB21A1CF8231340282B25D1234B31
:1008B0001B78012B0ED1224A224B101C191C00F070
:1008C00023FB204B1B78002B03D11C4B00221A70FA
:1008D00022E021E01C4B1B68503300225A801B4B46
:1008E0001B7840225340DAB2184B1A70164B1B6823
:1008F0005033164A12781A700EE00F4A9023D35CD8
:10090000DBB21A1CF8231340302B05D1104A114BCF
:10091000101C191C00F09AFB074A07498023CB5C86
:10092000DBB208210B43D9B28023D15462B6C04652
:10093000BD4603B090BDC04600200740ECF2FF1F4B
:10094000F0F2FF1F54F3FF1FBCF7FF1FD4F0FF1F8F
:1009500058F3FF1F55F3FF1F80B582B000AF72B68A
:100960000A23FF33181C002100F0CCF8304B181C70
:1009700000F0D2F900237B602E4B00221A702E4B20
:1009800000221A702D4B00221A7062B67B68013368
:100990007B607A682A4B9A4206D900237B600A233F
:1009A000FF33181C00F0C4F8264B1B78022B0DD126
:1009B000214B1B78002B09D0224B00221A70224BAE
:1009C00002221A701D4B01221A702FE01D4B1B785A
:1009D000012B2BD1174B1B78002B27D0182000F0B0
:1009E00079F8FB1C00221A700CE0FB1C1B78FA1C27
:1009F00012781449895C144AD154FB1C1A78FB1CE8
:100A000001321A700B4B1B78FA1C12789A42ECD305
:100A1000084B1A78084B1A700A4B00221A70054BC3
:100A200000221A70182000F03DF8AFE7AEE7C0468C
:100A300000F0FF1F55F3FF1F54F3FF1FECF2FF1FE1
:100A40005FE3160058F3FF1FF0F2FF1F80B582B07E
:100A500000AF021CFB1D1A70064BFA1D1278111C08
:100A60001F220A400121081C9040021C1A60BD464A
:100A700002B080BD00E100E080B582B000AF021C92
:100A8000FB1D1A70064AFB1D1B78191C1F230B4007
:100A9000012199408023D150BD4602B080BDC0469F
:100AA00000E100E080B582B000AF021CFB1D1A70AF
:100AB000FB1D1B785BB2202B02DDFB1D20221A7070
:100AC000FB1D1B785BB2181CFFF7C0FFBD4602B0D0
:100AD00080BDC04680B582B000AF021CFB1D1A70FD
:100AE000FB1D1B785BB2202B02DDFB1D20221A7040
:100AF000FB1D1B785BB2181CFFF7BEFFBD4602B0A2
:100B000080BDC04680B582B000AF0A1CBB1D011C71
:100B100019807B1D1A70BB1D1A887B1D1B78101C49
:100B200001211A1C00F02CF8BD4602B080BDC04661
:100B300080B582B000AF021CBB1D1A80BB1D1B8894
:100B4000181C00F0BFF8BD4602B080BD80B584B06F
:100B500000AFB9607A603B1C0E33021C1A803B1C4C
:100B60000E331B881B0A9BB2DAB2BB681A703B1C9F
:100B70000E331B88DAB27B681A70BD4604B080BDA4
:100B800080B586B000AFBB1D18807B1D19703B1D62
:100B90001A70BB1D19883A1C0F323B1C0E33081CFF
:100BA000111C1A1CFFF7D2FF3B1C0F331B781A1CB9
:100BB000224B9200D3587B613B1C0F331B781A1CCD
:100BC0001F4B9200D3583B613B1C0E331B781A1C01
:100BD0003B1C0E331B78191C7B698900CB58802184
:100BE000490019437B699200D1507B1D1B78012B72
:100BF00014D13B695A693B1C0E331B780121081C38
:100C00009840031C1A433B695A61BB1D1A883B1D5F
:100C10001B78101C191C00F015F80CE03B695B698F
:100C20003A1C0E3212780121081C9040021CD2435B
:100C30001A403B695A61BD4606B080BDDC1A00000F
:100C4000F01A000080B584B000AF0A1CBB1D011C67
:100C500019807B1D1A70BB1D19883A1C0B323B1C76
:100C60000A33081C111C1A1CFFF770FF3B1C0B33C6
:100C70001B781A1C124B9200D358FB607B1D1B780B
:100C8000012B0CD1FB681A683B1C0A331B7801212D
:100C9000081C9840031C1A43FB681A600CE0FB68B0
:100CA0001B683A1C0A3212780121081C9040021C71
:100CB000D2431A40FB681A60BD4604B080BDC046EE
:100CC000F01A000080B584B000AF021CBB1D1A8072
:100CD000BB1D19883A1C0B323B1C0A33081C111C23
:100CE0001A1CFFF733FF3B1C0B331B781A1C094BF4
:100CF0009200D358FB60FB68DA683B1C0A331B7810
:100D00000121081C9840031C1A43FB68DA60BD46A9
:100D100004B080BDF01A000080B582B000AF7860EA
:100D2000584B5B0A5B02802292009B181A1C564BA0
:100D30001A60564B564A1A60544B564A5A60534BE7
:100D4000554A9A60514B7A68DA60544B1A68544B92
:100D50001A60544B00221A70534B534A1268802178
:100D600009060A431A60504B4F4A11684F4A0A401D
:100D70001A604D4A4C494E4BCB58802149021943C9
:100D80004B4BD150484A4849494BCB588021C90266
:100D90001943474BD150444A4349464BCB588021D5
:100DA000C9021943434BD1501820FFF77BFE424A3A
:100DB000414986235B00CB5CDBB2802149420B4377
:100DC000D9B286235B00D154C0463B4A86235B00E0
:100DD000D35CDBB2DBB25BB2002BF6DB364A2A4BCC
:100DE0001B681B0AD9B29C23D154334A264B1B687B
:100DF0001B0CD9B2B023D1542F4A234B1B681B0EB6
:100E0000D9B2B423D1542C4A2B498023CB5CDBB21A
:100E100001210B43D9B28023D154274A2649842388
:100E2000CB5CDBB201210B43D9B28423D154224ADB
:100E300080235B004021D1541F4A1F4986235B0059
:100E4000CB5CDBB240210B43D9B286235B00D1548B
:100E5000194A194984235B00CB5CDBB210210B4398
:100E6000D9B284235B00D154134A13499423CB5C39
:100E7000DBB201210B43D9B29423D154BD4602B059
:100E800080BDC046BCF3FF1FBCF7FF1FC0F7FF1FAC
:100E900044F0FF1F48F0FF1F5CF0FF1F94F0FF1F9E
:100EA000E8F2FF1FE4F2FF1F00700440FFFFFFBFE6
:100EB00004100000341000000020074080B582B00C
:100EC00000AF0F4A9023D35CD9B2FB1D08220A4021
:100ED0001A70FB1D1B78002B02D000F0E5FC0CE023
:100EE000084B1B681B789B061B0FDBB20D2B02D136
:100EF00000F03EFC01E000F017FDBD4602B080BDF1
:100F000000200740BCF7FF1F80B586B000AF7860B7
:100F1000396000233B61494BFB603B681B78202B09
:100F200004D93B1C143320221A8004E03B681A7851
:100F30003B1C14331A803B1C163300221A8013E02A
:100F40003B1C16331B88FA68D31879683A698A18EB
:100F500012781A703B1C16331A883B1C1633013268
:100F60001A803B6901333B613A1C16323B1C143337
:100F700012881B889A42E3D3314B1B6850333A1CCA
:100F8000143212885A802F4B1B7840225340DAB219
:100F90002C4B1A702A4B1B6850332A4A12781A704D
:100FA0003B681A783B1C14331B88DBB2D31ADAB2C5
:100FB0003B681A703B1C163300221A8016E03B1C5B
:100FC00016331B887A68D3183A1C163211883A1CDB
:100FD000143212888A1879688A1812781A703B1CA1
:100FE00016331A883B1C163301321A803B681B7873
:100FF0003A1C163212889A42E1D33B1C1633002267
:101000001A8006E03B1C16331A883B1C163301324B
:101010001A803B1C16331A880B4B9A42F2D93B1CA0
:1010200014331B88002B04D03B1C14331B88DBB209
:1010300000E00023181CBD4606B080BD18F2FF1F5B
:10104000BCF7FF1FD4F0FF1F8713000080B584B0EA
:1010500000AF786039603B6800221A70264BBB6095
:10106000264B1B6860335B88002B26D03B1C0F335C
:1010700000221A7017E03B681B787A68D3183A1C74
:101080000F321278B9688A1812781A703B681B7888
:101090000133DAB23B681A703B1C0F331A783B1CE1
:1010A0000F3301321A703B1C0F331B789AB2134B6B
:1010B0001B6860335B889A42DDD3114B1B7840225A
:1010C0005340DAB20E4B1A700C4B1B6860330C4A5B
:1010D00012781A70094B1B68603320225A803B68D3
:1010E0001B78002B02D03B681B7800E00023181C03
:1010F000BD4604B080BDC04658F2FF1FBCF7FF1FBD
:10110000D5F0FF1F80B582B000AF021CFB1D1A7026
:10111000FB1D1B78052B24D89A00134BD3181B6892
:101120009F4600F083F81CE0104A80230421D1542C
:1011300017E000F057F814E00C4A0C498023CB5C10
:10114000DBB210210B43D9B28023D15409E0074A06
:1011500006498023CB5CDBB202210B43D9B280234A
:10116000D154BD4602B080BD141B000000200740D2
:1011700080B500AF1A4A8023D35CDBB21A1C082367
:10118000134001D0002328E0154A8023D35CDBB252
:101190001A1C0123134001D001231EE0104A8023B2
:1011A000D35CDBB21A1C0423134001D0022314E0E9
:1011B0000B4A8023D35CDBB2DBB25BB2002B01DADB
:1011C00003230AE0064A8023D35CDBB21A1C1023F7
:1011D000134001D0042300E00523181CBD4680BD48
:1011E0000020074080B500AF0F4AC023D35CDBB2BC
:1011F0001A1C0223134009D00B4A0B49C023CB5CB5
:10120000DBB202218B43D9B2C023D154064A06492E
:101210008023CB5CDBB2802149420B43D9B28023CF
:10122000D154BD4680BDC0460020074080B500AF08
:101230004A4BFF221A704A4B00221A70494AC423B3
:101240000021D154474AC8230021D154454ACC2318
:101250000021D154434AD0230021D154414AD42300
:101260000021D1543F4AD8230021D1543E4B1B6862
:1012700020225A803C4B1B683C4A5A603A4B1B6800
:10128000C8221A70384B1B68083320225A80364B0C
:101290001B680833364A5A60334B1B680833C82230
:1012A0001A70314B1B68103320225A802E4B1B685A
:1012B0001033304A5A602C4B1B68103388221A7046
:1012C000294B1B68183320225A80274B1B68183380
:1012D000294A5A60244B1B68183388221A70214A05
:1012E000C0230D21D1541F4A8823FF21D1541D4A08
:1012F0008023FF21D1541B4A98230021D154194A3D
:101300008C23FF21D154174A16498423CB5CDBB2CE
:1013100008210B43D9B28423D154124A11498423A2
:10132000CB5CDBB204210B43D9B28423D1540D4AE8
:101330000C498423CB5CDBB202210B43D9B284235A
:10134000D154084A07498423CB5CDBB201210B430B
:10135000D9B28423D154BD4680BDC046D8F2FF1F08
:10136000E1F2FF1F00200740BCF7FF1FD8F0FF1F6E
:10137000F8F0FF1F18F1FF1F38F1FF1F80B586B08E
:1013800000AF3960FB1D011C1970BB1D1A703B1C9E
:10139000103300221A803B1C0F33FA1D12781A708A
:1013A000FB1D1B78002B04D0FB1DFA1D1278920048
:1013B0001A70FB1DFA1D127802321A70FB1D1A7882
:1013C0005E4B9200D3587B615D4B1B781A1C012346
:1013D000134024D05B4B3A681A605B4BBA1D1278FD
:1013E0001A705A4B1B68DB791B0299B2574B1B686A
:1013F0009B791A1C3B1C10338A181A80BB1D1B7862
:101400009BB23A1C103212889A4208D2FB1D1B78FC
:10141000022B04D14D4B1B689A794B4B1A70FB1D64
:101420001B784B4AD25C484B1B789A4218D2FB1D62
:101430001A783B1C133346498A5C1A70424B1A785F
:10144000FB1D1B784249CB5CD31ADAB23E4B1A70B3
:101450003B4B1B7801229343DAB2394B1A700EE0F2
:101460003B1C1333384A12781A70374B00221A701B
:10147000334B1B7801221343DAB2314B1A70354BD0
:101480001A68FB1D1B78DB00D3183A1C1332127844
:1014900092B25A8009E07B695A1C7A61294A126823
:1014A000501C2849086012781A703B1C13331B78B3
:1014B0003A1C1332591E1170002BECD1264B1B78AD
:1014C0001A1C3B1C0F331B781A41012313401AD0FE
:1014D000204B1A68FB1D1B78DB00D31888221A707A
:1014E0003B1C0F331B780122111C99400B1CDBB2F3
:1014F000DB43DBB2184A1278D2B21340DBB2DAB265
:10150000154B1A7017E0134B1A68FB1D1B78DB0094
:10151000D318C8221A703B1C0F331B780122111CF0
:1015200099400B1CDAB20C4B1B78DBB21343DBB2D5
:10153000DAB2094B1A70BD4606B080BD94F0FF1FA9
:10154000D8F2FF1FDCF2FF1FE0F2FF1FE8F2FF1FDF
:10155000041B0000BCF7FF1FE1F2FF1F80B500AFC6
:10156000234AC4230521D154214AC8230521D1543B
:101570001F4ACC230921D1541D4AD0230121D15423
:101580001B4AD4230121D154194AD8230121D15413
:10159000184B1B683033C8221A70164B1B68303347
:1015A00000225A80134B1B683033134A5A60114B88
:1015B0001B685033C8221A700E4B1B685033002230
:1015C0005A800C4B1B6850330C4A5A60094B1B68FD
:1015D000603388221A70074B1B686033FF225A80E1
:1015E000044B1B686033064A5A60BD4680BDC04646
:1015F00000200740BCF7FF1F98F1FF1F18F2FF1FE4
:1016000058F2FF1F80B582B000AF524B1B685B7869
:10161000092B00D998E09A004F4BD3181B689F46BE
:10162000002000210022FFF7A9FE4C4B03221A7074
:101630008DE0484B1B68DB78022B0AD0032B0FD0C0
:10164000012B49D1464B0020191C1222FFF796FEB0
:1016500045E0444B0020191C2022FFF78FFE3EE09E
:101660003C4B1B689B78002B0AD13F4B1A683E4BC2
:101670001B681B780020111C1A1CFFF77FFE2AE054
:10168000344B1B689B78012B0AD1374B5A68364B79
:101690005B681B780020111C1A1CFFF76FFE1AE014
:1016A0002C4B1B689B78022B0AD12F4B9A682E4B30
:1016B0009B681B780020111C1A1CFFF75FFE0AE0D4
:1016C000294BDA68284BDB681B780020111C1A1C98
:1016D000FFF754FE03E002E000F00CF9C04636E0EC
:1016E0001C4B1B68DA781B4B1B689B78D318DAB24B
:1016F0001E4B1A70174B1B68DB781A1C154B1B68A6
:101700009B78D318002B0AD0FFF728FF0020002178
:101710000022FFF733FE114B01221A7017E016E08A
:10172000124B0020191C0122FFF728FE0FE0BB1D01
:1017300000221A80BB1D0020191C0222FFF71EFE8A
:10174000064B00221A7002E000F0D4F8C046BD46F5
:1017500002B080BDE8F2FF1F2C1B0000E4F2FF1F67
:1017600010F0FF1F24F0FF1FC0F7FF1FE2F2FF1F62
:1017700080B500AF1A4B1B7801229343DAB2184BA5
:101780001A70184B1B681B781A1C1F23134003D0B8
:1017900017D4022B15DC0DE0124B1B681B781A1CAA
:1017A0001F23134001D1FFF72DFF0F4B1B68882229
:1017B0001A7009E000F01CF80B4B1B6888221A70A5
:1017C00002E000F097F8C046084A08499423CB5C31
:1017D000DBB220218B43D9B29423D154BD4680BDC6
:1017E000E1F2FF1FE8F2FF1FBCF7FF1F00200740D8
:1017F00080B582B000AF2A4B1B685B78012B1DD0EF
:10180000032B33D0002B00D046E0264B1B781A1C4C
:10181000234B1B685B791A410123134004D0BB1D85
:10182000802252001A8002E0BB1D00221A80BB1DDC
:101830000020191C0222FFF7A1FD2DE0184B1B68A8
:101840005B790122111C99400B1CDBB2DB43DBB23C
:10185000144A1278D2B21340DBB2DAB2114B1A70CA
:10186000002000210022FFF789FD15E00C4B1B68CA
:101870005B790122111C99400B1CDAB2094B1B78D1
:10188000DBB21343DBB2DAB2064B1A700020002140
:101890000022FFF773FDC046BD4602B080BDC046C2
:1018A000E8F2FF1FE3F2FF1F80B500AF0D4B1B787E
:1018B000032B0FD10C4A0D4B1B6899789823D154F8
:1018C000084B04221A700A4B1B7801221343DAB228
:1018D000074B1A70002000210022FFF74FFDBD4684
:1018E00080BDC046E4F2FF1F00200740E8F2FF1F62
:1018F000D8F2FF1F80B500AF094A0949C023CB5C6D
:10190000DBB202210B43D9B2C023D154054B1B6873
:1019100088221A70034B1B6820225A80BD4680BD66
:1019200000200740BCF7FF1F80B500AF024B1B68CB
:1019300088221A70BD4680BDBCF7FF1F80B582B0FB
:1019400000AF00237B60FB1C00221A705B4A8823D7
:101950005B010021D1505A4B14225A70584B9822E7
:101960001A7000237B600AE0554B9B79DBB21A1C8E
:101970000223134000D006E07B6801337B607A6865
:10198000504B9A42F0D900237B600AE04C4B9B7984
:10199000DBB21A1C1023134000D106E07B68013330
:1019A0007B607A68484B9A42F0D900237B600CE058
:1019B000434B9B79DBB21A1C0C2313409B08022B70
:1019C00000D106E07B6801337B607A683E4B9A4227
:1019D000EED93B4B3A4A5279D2B220210A43D2B2D5
:1019E0005A71374B364A1279D2B201210A43D2B228
:1019F0001A71334B5B79DAB2FB1C1A70FB1CFA1CB0
:101A000012781F218A431A70FB1CFA1C127840219D
:101A10000A431A702A4BFA1C12785A7100237B6011
:101A20000AE0274B9B79DBB21A1C2023134000D01D
:101A300006E07B6801337B607A68234B9A42F0D9D9
:101A400000237B600AE01E4B9B79DBB21A1C40230B
:101A5000134000D006E07B6801337B607A681B4B43
:101A60009A42F0D9154A1A4B1A49D150144B144ACC
:101A70001278D1B23F220A40D2B21A7000237B60A2
:101A80000CE00F4B9B79DBB21A1C0C2313409B0814
:101A9000032B00D106E07B6801337B607A680A4B38
:101AA0009A42EED9054A05490B4BCB58F8218901DA
:101AB0001943094BD150BD4602B080BD00700440AF
:101AC000004006401F4E0000CF0700009F0F00009F
:101AD0004410000000000110381000000090044085
:101AE00000A0044000B0044000C0044000D0044006
:101AF00000F00F4040F00F4080F00F40C0F00F406A
:101B000000F10F4020202020202020202020202015
:101B10002020202062110000221100002811000066
:101B200032110000381100004E1100002E17000085
:101B30004817000048170000481700004817000029
:101B40002016000032160000481700002017000081
:041B5000E01600009B
:101B540010034800570057005F005500530042002F
:101B64001201000202000020A2150FA500000102CC
:101B74000301000009022000010100C03209040031
:101B84000002FFFFFF010705820220000007050392
:101B9400022000000403090412035300550044000A
:101BA40041002D004E00580050000000380353003F
:101BB4006F006F00630068006F00770055006E00CF
:101BC4006900760065007200730069007400790092
:101BD4002D00550053004200440065007600690062
:101BE40063006500D8F0FF1FF8F0FF1F18F1FF1F16
:101BF40038F1FF1F58F1FF1F78F1FF1F98F1FF1F05
:101C0400B8F1FF1FD8F1FF1FF8F1FF1F18F2FF1FF3
:101C140038F2FF1F58F2FF1F78F2FF1F98F2FF1FE0
:081C2400B8F2FF1FC8880000A0
:0400000300000801F0
:00000001FF
