:1000000000300020010800004508000045080000FD
:1000100000000000000000000000000000000000E0
:100020000000000000000000000000004508000083
:100030000000000000000000450800004508000026
:10004000450800004508000045080000450800007C
:10005000450800004508000045080000450800006C
:10006000450800004508000045080000450800005C
:1000700081300000B5300000B131000045080000BB
:1000800045080000652F0000A92F00005130000036
:10009000450800004508000045080000450800002C
:1000A000450800004508000045080000450800001C
:1000B000450800004508000045080000450800000C
:10040000FFFFFFFFFFFFFFFFFFFFFFFFFEFFFFFFFD
:1008000072B604F057FE62B609490A4A0A4B9B1AAF
:1008100003DD043BC858D050FBDC0849084A521A93
:1008200003DD00208850043AFCDA02F085FD000068
:100830002459000000F0FF1F20F0FF1F20F0FF1FD1
:1008400070F0FF1F0048004745080000002934D021
:100850000123002210B488422CD301242407A14292
:1008600004D2814202D209011B01F8E7E400A1424F
:1008700004D2814202D249005B00F8E7884201D3EA
:10088000401A1A434C08A04202D3001B5C082243C2
:100890008C08A04202D3001B9C082243CC08A04233
:1008A00002D3001BDC082243002803D01B0901D01F
:1008B0000909E3E7101C10BC7047002801D0002094
:1008C000C04307B4024802A14018029003BDC046CD
:1008D000D90000000029F0D003B5FFF7B9FF0EBC26
:1008E0004243891A1847C046002941D010B4041C5D
:1008F0004C40A44601230022002900D5494200288B
:1009000000D5404288422CD301242407A14204D2BE
:10091000814202D209011B01F8E7E400A14204D29E
:10092000814202D249005B00F8E7884201D3401AB5
:100930001A434C08A04202D3001B5C0822438C08D7
:10094000A04202D3001B9C082243CC08A04202D341
:10095000001BDC082243002803D01B0901D0090931
:10096000E3E7101C6446002C00D5404210BC7047E1
:10097000002806D003DB0020C043400801E08020AF
:10098000000607B4024802A14018029003BDC04609
:10099000190000000029EBD003B5FFF7A7FF0EBC3C
:1009A0004243891A1847C0467047C0468446101C07
:1009B00062468C46191C634600E0C0461FB501F034
:1009C00049F8002801D40021C8421FBD10B500F02D
:1009D00079FF4042013010BD10B501F03BF800280E
:1009E00001DB002010BD012010BDC04610B501F094
:1009F00031F8002801DD002010BD012010BDC046E7
:100A000010B500F0A9FF002801DC002010BD012076
:100A100010BDC04610B500F09FFF002801DA00208D
:100A200010BD012010BDC0468446081C6146FFE78A
:100A30001FB500F0EBFB002801D40021C8421FBD08
:100A400010B500F071FB4042013010BD10B500F050
:100A5000DDFB002801DB002010BD012010BDC046D9
:100A600010B500F0D3FB002801DD002010BD0120EF
:100A700010BDC04610B500F081FB002801DC00204D
:100A800010BD012010BDC04610B500F077FB002856
:100A900001DA002010BD012010BDC046002B11D18D
:100AA000002A0FD1002900D1002802D00021C9431B
:100AB000081C07B4024802A14018029003BDC046BA
:100AC000E9FEFFFF03B4684601B5029800F080F824
:100AD000019B9E4602B00CBC7047C0469E2110B5DB
:100AE000C905041CFFF7D0FF002803D1201C00F02B
:100AF00079FE10BD9E21C905201C00F0FDFC00F010
:100B000071FE80231B06C018F3E7C04600000000FA
:100B100038B50E4B0C4A041C0D1CFFF77BFF002858
:100B200004D1201C291C01F0D7FD38BD074B064A13
:100B3000201C291C01F09CFA01F0CEFD80231B062D
:100B4000C018F2E7C046C046000000000000E041C7
:100B500070B50E4B0C4A0D1C041C00F0F9FFFFF79A
:100B6000D7FF061C01F0ECFD094A0A4B00F0F0FF2C
:100B7000021C0B1C201C291C01F07AFAFFF7C8FF8D
:100B8000311C70BDC046C046000000000000F03DB2
:100B9000000000000000F041F0B583B0161C1F1CDF
:100BA0000090019101F040FE041C0D1C221C2B1C26
:100BB000301C391C01F016FE009A019B121A8B4161
:100BC0000899201C0A604B60291C03B0F0BDC04688
:100BD000F0B583B0141C1D1C0090019102F000F8C8
:100BE000221C2B1C061C0F1C01F0FCFD009A019B13
:100BF000121A8B410899301C0A604B60391C03B0F3
:100C0000F0BDC046F8B543024400C50F4E0248008F
:100C1000240E2A1C9B09000EC90FB6098D425BD019
:100C2000221A002A00DC89E000281DD1002E00D005
:100C300075E0580704D00F221A40042A00D004336C
:100C40008021C90419402A1C00293AD00134FF2C04
:100C500000D17FE09B015B0A5B02E4B2E405580A25
:100C6000D20720431043F8BDFF2CE2D08021C904F5
:100C70000E431B2A00DD2DE1311C2020D140821AB9
:100C80009640721E96410E439B1B5801D1D59B0185
:100C90009F09381C01F088FD421F974094425BDC9D
:100CA000141B1F231B1B3A1C9F40611C3B1CCA408A
:100CB0005F1EBB4113430024BBE7131EB9D10023C1
:100CC0000022DB08FF2C04D1002B43D08020C0037E
:100CD00003435B025B0ABFE7211A002940DD0028BD
:100CE00023D0FF2CA5D08020C00406431B2900DDA3
:100CF000EEE0301C2027C840791A8E40711E8E41CC
:100D000006439B19590100D493E70134FF2C55D0B9
:100D1000714901221A400B405B08134389E7013AED
:100D2000002AB1D0FF2CA4D183E7002E00D180E7A8
:100D300001390029E5D0FF2CD8D17AE7002A1BD150
:100D4000621CD2B2012A4BDD9F1B7A0123D5F71A10
:100D50000D1C9EE700237FE75F4BA41A3B4068E72A
:100D6000002946D1611CC8B2012829DDFF2924D001
:100D7000F3185B080C1C5CE7002C13D0FF2818D07C
:100D80008024E404524223431B2A4DDD0123F31A3D
:100D9000041C0D1C79E7002F00D07AE70023002205
:100DA00000248EE7002B3BD0D243002AEFD0FF284F
:100DB000EAD1331CFF240D1C3BE7FF24002380E70E
:100DC000002C5CD1002B00D180E0002E00D130E758
:100DD0009B19580100D42CE73F4A0124134028E70F
:100DE000002C15D1002B40D1002E63D0331C0D1CDC
:100DF0001FE7002C21D1002B54D0C943002904D077
:100E0000FF284CD01B2958DD01239B19041C79E7CE
:100E1000002B19D1002E48D0331C0D1CFF2408E7ED
:100E2000331C041C0D1C04E71C1C2025D440AA1AEA
:100E300093405A1E93412343A9E7FF282FD08024D3
:100E4000E40449422343DDE7FF24002E00D1F0E60D
:100E50008022DB08D203134204D0F608164201D1E7
:100E6000331C0D1CDB00FF24E3E6002E00D1E0E67E
:100E70009A1B500100D420E7F31A0D1CD9E6002B71
:100E80000DD0FF24002E00D1D3E68022DB08D20350
:100E90001342E7D0F6081642E4D1331CE2E7331CD4
:100EA000FF24C6E6331C041CC3E6802300229B04F7
:100EB000FF2406E7231C002203E71C1C2027CC404C
:100EC000791A8B40591E8B4123439EE7331CB0E6B1
:100ED000012616E70126D7E6FFFFFFFBF0B55F46C8
:100EE00056464D464446F0B446024500C00F85B014
:100EF0000F1C760A2D0E804641D0FF2D26D080246F
:100F0000240400212643F6007F3D89468B46F90FD5
:100F10007C027800640A000E00918A463CD0FF28CB
:100F200034D080231B041C430023E4007F3801934A
:100F3000009F4346019A7B4049469C4611430F2936
:100F400000D971E0764F89007F58BF46002E3ED110
:100F50000822022391469B46D9E75A46341CC246D2
:100F600001920199022937D0032900D1CFE001294C
:100F700000D0ABE053460B400022002632E0002EAA
:100F800019D10421012289469346C0E7221C531E31
:100F90009A4102320192CBE701270197002CC7D07A
:100FA000201C01F001FC431F9C4076235B42002182
:100FB000181A0191BCE7301C01F0F6FB7625431F9F
:100FC0009E406D4200232D1A99469B469FE70C23B5
:100FD000032199468B469AE7D446012367463B4056
:100FE000FF2200267602D205700ADB071043184361
:100FF00005B03CBC90469946A246AB46F0BD802663
:101000000023F603FF22EDE700220026EAE7802016
:10101000C00306423BD0044239D1061C2643760267
:10102000760A009BFF22DDE7281A0390760164010F
:10103000A64239D3361B1A2201230120311C5B0042
:101040007600002901DBB44201D8361B0343013A84
:10105000002AF3DC741EA641341C1C43039A7F3221
:10106000002A27DD630704D00F232340042B00D080
:101070000434270103D52B4B039A1C408032FE2AEF
:101080000BDD012361460B40FF220026AAE7064341
:101090007602760A4346FF22A4E7A40101236746AD
:1010A000660AD2B23B409DE7039F1B22013F039794
:1010B0000023C2E77E23039F5B42DB1B1B2B07DD64
:1010C000012361460B40002200268BE7D446C5E78A
:1010D000221CDA40039B9E339C40231C5C1EA341D0
:1010E00013435A0704D00F221A40042A00D00433B5
:1010F0005F0105D5012361460B400122002671E7FF
:101100009E01624601231340760A00226AE7802688
:10111000F60326437602760A5346FF2262E7C0466C
:1011200050570000FFFFFFF74A02430270B55C0A08
:10113000550A43004A001B0EC60F120EC90FFF2BA3
:1011400005D0FF2A08D0012093420BD070BD0120AA
:10115000002CFBD1FF2AF6D10120002DF6D1012071
:101160009342F3D1AC42F1D18E4205D0002BEDD1A8
:10117000201C441EA041E9E70020E7E74A024302A1
:10118000F0B55C0A550A43004A001B0EC60F120E4A
:10119000C90FFF2B31D0FF2A34D0002B16D160426B
:1011A00060418446002A14D0002820D18E4217D1F5
:1011B000934215DC04DBAC4212D80020AC4212D2C0
:1011C000704270414042012318430CE0002AEDD1E7
:1011D00094466F426F416046002805D1002FE5D04C
:1011E000704201231843F0BD0020002FFBD148427C
:1011F0004841404201231843F5E7002CCBD00220A0
:101200004042F0E7002DC8D0F9E7C0464A02430249
:10121000F0B55C0A550A43004A001B0EC60F120EB9
:10122000C90FFF2B27D0FF2A29D0002B10D0002A6E
:1012300015D194466F426F416046002815D00020BA
:10124000002F04D148424841404201231843F0BDD9
:10125000604260418446002AECD00028F2D18E42E0
:1012600011D0704201231843F1E7002FF7D07042EC
:1012700001231843EBE70220002CE8D1D3E702203A
:10128000002DE4D1D1E79342EBDC04DBAC42E8D89B
:101290000020AC42DBD2704270414042012318432F
:1012A000D5E7C046F0B55F4656464D464446F0B4D5
:1012B0004402460083B00F1C640A360EC50F002E90
:1012C00041D0FF2E22D080231B0400201C43E400C9
:1012D0007F3E82468046391C4B007F02C90F7F0A41
:1012E0001B0E8B463BD0FF2B34D0802212041743B9
:1012F000FF007F3B00215A466A40019252460A4352
:101300000F2A63D87A48920082589746002C3FD122
:101310000822022392469846DDE7019540460228BE
:101320002AD1019A01251540FF2300246402DB0520
:10133000600AED071843284303B03CBC9046994629
:10134000A246AB46F0BD002C27D1042001228246E4
:101350009046C0E7391C4A1E91410231CBE701217A
:10136000002FC8D0381C01F01FFA431F9F4076237E
:101370005B421B1A0021BEE7032800D1AEE0012822
:101380004FD1019842461040C5B200230024CDE75A
:101390000C2303209A4680469DE7201C01F004FAA6
:1013A0007626431F9C4076420023361A9A4698467A
:1013B00091E780240025E403FF23B7E75B463C1C4C
:1013C00001938846AAE73C1C8846A7E7250C24041D
:1013D0003A0C240C3F04F6183F0C211C231C7943C3
:1013E00053436F435543FB180A0C9B18B1469F4269
:1013F00002D980225202AD1809041A04090C5218AD
:1014000094011B0C611E8C41920EED181443AD012A
:101410002C43230105D50122630801201440814497
:101420001C434B467F33002B2DDD600704D00F2279
:101430002240042A00D00434220103D52D4B1C4045
:101440004B468033FE2B17DD019B01251D400024F8
:10145000FF236BE78020C003044208D0074206D177
:10146000041C3C436402640A5D46FF235EE70443B8
:101470006402640AFF2359E70198A4010125640A64
:10148000DBB2054052E77E235B424A469B1A1B2B88
:1014900005DD019B01251D400024002346E7221C99
:1014A000DA404B469E339C40231C5C1EA3411343F1
:1014B000580704D00F221A40042A00D004335A01DE
:1014C00005D5019B01251D40002401232EE701982D
:1014D0009C010125640A0540002327E78027FF03BC
:1014E000019B3C43640201251D40640AFF231DE764
:1014F00090570000FFFFFFF7F8B5C20F430244000A
:101500004D024800240E161C9B09000EC90FAD09A0
:10151000FF2800D183E0012779408A425CD0221A5B
:10152000002A00DC8EE000281ED1002D00D07AE0D9
:10153000580704D00F221A40042A00D00433802117
:10154000C90401221940324000293AD00134FF2C4D
:1015500000D183E09B015B0A5B02E4B2E405580A18
:10156000D20720431043F8BDFF2CE1D08021C904ED
:101570000D431B2A00DD31E1291C2020D140821AB5
:1015800095406A1E95410D435B1B5801D0D59B01C8
:101590009F09381C01F008F9421F974094425FDC14
:1015A000141B1F231B1B3A1C9F40611C3B1CCA4081
:1015B0005F1EBB4113430024BAE7131EB8D10023BA
:1015C0000022DB08FF2C04D1002B47D08020C00371
:1015D00003435B025B0ABFE7211A002944DD0028B0
:1015E00027D0FF2CA4D08020C00405431B2900DD98
:1015F000F2E0281C2027C840791A8D40691E8D41D1
:1016000005435B19590100D492E70134FF2C59D0EE
:10161000734901221A400B405B08134388E7002DF1
:1016200000D07AE777E7013A002AADD0FF2CA0D1AD
:101630007EE7002D00D17BE701390029E1D0FF2CA6
:10164000D4D175E7002A1BD1621CD2B2012A4BDD2E
:101650005F1B7A0123D5EF1A0E1C9AE700237BE764
:101660005F4BA41A3B4063E7002946D1611CC8B216
:10167000012829DDFF2924D0EB185B080C1C57E753
:10168000002C13D0FF2818D08024E40452422343B6
:101690001B2A4DDD0123EB1A041C0E1C75E7002FDD
:1016A00000D076E70023002200248AE7002B3BD0FD
:1016B000D243002AEFD0FF28EAD12B1CFF240E1CB6
:1016C00036E7FF2400237CE7002C5CD1002B00D1FF
:1016D00080E0002D00D12BE75B19580100D427E7EB
:1016E0003F4A0124134023E7002C15D1002B40D1A1
:1016F000002D63D02B1C0E1C1AE7002C21D1002BCF
:1017000054D0C943002904D0FF284CD01B2958DDF0
:1017100001235B19041C75E7002B19D1002D48D05B
:101720002B1C0E1CFF2403E72B1C041C0E1CFFE6C5
:101730001C1C2026D440B21A93405A1E93412343C6
:10174000A9E7FF282FD08024E40449422343DDE7A2
:10175000FF24002D00D1EBE68022DB08D2031342E8
:1017600004D0ED08154201D12B1C0E1CDB00FF2418
:10177000DEE6002D00D1DBE65A1B500100D41CE749
:10178000EB1A0E1CD4E6002B0DD0FF24002D00D147
:10179000CEE68022DB08D2031342E7D0ED081542E3
:1017A000E4D12B1CE2E72B1CFF24C1E62B1C041CFC
:1017B000BEE6802300229B04FF2402E7231C0022B4
:1017C000FFE61C1C2027CC40791A8B40591E8B4108
:1017D00023439EE72B1CABE6012512E70125D3E648
:1017E000FFFFFFFB4302590A4300C20F1B0E0020FC
:1017F0007E2B0DDD9D2B0CDC802000040143952BFE
:101800000ADC9620C31AD9404842002A00D1081C9D
:101810007047034BD018FBE7963B9940F4E7C0466E
:10182000FFFFFF7F10B5041E33D000F0BDFF9E23E5
:101830001B1A962B09DC083884406402640ADBB268
:101840006402DB05600A184310BD992B0ADD0522EE
:10185000121A211CD1400A1C011C1B318C40611E34
:101860008C411443052801DD421F9440144A224054
:10187000610704D00F210C40042C00D00432510128
:101880000AD59F23181AFF2816D09401640AC3B200
:10189000D6E700230024D3E7D208FF2B03D054025D
:1018A000640ADBB2CCE7002A06D08024E4031443A8
:1018B0006402640AFF23C3E7FF230024C0E7C04695
:1018C000FFFFFFFBF0B55F4656464D464446F0B479
:1018D0000D1C041C8046E80F814618030F03000B03
:1018E0003F0B83B084461B48009749005E00DF0F22
:1018F000490D9246760DBB4681420CD01548864272
:1019000010D00120B14215D003B03CBC904699469E
:10191000A246AB46F0BD009F01202743F4D10D48FD
:101920008642EED1604602430120002AECD101201C
:10193000B142E9D1009B6345E6D1D045E4D1D94518
:1019400006D00029E0D11C43201C441EA041DBE747
:101950000020D9E7FF070000F0B55F4656464D4628
:101960004446F0B4CD0FDE0FAC461D032D0BB1463F
:10197000374E0F034C00AB465D0080463F0B640DB5
:1019800092466D0DB44232D0314EB54235D0002C66
:101990000ED1384341424141081C002D0BD0002993
:1019A00019D1CC452DD0654668420123184318E073
:1019B000002DF6D1281C59460A43534253410028B2
:1019C00006D1002BEDD0634658420123184308E0AE
:1019D0000020002B05D14A4650425041404201238D
:1019E00018433CBC90469946A246AB46F0BD3E1C0F
:1019F0000643C9D002204042F3E75E461643C6D0F4
:101A0000F8E7AC4207DC0BDA614648424841404205
:101A100001231843E5E76646704201231843E0E7D7
:101A20005F450AD80ED000205F45DAD2654668428D
:101A30006841404201231843D3E7624650420123E4
:101A40001843CEE7D045F8D80020D045EED3C8E7FC
:101A5000FF070000F0B556464D4644465F46F0B4D9
:101A60000D1C83B0041C0190E80F814618030F037E
:101A7000000B3F0B84463548009749005E00DF0F9E
:101A8000490D9246760DB846814234D02F488642A1
:101A900036D0002918D0002E1FD1341C67463A4397
:101AA00053425341002C1FD00020002B05D1424649
:101AB0005042504140420123184303B03CBC904681
:101AC0009946A246AB46F0BD00980443604260418F
:101AD000041C002EE2D00028E9D1C14515D04F46A4
:101AE000784201231843E8E7002BF6D04B465842D2
:101AF00001231843E1E7009F02202743DDD1C5E71A
:101B0000674602201743D8D1C3E7B14204DD4A46F5
:101B1000504201231843D0E7B14207DB00986045EB
:101B2000E4D80AD0009F00206745C6D24F467842CD
:101B30007841404201231843BFE7019A5245D5D866
:101B4000019A00205245F1D3B7E7C046FF070000D5
:101B5000F0B5564644465F464D46F0B41F1C0B0395
:101B60001B0B9A464B0087B0041C80465B0DC80FC8
:101B7000161C02938146002B68D0694B029999424A
:101B800032D08022534652031A43D200630F1A43C5
:101B90009246644AE000891880460291002400259C
:101BA0003B031B0B9B467800FB0F321C400D03933D
:101BB00000D175E05A4B984269D0802259465203B1
:101BC0000A43730FD2001A43564B9346C018F200D3
:101BD000002303994E4671401C430F2C00D9A9E005
:101BE000514EA4003459A74653461C4300D087E009
:101BF0000025AA46A84608240225D1E74946022D19
:101C00006CD0032D00D117E2012D00D058E10D401A
:101C1000EDB20024A9460023A046002000212503A0
:101C20000A0D1C052D0B1205404B2A43134023437C
:101C30005B004C465B08E207191C4046114307B0A5
:101C40003CBC90469946A246AB46F0BD5346234362
:101C500050D05346002B00D184E1504600F0A4FD43
:101C6000031E272B00DD76E128210D1A211C083BDD
:101C70005246E9409A400D1C1543221C9A40AA4640
:101C800090462B4B00241B1A0293002588E75B46E5
:101C90001E430323002E9CD1B3460022022398E763
:101CA0005B46334321D05846002800D14EE100F076
:101CB0007BFD272800DD42E128210F1A021C311C80
:101CC000083A5B46F94093400F1C1F43331C934076
:101CD000BB461A1C164B181A00237AE701230B4047
:101CE00000249946A0460E4B97E70027BB460022EA
:101CF00001236EE7002104248A46884601254FE728
:101D00000C2403254CE700258024A9462403A8467B
:101D1000034B82E7DA46904603991D1C6FE7C046E5
:101D2000FF07000001FCFFFFD0570000FFFF0F80FE
:101D30000DFCFFFF029F160C381804904046070C5C
:101D40000004000C1204120C031C5343041C3D1C21
:101D50007443554398463B1C73436419A446444658
:101D60000293230C63449D4204D9029D80246402A3
:101D70002D1902951D0C039545462C041B04240CBB
:101D80001C1905945C46230C051C58432404240CA0
:101D90008446381C604365435F438146CC44280C2D
:101DA0006044BB46814502D980277F02BB442D0495
:101DB000070C2D0C000440195546BC462F04E34483
:101DC0008446280C3D0C2F1C5743B8462F1C7743E4
:101DD0004243B94647463F0C9144BA46D144464334
:101DE0004A4502D980225202B6184F463A0CB6181C
:101DF0003A0447463F043F0CB8462F1C67435D43F7
:101E00004443584365190190380C2D184244B84694
:101E1000AC4204D9019880235B02C0180190039C56
:101E2000029F201C6044C0196045A441474664429B
:101E3000A4462B043C049946240C4C44A046D844A8
:101E40008018C246E244904292415746524291461F
:101E5000F219E245BF417F424B46BC46D845BF41DF
:101E6000D4187F4263461F432D0C7F19B242924122
:101E70004C45AD4152426D421543019E7D19AB194F
:101E8000E20D5B02059F134342023A439A46531EFA
:101E90009A41C30D101C18436402204380465046EB
:101EA000C0010DD5454601225646049C6B082A40C8
:101EB0001A43F30701341A43760804949046B24655
:101EC000049E634FF319002B61DD404640070BD0A1
:101ED0000F2244462240042A06D04246043242459C
:101EE00080414042824490465546ED0107D5594B0A
:101EF0005646049F80201E40C000B2463B18564AFA
:101F0000934200DDEAE644465546E208680710437E
:101F100001226C025B050A408046240B5B0D914652
:101F20007BE6DA4690461D1C69E68024240357466A
:101F300027421CD13C432403240B484B6DE6031C71
:101F4000283B311C99408B460022C3E6301C00F030
:101F50002BFC2030ADE6283B211C994000228A460C
:101F600090468EE6201C00F01FFC203078E6584694
:101F7000204207D1044303992403240B8946904649
:101F8000364B4AE63C432403240B344B45E6344BA2
:101F9000049E9B1B382B06DD01230B400024994631
:101FA000A046002339E61F2B25DC049C2D4D464618
:101FB0006019524644468640DC4082405746301CF9
:101FC0002243DF40441EA04102433B1C540709D07A
:101FD0000F201040042805D0101D9042924152421B
:101FE0009B18021C1D021AD501230B4000249946A0
:101FF000A046012311E61C48049C5546001BC54021
:10200000281C202B16D0194E5746A21997403A1C6F
:1020100043461A43531E9A4102430023D6E758070A
:102020005B02D2081C0B01230B40104399468046EB
:102030000023F2E50022EBE780242403504601232D
:10204000044319402403240B8946044BE5E5C046AC
:10205000FF030000FFFFFFFEFE070000FF07000078
:1020600002FCFFFF1E040000E2FBFFFF3E04000035
:10207000F8B55F46564644464D46F0B40C034D0055
:10208000CF0F610A440F2143C4001803DE0F8046BE
:10209000B44646465800760A530F3343D600D14A19
:1020A0006D0DBA46400DB346904200D1F5E0624650
:1020B000012672409446674500D1ABE02F1A002FED
:1020C00000DC11E100283ED15846184300D0F1E071
:1020D000600700D197E00F232340042B00D122E1B9
:1020E000221DA242A4416442802309191B04012736
:1020F00050460B400740141C002B00D179E0B94B2F
:1021000001359D4200D10BE1B74BE4081940480767
:10211000490204430B0B002000211B031A0B0B0D7B
:102120006D051B0513436A08B04DFF071D4015439D
:102130006D006D08291C3943201C3CBC9046994613
:10214000A246AB46F8BDA7488542C1D08020000416
:102150000343382F00DDFDE01F2F00DD31E120209B
:10216000C01B1A1C5E468240FE40324394465A46CB
:102170008240101C421E9041FB40624602431F1CDD
:10218000A21A9442A4416442C91B091B141C0A02EE
:102190009ED549024F0A002F00D1D6E0381C00F02E
:1021A00003FB021C083A1F2A00DDC3E02821231C80
:1021B000091A9740CB401F439440954200DDC0E090
:1021C000551B691C1F2900DDEAE01F22551B3B1C23
:1021D000221CAB40CA40AC40651EAC411343CF400B
:1021E0001C43391C002573E780217E4D0027C9035D
:1021F00000247C4B4807E4080443C9089D4250D0A2
:1022000009030B0B87E780231B04012752460B4071
:10221000174071E72A1A9446002A00DCA1E0002842
:1022200054D07048854200D152E780200004034317
:102230006046382800DD0EE11F2800DD57E16246C8
:102240002020801A1E1C8640B1465E46D6404A4673
:1022500032435E4686409046301C421E90414246C4
:1022600002436046C3401219A242A4416442591875
:102270000919141C080200D42AE75A4B01359D4263
:1022800000D131E1584B60081940012323401C1C48
:102290000443CB071C4349081AE71E4300D00AE752
:1022A00005E7231C0B433BD080231B030B431B037D
:1022B0001B0B30E7013F002F6DD15E46A21B9442FD
:1022C000A4416442C91A091B141C60E7584618430C
:1022D00000D1FDE601267642B4446046002800D0D5
:1022E000D0E05E463219BFE7002F00D080E0681CC6
:1022F0004005400D012800DCE8E05A46A21A94424D
:10230000BF41C81A7F42C71B3E0200D498E058461E
:10231000041BA3459241591A52428F1AE2463AE7EA
:1023200000230024F7E680231B04012756460B40B8
:102330003740E1E6271C283887400024954200DC1E
:102340003EE72949AD1A3940C2E6201C00F02CFABC
:10235000203026E75A461A43531E9A41D2B200272C
:102360000EE7002A00D0DEE0681C4605760D012E3F
:1023700000DC90E01B4DA84200D1F5E05E4632192A
:10238000A242A441644259180919CC0752081443C7
:102390004908051C9CE61348854200D0D9E697E61B
:1023A0002B1C1F3B3E1CDE40331C20296FD03F22DC
:1023B000551BAF403C43601E84411C430021002557
:1023C00086E6381C20381E1CC640301C202F60D0EA
:1023D0004022D71BBB405A461A43531E9A41024320
:1023E0000027CDE6FF070000FFFF7FFFFFFF0F8004
:1023F000002D37D0B64DA84200D18FE080252D04A6
:102400007F422943382F00DDA8E01F2F00DD24E1A3
:102410002025ED1B0E1CAE40B046261CFE40424659
:10242000AC401643651EAC413443F9405A46141B78
:10243000A34592415B1A5242991A051CE246A6E650
:10244000131C3B43141C002B00D0A4E600270021E2
:1024500000250024CDE65A461A43531E9A41D2B2B3
:10246000002300E70D1C254358D0FF43002F51D116
:102470005A46141BA3459241591A5242891A051C07
:10248000E24684E69248854200D0D1E620E6002765
:1024900090E700239FE7081C2043002D00D0C2E0F6
:1024A000002800D1EFE05846184300D110E6584606
:1024B0000219A242A441644259180919141C0A02C3
:1024C00000D405E6834B0125194001E6081C204392
:1024D000002D38D100286FD15946194303D0191C5B
:1024E0005C46E246F4E500270021002481E66046D0
:1024F00020381A1CC2406646101C202E00D1AAE0CB
:102500004022921B93405A461A43531E9A4102435B
:102510000023A8E66E4DA84200D073E7191C5C4664
:10252000051CE246D4E5002D22D10D1C254376D0B2
:10253000D543002D70D15C445C45924159185242FC
:102540008918051C96E600284CD15946194300D13C
:102550004AE6191C5C46E2465D4DB9E50C43611E36
:102560008C41E4B2002161E7051C0021002440E613
:10257000574DA84253D05542802216043143382D7E
:102580007BDC1F2D00DD8CE02022561B0A1CB4468C
:10259000B240261CEE403243904662469440661E8E
:1025A000B44142461443E9405C445C459241CB1837
:1025B00052429918051C5DE65846184300D187E53C
:1025C0005E46A71BBC429241C81A5242801A0602BC
:1025D00060D55846041BA3459241591A5242891AA4
:1025E000E24675E55846184333D04807E4080443EB
:1025F0008020C9080003014208D0DD08054205D14A
:102600005946CA085C071443291CE246630FC900F7
:102610001943E4002E4D5BE52D4A9042AFD1191CC1
:102620005C46051C54E5002830D05846184310D0AD
:1026300080254807E408C9082D0304432942E5D052
:10264000D8082842E2D15D46EA085C071443011C21
:10265000DCE71F4D3CE5002355E73D1C203D0E1CEB
:10266000EE40351C202F2ED04026F71BB9400C43DE
:10267000611E8C412C430021D8E60C43611E8C4125
:10268000E4B2002190E7191C5C4621E5191C5C4668
:102690000F4D1DE5031C3B4300D124E7011C3C1CEE
:1026A00016E52026764276190A1CF2409046202D27
:1026B0000BD04026751BA9400C43611E8C4145463A
:1026C0002C43002170E70021D1E70021F4E7C04648
:1026D000FF070000FFFF7FFF70B50B1C124C0903C2
:1026E0000E0B5900021C490DDD0F0020A14211DD27
:1026F0000E4881420FDC8020400306430C48401AFC
:102700001F280BDD0B4A521AD640321C5042002DB6
:1027100000D1101C70BD084BE818FBE7074BC24006
:10272000C9188E403243F1E7FE0300001D0400008B
:102730003304000013040000FFFFFF7FEDFBFFFFE9
:1027400010B5041E28D000F02FF8154A121A0A28D6
:1027500015DD0B38844024035205240B520D002351
:10276000002000212403181C0B0D240B1B05234300
:102770000C4C12051C4014436400610810BD031C7E
:102780001533211C99400B1C0B21081AC44024034B
:102790005205240B520DE3E7002200240023DFE75B
:1027A0001E040000FFFF0F801C2101231B04984220
:1027B00001D3000C10391B0A984201D3000A0839D2
:1027C0001B09984201D30009043902A2105C401889
:1027D0007047C0460403020201010101000000002D
:1027E000000000009C460304F0B51B0C17043F0CCE
:1027F000150C1E1C041C000C7E436B4347434543D1
:10280000FB18300C1818874202D980235B02ED18A0
:10281000030CED1863465C434A433604360CA1189A
:10282000000480194919F0BDF0B544465F4656468C
:102830004D46F0B41C1C85B0002900DADBE00F1C0B
:102840000021061C8A46101C191C002C00DAC9E065
:102850000196009089468046002951D1B84200D89F
:1028600071E0FFF7A1FF002809D020234546311C65
:102870001B1A85408740D940A8460F4386404246F0
:10288000150C13041B0C291C381C9B46FDF7DEFF9E
:102890005B464343041C291C381C9946FEF71AF872
:1028A000330C08041843814509D94044631E804510
:1028B00000D978E1814500D875E1023C40444946A1
:1028C000411A8946081C291CFDF7C0FF5A4642439D
:1028D000071C291C48469346FDF7FCFF36040904F3
:1028E000360C0E43B34507D946447B1EB04502D88B
:1028F000023FB34500D81F1C24042743002403E0F3
:10290000B94211D9002400275246381C211C002A44
:1029100003D03B1C00215842A14105B03CBC90466D
:102920009946A246AB46F0BD081CFFF73DFF041ECA
:1029300000D0BFE0B94500D242E1019D0099071CDB
:102940008D424741E0E7002804D101200021FDF736
:102950007DFF80464046FFF727FF002852D14146C1
:1029600044460B043C1B1B0CA3460D0C0093012496
:10297000291C5846FDF76AFF009F81464743291CE2
:102980005846FDF7A7FF330C090419438F4208D9B5
:102990004B464144013B884502D88F4200D91AE199
:1029A0009946C91B8B46081C291CFDF74FFF009B4D
:1029B000291C4343071C58460093FDF78BFF360440
:1029C000009D0904360C0E43B54207D946447B1ED0
:1029D000B04502D8023FB54200D81F1C49460E043C
:1029E000374391E75246D243031C0C1C9246002108
:1029F0005842A1412CE7002746428F41012149421C
:102A00008A4620E720231B1A4246351C82403C1C84
:102A1000DD40DC4087402B1C150C3B43291C8640C5
:102A2000201C009317049046FDF710FF3F0C011C7B
:102A3000794381468B46201C291CFDF74BFF009CE7
:102A40000904230C19438B450CD94B464144013BE7
:102A5000884500D9BDE08B4500D8BAE00222524239
:102A6000914441445C460C1B201C291C0194FDF739
:102A7000EDFE391C4143041C8B460198291CFDF7CF
:102A800029FF009A090413041B0C19438B4509D92B
:102A90004144631E884500D997E08B4500D894E0F7
:102AA000023C41445B46CB1A49469B460B041C43FF
:102AB00000975DE7009D20231B1A4A468240DD40B7
:102AC0001543391C009AD94082408846311C009237
:102AD000D9403A1C82400B1C134301932F0C2B044A
:102AE0001B0C391C40460293FDF7B0FE029A81464A
:102AF0004243391C40469346FDF7ECFE019A090417
:102B0000130C19438B450AD94B464919013B8D4299
:102B10005DD88B455BD902235B42994449195A46DB
:102B20008A1A101C391C0392FDF790FE029B804606
:102B30004343391C03989B46FDF7CCFE019A0904D8
:102B400013041B0C19438B450AD943464919013B11
:102B50008D4238D88B4536D902235B4298444919B7
:102B60005D464D1BAB464946009D0F044246174348
:102B70002A04120C3B042D0C1B0C380C111C59435D
:102B800042436B436843D3180D0C5B198C469A4241
:102B900002D98022520280181D0C401983450CD3A3
:102BA00003D00024B0E61C1C89E665462A041B04F9
:102BB000120C9B18A6409E42F3D2013F0024A3E6CC
:102BC00000240127A0E69846CAE71C1C6AE799463C
:102BD000A5E7994646E70222524291444144E0E685
:102BE000F0B55F4656464D464446F0B40D1C85B0E0
:102BF000061C924698460290019103921F1C141CD9
:102C00008346A946002B59D1AA4269D9101CFFF767
:102C1000CBFD00280AD020231B1A311CD940854047
:102C20000B1C2B43864084409946B346250C230455
:102C30001B0C291C48469846FDF708FE4646071C13
:102C40004643291C4846FDF745FE5A460904130C25
:102C500019438E4209D909197B1E8C4200D957E1CC
:102C60008E4200D854E1023F0919891B8946081C8D
:102C7000291CFDF7EBFD43464343061C291C48462F
:102C80009846FDF727FE5A46130409041B0C194306
:102C9000884508D90919731E8C4200D936E1023ED5
:102CA000884500D832E1380430430027391C05B08C
:102CB0003CBC90469946A246AB46F0BD019A934271
:102CC00062D8181CFFF770FD041E60D1019B9F4263
:102CD00000D22CE1029F03998F4260410027E5E773
:102CE000002A04D101200021FDF7B0FD041C201CA6
:102CF000FFF75AFD002800D0B9E023042D1B1B0C60
:102D0000A946260C98460127311C4846FDF79EFD32
:102D100041464143051C8A464846311CFDF7DAFD11
:102D20005A460804130C1843824507D900196B1E34
:102D3000844202D8824500D910E11D1C5346C31AB3
:102D4000181C311C9A46FDF781FD414641438146DE
:102D500088465046311CFDF7BDFD5A461304090450
:102D60001B0C194388450BD94B460919013B8C4272
:102D700000D9CFE0884500D8CCE002235B429944DB
:102D800028044946084391E7002700208EE72023C6
:102D90001B1A424657468240DF4017435246824044
:102DA0000192321CDA40291CD9408540131C2B4368
:102DB00002933D0C3B041B0C8846081C291C9A46B8
:102DC000FDF744FD534643438146291C40469B463C
:102DD000FDF780FD029A0904130C19438B4506D9AF
:102DE0004B46C919013B8F4200D8ABE099465A4681
:102DF0008A1A101C291C9346FDF728FD53464343AD
:102E0000291C804658469A46FDF764FD029A09043B
:102E100015042D0C29438A4506D94346C919013B9F
:102E20008F4200D886E098465746CF1BBA4649469F
:102E3000019F0804424610433D042D0C03043F0C3F
:102E40001B0C020C291C594355437B437A43EB1856
:102E50000F0CDB198C469D4202D980277F02D219C4
:102E60001D0C521992455FD356D000271EE7202330
:102E70001B1A311C2F1CD940DF4085400B1C84409D
:102E80002B4386400193B3462304260C1B0C381CAD
:102E9000311C9846FDF7DAFC42464243051C311CC2
:102EA000381C9146FDF716FD019F09043B0C1943A0
:102EB000894507D909196B1E8C424DD889454BD9D4
:102EC000023D09194A468A1A101C311C9246FDF728
:102ED000BDFC43464343071C311C50469946FDF751
:102EE000F9FC019A090413041B0C1943894507D9FD
:102EF00009197B1E8C422DD889452BD9023F09190F
:102F00004B46CB1A2D0499462F43FDE61E1CCAE6FC
:102F10001F1CAAE6994633E761460A041B04120CFB
:102F20009B18A6409E42A0D201380027BEE600278B
:102F30000120BBE68A4500D875E702235B4298442E
:102F4000C91971E78B4500D850E702235B429944C9
:102F5000C9194CE71F1CD3E71D1CB3E7023D00193C
:102F6000ECE6C04680B500AF002002F0D1F8031CAB
:102F7000012B13D1002002F0E3F8094B1B78013339
:102F8000DAB2074B1A70064B1B78632B06D9044B39
:102F900000221A70034B181C00F024F9BD4680BDB6
:102FA00020F0FF1F6CF0FF1F80B500AF012002F082
:102FB000AFF8031C012B42D1012002F0C1F8214BD4
:102FC0001B680C20191C01F0D7FE1F4B1B78012B2E
:102FD0001BD11C4B1B68181CFC218905FDF712FE38
:102FE000031C1A1C174B1A60164B1B68181C174938
:102FF000FDF740FD031C002B00D120E0114B134ACC
:103000001A60114B00221A7019E00E4B1B68181C35
:10301000FC218905FEF770FA031C1A1C094B1A6083
:10302000084B1B68181C0021FDF710FD031C002B2A
:1030300005D0044B00221A60034B01221A70BD46D2
:1030400080BDC04624F0FF1F04F0FF1F0000C842EF
:1030500080B500AF012002F05BF8031C012B0AD100
:10306000012002F06DF8054B1B6889225200101CEC
:10307000191C01F081FEBD4680BDC04600F0FF1F57
:1030800090B583B000AF72B6FC1DBB1D0020191CAB
:1030900001F0F2FB031C2370BB1D1B78002B05D035
:1030A000FB1D1B780020191C01F092FB62B6BD4687
:1030B00003B090BD90B583B000AF72B6012001F0AF
:1030C0007DFC031C002B5FD0FC1D3B1D0120191C47
:1030D00001F0D2FB031C2370FB1D1A78314B101C2E
:1030E000191C00F0B5F8031C002B4DD02D4B5B785C
:1030F000012B08D12B4B9B78181CFEF793FB021C6D
:10310000294B1A6040E0274B5B78022B29D1264BD4
:1031100000221A60234B9B781A1C9200D318DB18EC
:10312000D9B2204BDA787B1D8A181A70BB1D002299
:103130001A700FE01C4B1B68181CFE218905FDF757
:1031400061FD031C1A1C184B1A60BB1D1A78BB1DAD
:1031500001321A70BA1D7B1D12781B789A42E9D38E
:1031600012E0104B5B78032B0ED10E4B9B78312B6A
:103170000AD10C4BDB78302B06D10A4B1B79302B54
:1031800002D1094B094A1A603B1D1B78002B05D060
:10319000FB1D1B780120191C01F01AFB62B6BD460D
:1031A00003B090BD28F0FF1F00F0FF1F0000C842D1
:1031B00090B583B000AF72B6FC1DBB1D0220191C78
:1031C00001F05AFB031C2370BB1D1B78002B05D09C
:1031D000FB1D1B780220191C01F0FAFA62B6BD46ED
:1031E00003B090BD80B582B000AF78607B680233D9
:1031F0007A68023212780132D2B21A707B680233D6
:103200001B783B2B21D97B68023300221A707B6824
:1032100001337A68013212780132D2B21A707B68B7
:1032200001331B783B2B10D97B68013300221A70C5
:103230007B681B780133DAB27B681A707B681B7875
:10324000172B02D97B6800221A70BD4602B080BDE0
:1032500080B584B000AF021C3960FB1D1A703B1CA6
:103260000F3300221A70334B1B78002B02D0012B36
:1032700014D021E0FB1D1B78502B0ED13B68FA1DAA
:1032800012781A702B4B1B780133DAB2294B1A7063
:103290003B1C0F3300221A7045E044E03B680133C9
:1032A000FA1D1278303AD2B21A70224B1B780133D1
:1032B000DAB2204B1A7036E01E4B1B78012B16D960
:1032C0001C4B1B781A1C3B6801331B7801339A4254
:1032D0000DDC184B1B783A68D318FA1D12781A7057
:1032E000144B1B780133DAB2124B1A701BE0114BEE
:1032F0001B781A1C3B6801331B7802339A4212DB9D
:10330000FB1D1B78432B0AD10A4B1B783A68D31854
:10331000FA1D12781A703B1C0F3301221A70054BEC
:1033200000221A70C0463B1C0F331B78181CBD4688
:1033300004B080BD68F0FF1F80B582B000AF72B6E8
:103340000A23FF33181C002101F0BAF896239B01D1
:103350000120191C01F0EEF896239B010220191C94
:1033600001F0E8F8334B181C01F086F8324A334B71
:103370000020111C1A1C01F0BDFB2F4A304B01200C
:10338000111C1A1C01F0B6FB2B4A2D4B0220111CFC
:103390001A1C01F0AFFB89235A000023101C191CD2
:1033A0000122002301F01EFC0C20002101F030FD61
:1033B000244A254B101C191C002201F0D9FD234B77
:1033C00000221A70214B00225A70204B00229A7062
:1033D0001E4B9B787B60012001F0B2FA022001F0C5
:1033E000AFFA002001F07AFE012001F077FE022002
:1033F00001F074FE62B6154B9B781A1C7B689A42EA
:1034000017D001206C2101F0E3F90A23FF33181CC7
:1034100001F06CF80D4B1B78191C0C4B5B781A1CD7
:103420000A4B9B780A4801F027F8084B9B787B6091
:10343000E1E7E0E700570000B80B00000000204182
:103440000000A041010200000000A0406CF0FF1F3E
:103450003857000080B582B000AF021CFB1D1A7007
:10346000FB1D1B780220191C01F0B2F9BD4602B009
:1034700080BDC04680B584B000AFF860B9607A60A6
:103480007B681B68012B02D0022B08D012E07B68FE
:103490005B68FA68D2B252B2101C98470AE07B68A7
:1034A0009B68FA68D2B21A707B689B685A1C7B686A
:1034B0009A60C046BB681B685A1CBB681A60BD4650
:1034C00004B080BD00000000F0B5A7B000AFF86008
:1034D000B9607A603B1C5C3300221A6000225A609B
:1034E00000229A600022DA6000221A613B1C10332D
:1034F0001A1C4C23101C00211A1C02F0ABF80023EC
:103500009421C9190B60002300248022D219136072
:103510005460FB685C681B68181C211CFDF7F8FAF6
:10352000031C9421C9190B60FB681D685E68942216
:10353000D2191068FFF704F9031C0C1C281C311C5D
:103540001A1C231CFEF794FD031C0C1CBB67FC67B4
:103550007B68002B24D1FB681D685E689423DB190F
:103560001868FFF7EDF8031C0C1C281C311C1A1CF2
:10357000231CFEF77DFD031C0C1C181C211CB34BE7
:10358000B14AFEF7E5FA031C0C1C181C211CFDF7C0
:10359000DFFA031C0C1C8021C9190B604C6019E078
:1035A00009E0B86FF96FAA4AAA4BFEF7D1FA031CDB
:1035B0000C1CBB67FC677B685A1E7A60002BF0D13D
:1035C000B86FF96FFDF7C4FA031C0C1C8022D219E6
:1035D00013605460FB681D685E689423DB191868EB
:1035E000FFF7AEF8031C0C1C281C311C1A1C231CF2
:1035F000FEF73EFD031C0C1C3B677C670023882103
:10360000C9190B6010E0386F796F914A914BFEF742
:103610009FFA031C0C1C3B677C678822D219136835
:1036200001338821C9190B60386F796F8A4A8B4B37
:10363000FDF7D2F9031C002BE5D18822D2191368BB
:10364000013B8821C9190B6000239022D219136015
:103650009421C9190B68002B0BD19022D219136841
:103660005A1C9021C9190A60BA68D31830221A70FE
:103670004BE000238C22D21913601EE08C23DB194F
:103680001C68631C8C21C9190B609422D219136821
:10369000181C0A21FDF71EF90B1C191C3B1C5C337E
:1036A000A200D1509421C9190B68181C0A21FDF7FA
:1036B000CDF8031C9422D21913609421C9190B6808
:1036C000002BDBD11CE09022D21913685A1C9021E8
:1036D000C9190A60BA68D3188C21C9190A68511E21
:1036E0003A1C5C3289008A58D2B23032D2B2D2B29D
:1036F0001A708C22D2191368013B8C21C9190B60F6
:103700008C22D2191368002BDDD19021C9190B68C6
:103710005A1C9021C9190A60BA68D3182E221A704F
:103720008022D21913688421C9190A6813430BD166
:103730009022D21913685A1C9021C9190A60BA68DC
:10374000D31830221A7070E000238C22D219136033
:1037500027E08C23DB191D686B1C8C21C9190B60B9
:103760008022D21913685468181C211C0A220023D5
:10377000FDF794F91C1C131C191C3B1C1033AA00E8
:10378000D1508021C9190B684C68181C211C0A22D1
:103790000023FDF783F9031C0C1C8022D21913604F
:1037A00054608021C9190B688421C9190A68134320
:1037B000CFD112E08C22D21913685A1C8C21C9195E
:1037C0000A603A1C10329B00002199508822D219BD
:1037D0001368013B8821C9190B608822D21913682C
:1037E000002BE7D11CE09021C9190B685A1C9021CD
:1037F000C9190A60BA68D3188C21C9190A68511E00
:103800003A1C103289008A58D2B23032D2B2D2B2C7
:103810001A708C22D2191368013B8C21C9190B60D4
:103820008C22D2191368002BDDD1BA689021C919F6
:103830000B68D31800221A709022D2191368181C32
:10384000BD4627B0F0BDC04600A0D88557347643AA
:103850000000000000002440000000000000F03FD5
:1038600080B58CB000AFF860B9607A603B6000232F
:10387000FB61FB68BB61BB695A1CBA6100221A700C
:103880007B68002B33D0BB681B68FB62FB6A002B94
:1038900006D1BB6930221A70FB690133FB6159E024
:1038A00021E0F86A3968FDF71FF8031C7B617B692A
:1038B0003A685343FA6AD31ABB62BB6A002B04DA34
:1038C000BB6A3022D31ABB6202E0BB6A3033BB62F0
:1038D0007B69FB62BB695A1CBA61BA6AD2B21A70C0
:1038E000FB690133FB61FB6A002BDAD132E0BB6874
:1038F0001B687B627B6A002B06D1BB6930221A7081
:10390000FB690133FB6125E021E03B68786A191C03
:10391000FCF79CFF031C3B613B683A6953437A6A9E
:10392000D31A3B623B6A092B03D83B6A30333B62B4
:1039300002E03B6A37333B623B697B62BB695A1CDE
:10394000BA613A6AD2B21A70FB690133FB617B6AD1
:10395000002BDAD1FB69181CBD460CB080BDC046F7
:1039600080B586B000AFF860B9607A603B60FB68F4
:103970007B6109E07A683B683020111C1A1CFFF754
:1039800079FD7B6901337B617A69BB689A42F1DB1F
:10399000BD4606B080BDC04680B586B000AFF860B9
:1039A000B9607A603B60FB687B6109E07A683B68DC
:1039B0002020111C1A1CFFF75DFD7B6901337B6120
:1039C0007A69BB689A42F1DBBD4606B080BDC0464D
:1039D00090B5A7B000AFF860B9607A603B1C2C339B
:1039E00000221A6000225A6000229A600022DA60E7
:1039F00000221A6100225A6100229A610022DA61D3
:103A00002022002199543B1C2C3330221A700023B1
:103A1000BB620023FB670123BB67BB689421C91904
:103A20000B6000F018FD7B6E252B1FD07B6E0A2BE0
:103A30000AD0796E3A1C2832FB68081C111C1A1C2B
:103A4000FFF718FD00F000FD3A1C2832FB680D203E
:103A5000111C1A1CFFF70EFD3A1C2832FB680A20C5
:103A6000111C1A1CFFF706FD00F0EEFC0023842257
:103A7000D219136000238821C9190B604CE09422ED
:103A8000D219136801339421C9190B609422D219F9
:103A900013681B785BB2203B102B31D89A00D64BB1
:103AA000D3181B689F468421C9190B680122134350
:103AB0008422D21913602FE08421C9190B680222D5
:103AC00013438422D219136026E08421C9190B689C
:103AD000042213438422D21913601DE08421C919E2
:103AE0000B68082213438422D219136014E0842146
:103AF000C9190B68102213438422D21913600BE0FA
:103B00009421C9190B68013B9422D2191360012337
:103B10008821C9190B60C0468822D2191368002B6E
:103B2000ADD000238021C9190B6000238822D2194F
:103B300013602BE09421C9190B6801339422D21928
:103B400013609421C9190B681B785BB27B667B6E8E
:103B5000303B092B0ED88023DB191A68131C9B00FD
:103B60009B185B001A1C7B6E303BD3188021C9194F
:103B70000B600BE09422D2191368013B9421C91900
:103B80000B6001238822D2191360C0468821C9190D
:103B90000B68002BCED09422D219136801339421E4
:103BA000C9190B609422D21913681B785BB22E2BB3
:103BB00034D100237B6700238821C9190B6027E0DB
:103BC0009422D219136801339421C9190B609422ED
:103BD000D21913681B785BB27B667B6E303B092B76
:103BE0000AD87A6F131C9B009B185B001A1C7B6E13
:103BF000303BD3187B670BE09421C9190B68013B5C
:103C00009422D219136001238821C9190B60C04680
:103C10008822D2191368002BD2D00AE09421C91946
:103C20000B68013B9422D21913600023BB67002369
:103C30007B679421C9190B6801339422D219136050
:103C40009421C9190B681B785BB2682B16D06C2BBA
:103C500002D04C2B05D009E0FB6F01221343FB6718
:103C60000DE0FB6F02221343FB6708E09422D21998
:103C70001368013B9421C9190B6000E0C0469422EF
:103C8000D219136801339421C9190B609422D219F7
:103C900013681B785BB27B667B6E583B202B01D987
:103CA00000F0C8FB9A00554BD3181B689F467B68F1
:103CB00004337B607B68043B1B687B623A1C2C32BC
:103CC0003B1C2433101C191C01220A23FFF7C8FDDA
:103CD000031C8C21C9190B603A1C2C328C21C91988
:103CE0000B68D3189022D21913607B6A002B09DA73
:103CF0002D233B678C21C9190B6801338C22D21903
:103D0000136021E08423DB191A680223134009D0D1
:103D10002B233B678C21C9190B6801338C22D219E4
:103D2000136011E08423DB191A680423134009D0BF
:103D300020233B678C21C9190B6801338C22D219CF
:103D4000136001E000233B670023FB668423DB193B
:103D50001A68082313401FD03B6F002B08D0396F1F
:103D60003A1C2832FB68081C111C1A1CFFF782FB46
:103D70000123FB668C21C91908688022D2191168B9
:103D80003A1C2832FB68FFF7EBFD8021C9190B684C
:103D90008C22D21913601EE08423DB191A680123D8
:103DA000134018D18C21C91908688022D2191168D2
:103DB0003A1C2832FB68FFF7EFFD3B6F002B08D061
:103DC000396F3A1C2832FB68081C111C1A1CFFF7BB
:103DD00051FB0123FB66FB6E002B0CD13B6F002BCC
:103DE00009D0396F3A1C2832FB68081C111C1A1CB8
:103DF000FFF740FB68E267E21058000054580000EB
:103E0000FB6F002B1DD17B6808337B607B68083B10
:103E10005C681B683B657C653B1C63333A1C503215
:103E2000D2791A703B6D7B6500233B653B1C503398
:103E30003A1C63321278DA703B6D7C6DBB61FC61B9
:103E400011E0FB6F012B02D0FB6F022B0BD17B68C3
:103E500004337B607B6808337B607B68083B5C686D
:103E60001B68BB61FC61BB6F002B13D0391C183180
:103E70003A1C2C327B6F081C111C1A1CFFF724FB08
:103E8000031C8C21C9190B603B1C2C339022D219C6
:103E9000136028E0FB6F002B12D13A1C18323B1C38
:103EA0002C33101C191C0822FFF70EFB031C8C215D
:103EB000C9190B603B1C2C339022D219136012E0FD
:103EC000391C18313A1C2C327B6F081C111C1A1C2F
:103ED000FFF7FAFA031C8C21C9190B603B1C2C3329
:103EE0009022D2191360BB69FC69181C211CD14BAC
:103EF000CF4AFCF771FD031C002B09D02D233B6733
:103F00008C21C9190B6801338C22D219136021E06E
:103F10008423DB191A680223134009D02B233B6743
:103F20008C21C9190B6801338C22D219136011E05E
:103F30008423DB191A680423134009D020233B672C
:103F40008C21C9190B6801338C22D219136001E04E
:103F500000233B670023FB668423DB191A680823D0
:103F600013401FD03B6F002B08D0396F3A1C28320A
:103F7000FB68081C111C1A1CFFF77CFA0123FB6666
:103F80008C21C91908688022D21911683A1C28327C
:103F9000FB68FFF7E5FC8021C9190B688C22D21958
:103FA00013601EE08423DB191A680123134018D123
:103FB0008C21C91908688022D21911683A1C28324C
:103FC000FB68FFF7E9FC3B6F002B08D0396F3A1C08
:103FD0002832FB68081C111C1A1CFFF74BFA01233E
:103FE000FB66FB6E002B0CD13B6F002B09D0396FA9
:103FF0003A1C2832FB68081C111C1A1CFFF73AFAFD
:1040000011E010E09021C9190B685A1C9021C919C0
:104010000A601B7859B23A1C2832FB68081C111C34
:104020001A1CFFF727FA9022D21913681B78002B6D
:10403000E8D18423DB191A68012313400BD08C21AB
:10404000C91908688022D21911683A1C2832FB6805
:10405000FFF7A2FCF8E1F7E17B6804337B607B6843
:10406000043B1B687B613A1C2C323B1C1433101C34
:10407000191C00221023FFF7F3FB031C8C21C91924
:104080000B603A1C2C328C21C9190B68D318902272
:10409000D21913600023FB668423DB191A680823F6
:1040A000134029D08421C9190A681023134011D064
:1040B0003A1C2832FB683020111C1A1CFFF7DAF971
:1040C0003A1C2832FB687820111C1A1CFFF7D2F921
:1040D0000123FB668C22D21910688023DB19196832
:1040E0003A1C2832FB68FFF73BFC8021C9190B689A
:1040F0008C22D219136035E08423DB191A6801235E
:1041000013402FD18421C9190A681023134006D007
:104110008C22D219136802338C21C9190B608C22AE
:10412000D21910688023DB1919683A1C2832FB6801
:10413000FFF732FC8421C9190A681023134011D0FB
:104140003A1C2832FB683020111C1A1CFFF792F928
:104150003A1C2832FB687820111C1A1CFFF78AF9D8
:104160000123FB668423DB191A68102313401AD03D
:10417000FB6E002B17D13A1C2832FB683020111C33
:104180001A1CFFF777F93A1C2832FB687820111CBB
:104190001A1CFFF76FF98C21C9190B6802338C22A6
:1041A000D219136090E08FE07B6804337B607B68FA
:1041B000043B1B687B613A1C2C323B1C1433101CE3
:1041C000191C00220823FFF74BFB031C8C21C91983
:1041D0000B6046E07B6804337B607B68043B1B68B4
:1041E0007B613A1C2C323B1C1433101C191C00221E
:1041F0000223FFF735FB031C8C22D219136030E039
:104200007B6804337B607B68043B1B687B613A1CE2
:104210002C323B1C1433101C191C00221023FFF7F6
:104220001FFB031C8C21C9190B601AE0C046C04655
:1042300000000000000000007B6804337B607B68A6
:10424000043B1B687B613A1C2C323B1C1433101C52
:10425000191C00220A23FFF703FB031C8C22D2192E
:1042600013603A1C2C328C21C9190B68D318902288
:10427000D21913608423DB191A680823134011D064
:104280008C21C91908688022D21911683A1C283279
:10429000FB68FFF765FB8021C9190B688C22D219D6
:1042A000136011E08423DB191A68012313400BD13A
:1042B0008C21C91908688022D21911683A1C283249
:1042C000FB68FFF769FB11E010E09021C9190B684A
:1042D0005A1E9021C9190A601B7859B23A1C28321B
:1042E000FB68081C111C1A1CFFF7C4F89022D21995
:1042F00013681B78002BE8D18423DB191A6801238B
:1043000013400BD08C21C91908688022D21911687A
:104310003A1C2832FB68FFF73FFB95E094E07B688E
:1043200004337B607B68043B1B68DBB25BB2FB65DC
:10433000F96D3A1C2832FB68081C111C1A1CFFF787
:1043400099F881E07B6804337B607B68043B1B68E1
:10435000BB66BB6E002B61D0BB6E181C01F0C8F9A8
:10436000031C8C21C9190B608423DB191A680123F3
:1043700013400AD18C21C91908688022D21911680A
:104380003A1C2832FB68FFF707FB7B6F002B21D01C
:104390001BE07B6F002B10D07B6F013B7B67BB6EFC
:1043A0005A1CBA661B7859B23A1C2832FB68081CA2
:1043B000111C1A1CFFF75EF807E0BB6E181C01F019
:1043C00097F9031CBA6ED318BB66BB6E1B78002B23
:1043D000DFD111E00CE0BB6E5A1CBA661B7859B2F3
:1043E0003A1C2832FB68081C111C1A1CFFF742F803
:1043F000BB6E1B78002BEED18423DB191A680123D6
:1044000013400BD08C21C91908688022D219116879
:104410003A1C2832FB68FFF7BFFA15E014E07B680E
:1044200004337B607B68043B1B68BB65BA6ABB6D69
:104430001A6009E0796E3A1C2832FB68081C111CCE
:104440001A1CFFF717F8C0469421C9190B680133ED
:104450009422D21913609421C9190B681B785BB29E
:104460007B667B6E002B01D0FFF7DDFABB6A181C60
:10447000BD4627B090BDC0460FB480B586B000AF32
:104480003B1D01221A603B1D0C4A5A603B1C243321
:104490007B613A6A391D7B69081C111C1A1CFFF7E5
:1044A00097FA031C3B6100237B613B69181CBD46E6
:1044B00006B080BC08BC04B01847C04655340000A4
:1044C00080B582B000AF0A1CBB1D011C19807B1D8A
:1044D0001A70BB1D1A887B1D1B78101C01211A1C29
:1044E00000F0F0FEBD4602B080BDC04680B582B08F
:1044F00000AF021CBB1D1A80BB1D1B88181C00F0DE
:1045000095FFBD4602B080BD80B582B000AF021CF1
:10451000FB1D1A70064BFA1D1278111C1F220A404F
:104520000121081C9040021C1A60BD4602B080BDEB
:1045300000E100E080B586B000AF021C3960FB1DD1
:104540001A709B4B7B61FB1D1B78181C00F0AAFAAC
:10455000031C002B00D128E1FB1D1B78002B00D091
:1045600098E0944A9349944BCB588021C90419434D
:10457000914BD1508F4A8F498F4BCB5880214902A4
:1045800019438D4BD1508D4B8C4A926BC0218900C1
:104590000A439A63894B894AD26BC02189000A4336
:1045A000DA63C046834A8349854BCB588021C900D2
:1045B0001943834BD1507B69DB78DBB20C229343E8
:1045C000DAB27B69DA707F4B1B68181CFA239900FA
:1045D000FCF73CF9031CFA2292005A433B681B018A
:1045E000101C191CFCF732F9031C1A1C3B1C12335B
:1045F0001A807B691B78DAB23B1C11331F218A4376
:104600001A703B1C12331A88F8235B0113401B12EB
:10461000DAB21F231340DAB23B1C11331B78134369
:10462000DAB27B691A703B1C12331B88DAB27B69E1
:104630005A707B690F229A727B6900229A707B699B
:1046400000229A717B6900221A727B6900225A72D9
:104650007B691B79DBB21F221343DAB27B691A71C3
:104660007B695B79DBB2402252421343DAB27B6949
:104670005A717B69DB78DAB27F231340DAB27B6947
:10468000DA707B69DB78DBB20C221343DAB27B6928
:10469000DA708AE0FB1D1B78012B02D0022B13D0AD
:1046A00025E0494BC02292001A60474BC02292007D
:1046B0005A60C0463F4A3F49414BCB5880210901CF
:1046C00019433F4BD15012E03F4B8022D2009A65F4
:1046D0003D4B8022D200DA65C046364A3549384B18
:1046E000CB58802149011943354BD150C046FB1DA1
:1046F0001B785A1E354B9200D358FB60FB68DB7861
:10470000DBB20C229343DAB2FB68DA702D4B1B68E4
:10471000181CFA23D900FCF799F8031CFA2292001E
:104720005A433B681B01101C191CFCF78FF8031C33
:104730001A1C3B1C12331A80FB681B78DAB23B1C34
:1047400011331F218A431A703B1C12331A88F82335
:104750005B0113401B12DAB21F231340DAB23B1C79
:1047600011331B781343DAB2FB681A703B1C123307
:104770001B88DAB2FB685A70FB6800229A70FB68EB
:1047800000229A71FB6800225A71FB68DB78DAB26A
:104790007F231340DAB2FB68DA70FB68DB78DBB2A8
:1047A0000C221343DAB2FB68DA70BD4606B080BD56
:1047B00000A0064000700440041000000090044077
:1047C000341000001CF0FF1F00D00440D858000037
:1047D00080B586B000AF0A1CFB1D011C1970BB1D03
:1047E0001A70224B3B61FB1D1B785A1E204B920016
:1047F000D358FB60FB1D1B78181C00F053F9031CF9
:10480000002B01D100232CE000237B611EE0FB1D67
:104810001B78002B0BD13B691B79DBB2DBB25BB29F
:10482000002B10DA3B69BA1D1278DA7112E0FB68CE
:104830001B79DBB2DBB25BB2002B04DAFB68BA1D7A
:104840001278DA7106E07B6901337B617A69094B82
:104850009A42DCD97A69074B9A4201D9002300E0D9
:104860000123181CBD4606B080BDC04600A006400E
:10487000D8580000BAFB000080B586B000AF021C1B
:104880003960FB1D1A702B4BFB60FB1D1B785A1EF9
:10489000294B9200D358BB60FB1D1B78181C00F0FD
:1048A00001F9031C002B04D13B6800221A7000237D
:1048B0003BE000237B6126E0FB1D1B78002B0FD122
:1048C000FB681B79DBB21A1C2023134018D03B1C59
:1048D0001333FA68D2791A703B6801221A7016E015
:1048E000BB681B79DBB21A1C2023134008D03B1C89
:1048F0001333BA68D2791A703B6801221A7006E045
:104900007B6901337B617A690C4B9A42D4D97A690D
:104910000A4B9A4206D93B1C1333FF221A703B689C
:1049200000221A703B1C13331B78181CBD4606B0BE
:1049300080BDC04600A00640D8580000BAFB000069
:1049400080B584B000AF021CFB1D1A70184BFB60D1
:10495000FB1D1B785A1E174B9200D358BB60FB1DE2
:104960001B78181C00F09EF8031C002B00D11CE0E3
:10497000FB1D1B78002B08D1FB68DB78DBB2202203
:104980001343DAB2FB68DA7007E0BB68DB78DBB2AE
:1049900020221343DAB2BB68DA70FB1D1B78064A8B
:1049A000D35C5BB2181CFFF7AFFDBD4604B080BD01
:1049B00000A00640D858000008F0FF1F80B586B060
:1049C00000AF021CFB1D1A70344B7B61FB1D1B7872
:1049D0005A1E334B9200D3583B61FB1D1B78181CA9
:1049E00000F060F8031C002B01D1002352E0FB1DF6
:1049F0001B78002B27D17B69DB78DAB27F23134049
:104A0000DAB27B69DA707B691B79D9B23B1C0F3350
:104A100020220A401A703B1C0F331B785B09DBB263
:104A2000DBB21A1C01231340DBB27A69D278D2B20E
:104A30005209D2B2D2B2111C01220A40D2B21340A2
:104A4000DBB2DBB226E03B69DB78DAB27F231340CE
:104A5000DAB23B69DA703B691B79D9B23B1C0F3380
:104A600020220A401A703B1C0F331B785B09DBB213
:104A7000DBB21A1C01231340DBB23A69D278D2B2FE
:104A80005209D2B2D2B2111C01220A40D2B2134052
:104A9000DBB2DBB2181CBD4606B080BD00A00640EC
:104AA000D858000080B582B000AF021CFB1D1A7000
:104AB000FB1D1B78022B01D9002300E00123181CE9
:104AC000BD4602B080BDC04680B582B000AF021CBA
:104AD000FB1D1A70064BFA1D1278111C1F220A408A
:104AE0000121081C9040021C1A60BD4602B080BD26
:104AF00000E100E090B587B000AFB9607A603B1C80
:104B00000E33021C1A80324A3149324BC9583B1CC1
:104B10000E331B8818330120041C9C40231C1943AE
:104B20002C4BD1502A4A2A492B4BCB58802149047F
:104B30001943294BD150264A2549274BCB58802170
:104B400049021943244BD1502448B968FBF77EFE33
:104B5000031C7B6105E03B6901333B617B695B08BA
:104B60007B617B69012BF6D83B1C0E331A881C4BEA
:104B70009200D3583A1C0E321188194A89008A587B
:104B800011683869072202400A4348210A431A6023
:104B90003B1C0E331A88124B9200D35800225A60E5
:104BA0003B1C0E331A880E4B9200D458B868FCF7A1
:104BB00039FE031C181C7968FCF774FB031C181CD5
:104BC000FBF78CFF031CA360BD4607B090BDC04639
:104BD000007004403C1000000410000080BB000086
:104BE0000CF0FF1FB0B588B000AF3960111C1A1C63
:104BF000BB1D18807B1D19703B1D1A7038685B49FE
:104C0000FBF738FF031C002B01D0584B3B60BB1D4A
:104C10001B881B0A9AB23B1C1F331A703B1C1E33A5
:104C2000BA1D12881A703B1C1F331A78504B920021
:104C3000D358BB613C1C1734BB1D19883A1C0F327A
:104C40003B1C0E33081C111C1A1C00F093FA031CA9
:104C500023703B1C1E331A783B1C1E331978BB692A
:104C60008900C9583B1C17331B781802E023DB006E
:104C700003401943BB699200D1507B1D1B78012B67
:104C800012D13B1C0F331B781A1C3A4B9200D3589D
:104C90003A1C0F321278111C364A89008A58126861
:104CA00020210A431A6011E03B1C0F331B781A1CA9
:104CB000304B9200D3583A1C0F321278111C2D4AF7
:104CC00089008A58126820218A431A603B1D1B788C
:104CD000002B0FD13B1C0F331B781A1C254B920065
:104CE000D2583B1C0E331B780133DB00D31828222B
:104CF0005A600EE03B1C0F331B781A1C1D4B9200B0
:104D0000D2583B1C0E331B780133DB00D31824220E
:104D10005A603B1C0F331B781A1C164B9200D35859
:104D20009B683B613B1C0F331B781A1C114B920094
:104D3000D4583B1C0E331B781D1C3869FCF772FDE0
:104D4000031C181C3968FCF7ADFA031C181C074932
:104D5000FCF7C4F8031C181CFBF7C0FE021C6B1CFC
:104D6000DB00E3189A60BD4608B0B0BD0000C84241
:104D7000E05800000CF0FF1FB0B584B000AF021C7B
:104D80003960BB1D1A8038681F49FBF773FE031C8E
:104D9000002B01D01C4B3B60BB1D19883A1C0B3209
:104DA0003B1C0A33081C111C1A1C00F0E3F93B1CC5
:104DB0000B331B781A1C154B9200D3589B68FB6071
:104DC0003B1C0B331B781A1C104B9200D4583B1C15
:104DD0000A331B781D1CF868FCF724FD031C181C03
:104DE0003968FCF75FFA031C181C0749FCF776F8D2
:104DF000031C181CFBF772FE021C6B1CDB00E31883
:104E00009A60BD4604B0B0BD0000C8420CF0FF1F60
:104E100090B587B000AF0A1CBB1D011C19807B1D1B
:104E20001A70BB1D1B881B0A9AB23B1C17331A70E1
:104E30003B1C1633BA1D12881A703B1C17331A78A4
:104E4000494B9200D3583B613C1C0F34BB1D198861
:104E50003A1C0E323B1C0D33081C111C1A1C00F0AE
:104E600089F9031C23703B1C16331A783B1C16333C
:104E700019783B698900C9583B1C0F331B7818020D
:104E8000E023DB00034019433B699200D1507B1DB6
:104E90001B78002B0FD13B1C0E331B781A1C334B95
:104EA0009200D2583B1C0D331B780133DB00D31822
:104EB00004225A6035E07B1D1B78012B0FD13B1C6F
:104EC0000E331B781A1C294B9200D2583B1C0D3311
:104ED0001B780133DB00D31808225A6021E07B1DC8
:104EE0001B78022B1DD13B1C0E331B781A1C1F4B49
:104EF0009200D2583B1C0D331B780133DB00D318D2
:104F000004225A603B1C0E331B781A1C174B92006C
:104F1000D2583B1C0D331B780133DB00D318082219
:104F20005A603B1C0E331B781A1C104B9200D15850
:104F30003B1C0D331B78181C3B1C0E331B781A1CB2
:104F40000A4B9200D2583B1C0D331B780133DB0017
:104F5000D3185B6840221A43431CDB00CB185A600D
:104F6000BD4607B090BDC046E05800000CF0FF1FE2
:104F7000F0B589B000AF3960BB1D011C19807B1DE5
:104F80001A7038685249FBF775FD031C002B01D0DD
:104F90004F4B3B60BB1D1B881B0A9AB23B1C1F3347
:104FA0001A703B1C1E33BA1D12881A703B1C1F332B
:104FB0001A78484B9200D358BB613C1C1734BB1D78
:104FC00019883A1C0F323B1C0E33081C111C1A1C8A
:104FD00000F0D0F8031C23703B1C1E331A783B1CD6
:104FE0001E331978BB698900C9583B1C17331B78DD
:104FF0001802E023DB0003401943BB699200D15043
:105000007B1D1B78002B0FD13B1C0F331B781A1C08
:10501000314B9200D2583B1C0E331B780133DB001E
:10502000D31814225A6026E07B1D1B78012B0FD168
:105030003B1C0F331B781A1C274B9200D2583B1C89
:105040000E331B780133DB00D31818225A6012E0AC
:105050007B1D1B78022B0ED13B1C0F331B781A1CB7
:105060001D4B9200D2583B1C0E331B780133DB00E2
:10507000D3181C225A603B1C0F331B781A1C164B8A
:105080009200D3589B683B613B1C0F331B781A1C62
:10509000114B9200D4583B1C0E331B781D1C3869F1
:1050A000FCF7C0FB061C38680949FBF717FF031C17
:1050B000301C191CFCF7F6F8031C181CFBF70EFD3E
:1050C000021C6B1CDB00E3189A60BD4609B0F0BD02
:1050D0000000C842E05800000CF0FF1F80B582B00D
:1050E00000AF021CFB1D1A70FB1D1B78022B02D99E
:1050F000FB1D02221A70FB1D1B78044AD35C5BB2B5
:10510000181CFFF7E1FCBD4602B080BD18F0FF1F80
:1051100080B582B000AF021CFB1D1A70FB1D1A780F
:10512000064B9200D3581A688023134001D0012304
:1051300000E00023181CBD4602B080BD0CF0FF1F2C
:1051400080B582B000AF021CFB1D1A70FB1D1A78DF
:10515000074B9200D358FA1D1178054A89008A58E6
:10516000126880210A431A60BD4602B080BDC04665
:105170000CF0FF1F80B586B000AFB9607A603B1CB1
:105180000E33021C1A803B1C0E331B880D2B54D08F
:105190000ADC042B27D002DC002B40D062E0052B78
:1051A00028D00C2B42D05DE0454A934214D0444AAB
:1051B000934208DC89225200934245D01422FF32E8
:1051C000934248D04EE081229200934219D082222D
:1051D000920093421CD045E0BB6800221A707B68A5
:1051E00000221A703EE0BB6800221A707B68012220
:1051F0001A7037E0BB6800221A707B6802221A70AE
:1052000030E0BB6800221A707B6803221A7029E024
:10521000BB6800221A707B6804221A7022E0BB6807
:1052200000221A707B6805221A701BE0BB680122FD
:105230001A707B6800221A7014E0BB6801221A7091
:105240007B6801221A700DE0BB6802221A707B682D
:1052500000221A7006E0BB6802221A707B680122E5
:105260001A70C0463B1C0E331B881B0A9AB23B1CAB
:1052700017331A703B1C16333A1C0E3212881A7000
:105280003B1C17331B78012B13D93B1C17331B789E
:10529000042B0ED03B1C17331B78022B0BD13B1C6D
:1052A00016331B78082B04D03B1C16331B78092BB4
:1052B00001D1032300E00423181CBD4606B080BDC5
:1052C0000102000080B586B000AFBB1D18807B1DB9
:1052D00019703B1D1A70BB1D19883A1C0F323B1CFC
:1052E0000E33081C111C1A1C00F0CAF83B1C0F33AB
:1052F0001B781A1C2A4B9200D3587B613B1C0F333E
:105300001B781A1C274B9200D3583B613B1C0E3371
:105310001B781A1C3B1C0E331B78191C7B698900F7
:10532000C958214B19407B699200D1503B1C0E3368
:105330001B781A1C3B1C0E331B78191C7B698900D7
:10534000CB588021490019437B699200D1507B1DC5
:105350001B78012B14D13B695A693B1C0E331B7817
:105360000121081C9840031C1A433B695A61BB1D6C
:105370001A883B1D1B78101C191C00F017F80CE054
:105380003B695B693A1C0E3212780121081C90407F
:10539000021CD2431A403B695A61BD4606B080BD2B
:1053A000F458000008590000FFF8FFFF80B584B0F2
:1053B00000AF0A1CBB1D011C19807B1D1A70BB1D90
:1053C00019883A1C0B323B1C0A33081C111C1A1C8E
:1053D00000F056F83B1C0B331B781A1C124B920042
:1053E000D358FB607B1D1B78012B0CD1FB681A681E
:1053F0003B1C0A331B780121081C9840031C1A43EC
:10540000FB681A600CE0FB681B683A1C0A321278D1
:105410000121081C9040021CD2431A40FB681A600C
:10542000BD4604B080BDC0460859000080B584B0B8
:1054300000AF021CBB1D1A80BB1D19883A1C0B3221
:105440003B1C0A33081C111C1A1C00F019F83B1CE9
:105450000B331B781A1C094B9200D358FB60FB6876
:10546000DA683B1C0A331B780121081C9840031C96
:105470001A43FB68DA60BD4604B080BD08590000DD
:1054800080B584B000AFB9607A603B1C0E33021C5B
:105490001A803B1C0E331B881B0A9BB2DAB2BB6816
:1054A0001A703B1C0E331B88DAB27B681A70BD463B
:1054B00004B080BD80B582B000AF00237B60FB1CD0
:1054C00000221A705B4A88235B010021D1505A4B9D
:1054D00014225A70584B98221A7000237B600AE0FD
:1054E000554B9B79DBB21A1C0223134000D006E017
:1054F0007B6801337B607A68504B9A42F0D9002375
:105500007B600AE04C4B9B79DBB21A1C10231340E2
:1055100000D106E07B6801337B607A68484B9A4291
:10552000F0D900237B600CE0434B9B79DBB21A1C63
:105530000C2313409B08022B00D106E07B6801334B
:105540007B607A683E4B9A42EED93B4B3A4A52799D
:10555000D2B220210A43D2B25A71374B364A12795D
:10556000D2B201210A43D2B21A71334B5B79DAB25B
:10557000FB1C1A70FB1CFA1C12781F218A431A703C
:10558000FB1CFA1C127840210A431A702A4BFA1CA1
:1055900012785A7100237B600AE0274B9B79DBB2BB
:1055A0001A1C2023134000D006E07B6801337B6087
:1055B0007A68234B9A42F0D900237B600AE01E4BA5
:1055C0009B79DBB21A1C4023134000D006E07B68B5
:1055D00001337B607A681B4B9A42F0D9154A1A4B0B
:1055E0001A49D150144B144A1278D1B23F220A40C2
:1055F000D2B21A7000237B600CE00F4B9B79DBB2B8
:105600001A1C0C2313409B08032B00D106E07B6877
:1056100001337B607A680A4B9A42EED9054A054904
:105620000B4BCB58F82189011943094BD150BD468A
:1056300002B080BD00700440004006401F4E0000D4
:10564000CF0700009F0F0000441000000000011071
:1056500038100000F0B5830746D0541E002A42D00F
:10566000CEB2031C032503E0621E002C3BD0141CA9
:1056700001335A1E16702B42F6D1032C2BD9FF256D
:105680000D402A0215432A0415430F2C15D9271C57
:10569000103F3F091E1C3A011036B6181A1C15603F
:1056A00055609560D5601032B242F8D101373F01A4
:1056B0000F22DB191440032C0DD9271FBF08BA0095
:1056C0001E1DB6181A1C20C2B242FCD10137BF0001
:1056D0000322DB191440002C05D01C19C9B2197023
:1056E0000133A342FBD1F0BD141C031CC5E7C04627
:1056F0000023C25C0133002AFBD1581E7047C0460C
:105700000D0ACBD5D6DDB4F3D1A7C7B6C8EBCABD59
:10571000CAB5D1E9CAD254504D2D696E6361702D5E
:105720006F7574636F6D70B9B9BCFEB2E2CAD4D341
:10573000C3C0FD21000000000D0ACAB1BCE4A3BA39
:10574000253032643A253032643A25303264000024
:1057500028100000DA0F000008100000620F00009F
:1057600008100000FE0F000008100000620F00008B
:10577000DA0F0000DA0F0000FE0F0000620F0000D9
:105780005A0F00005A0F00005A0F00000E100000C0
:10579000CC130000C6130000C6130000BC130000A9
:1057A0001C1300001C130000B2130000BC13000007
:1057B0001C130000B21300001C130000BC130000F7
:1057C0001A1300001A1300001A13000054140000EA
:1057D000341D0000221F0000221F0000141D0000C5
:1057E000FE1B0000FE1B0000061D0000141D000033
:1057F000FE1B0000061D0000FE1B0000141D000023
:10580000FC1B0000FC1B0000FC1B00002A1F00000A
:10581000CA3A0000003B0000003B0000EE3A0000E6
:10582000003B0000003B0000003B0000003B00008C
:10583000003B0000003B0000003B0000B83A0000C5
:10584000003B0000A63A0000003B0000003B0000C7
:10585000DC3A0000584000003444000034440000AA
:105860003444000034440000344400003444000058
:10587000344400003444000034440000D4410000AB
:105880001E430000AE3C000034440000003E000017
:105890003444000034440000AE3C000034440000B6
:1058A0003444000034440000344400001E4400002E
:1058B000A8410000004200003444000034440000CD
:1058C00044430000344400003842000034440000E7
:1058D000344400005840000000B0064000C00640BC
:1058E0000090044000A0044000B0044000C0044008
:1058F00000D004400090044000A0044000B00440E8
:1059000000C0044000D0044000F00F4040F00F40C1
:0C59100080F00F40C0F00F4000F10F408D
:08591C000CCFFF7F0100000029
:105924000000B442010000000C0D0E000080034092
:105934000090034000A0034011121300006CDC022D
:0400000300000801F0
:00000001FF
