:1000000000300020950A0000D90A0000D90A00003B
:1000100000000000000000000000000000000000E0
:10002000000000000000000000000000D90A0000ED
:100030000000000000000000D90A0000D90A0000FA
:10004000D90A0000D90A0000D90A0000D90A000024
:10005000D90A0000D90A0000D90A0000D90A000014
:10006000D90A0000D90A0000D90A0000D90A000004
:10007000D90A0000D90A0000D90A0000D90A0000F4
:10008000D90A0000D90A0000D90A0000D90A0000E4
:10009000D90A0000D90A0000D90A0000D90A0000D4
:1000A000D90A0000D90A0000D90A0000D90A0000C4
:1000B000D90A0000D90A0000D90A0000D90A0000B4
:10040000FFFFFFFFFFFFFFFFFFFFFFFFFEFFFFFFFD
:1008000000B5041C051C240A201CFF263540291CA9
:1008100000BDFFB5FFF7F4FF071C8E4C67438E4CFD
:100820003F190C1C04256C433F198C4C3D68254036
:100830008B4C25433D608B4C071C40267E43A419FE
:1008400001268E40012B04D125683543256000F038
:1008500004F8F643256835402560143401268E409F
:10086000012A04D125683543256000F004F8F643D9
:10087000256835402560FFBDFFB5FFF7C1FF051CAA
:1008800040266E43012B06D1774DAD1901268E40CF
:100890002E6000F005F8754DAD1901268E402E60D2
:1008A000FFBDFFB5FFF7ACFF051C40266E43704D42
:1008B000AD1901268E402C683440002C02D1002254
:1008C00000F001F80122FFBDFFB5FFF799FF051CFD
:1008D00040266E43674DAD19624CA4192768012666
:1008E0008E402E602768FFBDFFB5FFF789FF071C0C
:1008F000584C6743584C3F190C1C04256C433F1956
:10090000564C3D682540564C25433D60002B05D094
:10091000012B0AD0022B0FD000F010F8022425433F
:10092000554C25403D6000F009F802242543012480
:1009300025433D6000F002F8504C2540FFBDFFB557
:10094000FFF75EFF071C434C6743434C3F190C1CE9
:1009500004256C433F194A4C3D6825401E1CB601D6
:1009600035433D60FFBDFFB5FFF74AFF071C394C1B
:100970006743394C3F190C1C04256C433F19414C0B
:100980003D682543404C25401C1C240425433D6004
:10099000002805D0022816D0032814D000F024F82F
:1009A0003A4E3B4C371C3F193D680124A4072543B0
:1009B0003D600024371C3F193D680124A4072543EE
:1009C0003D6000F011F8314E314C371C3F193D6845
:1009D0000124E40725433D600024371C3F193D688E
:1009E0000124E40725433D60FFBDFFB5FFF708FF85
:1009F000071C184C6743184C3F190C1C04256C430A
:100A00003F19214C3D682540204E80243619356819
:100A1000002805D0022809D0032807D000F00AF8E2
:100A20000124A40725433560FFF7DEFF0124E40716
:100A300025433560FFBD0FB50122FFF7EAFE0FBD6C
:100A40000FB50122FFF718FF0FBD0FB5FFF73CFFF1
:100A50000FBD00000010000000900440FFF8FFFFF1
:100A60000001000000F00F4004F00F4008F00F40BC
:100A700010F00F400CF00F40FEFFFFFFFDFFFFFFE7
:100A8000BFFFFFFF00000001FFFFF0FF00E100E0FB
:100A90008001000072B600F033F862B609490A4AD4
:100AA0000A4B9B1A03DD043BC858D050FBDC0849B5
:100AB000084A521A03DD00208850043AFCDA00F09C
:100AC0000FF80000A00C000000F0FF1F00F0FF1F57
:100AD00000F0FF1F00F0FF1F00480047D90A000088
:100AE00072B606480023FFF7A6FF62B6052400256C
:100AF0000135AC42FCD1FFF7A8FFF7D10901000096
:100B000080B582B000AF00237B60FB1C00221A700E
:100B10005B4A88235B010021D1505A4B14225A7042
:100B2000584B98221A7000237B600AE0554B9B7942
:100B3000DBB21A1C0223134000D006E07B680133AD
:100B40007B607A68504B9A42F0D900237B600AE0C0
:100B50004C4B9B79DBB21A1C1023134000D106E0EA
:100B60007B6801337B607A68484B9A42F0D9002356
:100B70007B600CE0434B9B79DBB21A1C0C231340C7
:100B80009B08022B00D106E07B6801337B607A680A
:100B90003E4B9A42EED93B4B3A4A5279D2B220218F
:100BA0000A43D2B25A71374B364A1279D2B2012176
:100BB0000A43D2B21A71334B5B79DAB2FB1C1A705A
:100BC000FB1CFA1C12781F218A431A70FB1CFA1CAA
:100BD000127840210A431A702A4BFA1C12785A7173
:100BE00000237B600AE0274B9B79DBB21A1C202391
:100BF000134000D006E07B6801337B607A68234BAA
:100C00009A42F0D900237B600AE01E4B9B79DBB24D
:100C10001A1C4023134000D006E07B6801337B6040
:100C20007A681B4B9A42F0D9154A1A4B1A49D1508F
:100C3000144B144A1278D1B23F220A40D2B21A7031
:100C400000237B600CE00F4B9B79DBB21A1C0C235A
:100C500013409B08032B00D106E07B6801337B60C7
:100C60007A680A4B9A42EED9054A05490B4BCB5894
:100C7000F82189011943094BD150BD4602B080BD0E
:100C800000700440004006401F4E0000CF070000E7
:100C90009F0F0000441000000000011038100000F9
:0400000300000A955A
:00000001FF
