:1000000000300020110400005504000055040000D9
:1000100000000000000000000000000000000000E0
:100020000000000000000000000000005504000077
:100030000000000000000000550400009F61000067
:100040009F6100009F6100009F6100009F610000B0
:100050009F6100009F6100009F6100009F610000A0
:100060009F6100009F6100009F6100009F61000090
:100070009F6100009F6100009F6100009F61000080
:100080009F6100009F6100009F6100009F61000070
:100090009F6100009F6100009F6100009F61000060
:1000A0009F6100009F6100009F6100009F61000050
:1000B0009F6100009F6100009F6100009F61000040
:10040000FFFFFFFFFFFFFFFFFFFFFFFFFEFFFFFFFD
:1004100072B603F0C5FD62B609490A4A0A4B9B1A37
:1004200003DD043BC858D050FBDC0849084A521A87
:1004300003DD00208850043AFCDA02F0EDF90000F8
:10044000E862000000F0FF1F14F0FF1F14F0FF1F10
:10045000980800200048004755040000002934D0C7
:100460000123002210B488422CD301242407A14286
:1004700004D2814202D209011B01F8E7E400A14243
:1004800004D2814202D249005B00F8E7884201D3DE
:10049000401A1A434C08A04202D3001B5C082243B6
:1004A0008C08A04202D3001B9C082243CC08A04227
:1004B00002D3001BDC082243002803D01B0901D013
:1004C0000909E3E7101C10BC7047002801D0002088
:1004D000C04307B4024802A14018029003BDC046C1
:1004E000D90000000029F0D003B5FFF7B9FF0EBC1A
:1004F0004243891A1847C046002941D010B4041C51
:100500004C40A44601230022002900D5494200287E
:1005100000D5404288422CD301242407A14204D2B2
:10052000814202D209011B01F8E7E400A14204D292
:10053000814202D249005B00F8E7884201D3401AA9
:100540001A434C08A04202D3001B5C0822438C08CB
:10055000A04202D3001B9C082243CC08A04202D335
:10056000001BDC082243002803D01B0901D0090925
:10057000E3E7101C6446002C00D5404210BC7047D5
:10058000002806D003DB0020C043400801E08020A3
:10059000000607B4024802A14018029003BDC046FD
:1005A000190000000029EBD003B5FFF7A7FF0EBC30
:1005B0004243891A1847C0467047C0468446101CFB
:1005C00062468C46191C634600E0C0461FB500F029
:1005D00095F9002801D40021C8421FBD10B500F0D4
:1005E000C5F84042013010BD10B500F087F9002871
:1005F00001DB002010BD012010BDC04610B500F089
:100600007DF9002801DD002010BD012010BDC0468D
:1006100010B500F0F5F8002801DC002010BD012025
:1006200010BDC04610B500F0EBF8002801DA00203C
:1006300010BD012010BDC046002B11D1002A0FD1E2
:10064000002900D1002802D00021C943081C07B4AA
:10065000024802A14018029003BDC0465DFFFFFFA3
:1006600003B4684601B5029800F066F8019B9E4607
:1006700002B00CBC7047C04638B50E4B0C4A041C87
:100680000D1CFFF7CFFF002804D1201C291C00F00F
:1006900077FF38BD074B064A201C291C00F03CFCA4
:1006A00000F06EFF80231B06C018F2E7C046C0466C
:1006B000000000000000E04170B50E4B0C4A0D1C1C
:1006C000041C00F099F9FFF7D7FF061C00F08CFF1F
:1006D000094A0A4B00F090F9021C0B1C201C291C33
:1006E00000F01AFCFFF7C8FF311C70BDC046C046C1
:1006F000000000000000F03D000000000000F0419C
:10070000F0B583B0161C1F1C0090019100F0E0FFB3
:10071000041C0D1C221C2B1C301C391C00F0B6FFC5
:10072000009A019B121A8B410899201C0A604B60A9
:10073000291C03B0F0BDC046F0B583B0141C1D1CCD
:100740000090019101F0A0F9221C2B1C061C0F1C2B
:1007500000F09CFF009A019B121A8B410899301CF3
:100760000A604B60391C03B0F0BDC046F0B55F466F
:1007700056464D464446F0B40D1C041C8046E80F16
:10078000814618030F03000B3F0B83B084461B48C0
:10079000009749005E00DF0F490D9246760DBB467B
:1007A00081420CD01548864210D00120B14215D0AC
:1007B00003B03CBC90469946A246AB46F0BD009FB4
:1007C00001202743F4D10D488642EED16046024312
:1007D0000120002AECD10120B142E9D1009B634500
:1007E000E6D1D045E4D1D94506D00029E0D11C435B
:1007F000201C441EA041DBE70020D9E7FF070000D2
:10080000F0B55F4656464D464446F0B4CD0FDE0F78
:10081000AC461D032D0BB146374E0F034C00AB46C3
:100820005D0080463F0B640D92466D0DB44232D0A0
:10083000314EB54235D0002C0ED1384341424141B2
:10084000081C002D0BD0002919D1CC452DD06546B0
:1008500068420123184318E0002DF6D1281C5946A0
:100860000A4353425341002806D1002BEDD0634682
:1008700058420123184308E00020002B05D14A46C6
:10088000504250414042012318433CBC9046994697
:10089000A246AB46F0BD3E1C0643C9D002204042F2
:1008A000F3E75E461643C6D0F8E7AC4207DC0BDA46
:1008B000614648424841404201231843E5E7664605
:1008C000704201231843E0E75F450AD80ED00020AC
:1008D0005F45DAD2654668426841404201231843C9
:1008E000D3E76246504201231843CEE7D045F8D8FB
:1008F0000020D045EED3C8E7FF070000F0B556460C
:100900004D4644465F46F0B40D1C83B0041C019074
:10091000E80F814618030F03000B3F0B8446354850
:10092000009749005E00DF0F490D9246760DB846EC
:10093000814234D02F48864236D0002918D0002E6C
:100940001FD1341C67463A4353425341002C1FD0F9
:100950000020002B05D14246504250414042012325
:10096000184303B03CBC90469946A246AB46F0BD46
:100970000098044360426041041C002EE2D000282D
:10098000E9D1C14515D04F46784201231843E8E725
:10099000002BF6D04B46584201231843E1E7009F55
:1009A00002202743DDD1C5E7674602201743D8D18F
:1009B000C3E7B14204DD4A46504201231843D0E761
:1009C000B14207DB00986045E4D80AD0009F0020C0
:1009D0006745C6D24F4678427841404201231843CA
:1009E000BFE7019A5245D5D8019A00205245F1D36C
:1009F000B7E7C046FF070000F0B5564644465F46DD
:100A00004D46F0B41F1C0B031B0B9A464B0087B0DE
:100A1000041C80465B0DC80F161C02938146002BF8
:100A200068D0694B0299994232D0802253465203D2
:100A30001A43D200630F1A439246644AE0008918B1
:100A400080460291002400253B031B0B9B46780047
:100A5000FB0F321C400D039300D175E05A4B9842B6
:100A600069D08022594652030A43730FD2001A43B9
:100A7000564B9346C018F200002303994E4671402E
:100A80001C430F2C00D9A9E0514EA4003459A746AD
:100A900053461C4300D087E00025AA46A8460824F8
:100AA0000225D1E74946022D6CD0032D00D117E273
:100AB000012D00D058E10D40EDB20024A9460023DD
:100AC000A0460020002125030A0D1C052D0B120550
:100AD000404B2A43134023435B004C465B08E2072C
:100AE000191C4046114307B03CBC90469946A246AB
:100AF000AB46F0BD5346234350D05346002B00D1A4
:100B000084E1504600F0A4FD031E272B00DD76E1B2
:100B100028210D1A211C083B5246E9409A400D1C21
:100B20001543221C9A40AA4690462B4B00241B1AC0
:100B30000293002588E75B461E430323002E9CD1C9
:100B4000B3460022022398E75B46334321D0584640
:100B5000002800D14EE100F07BFD272800DD42E1B6
:100B600028210F1A021C311C083A5B46F9409340B9
:100B70000F1C1F43331C9340BB461A1C164B181AFC
:100B800000237AE701230B4000249946A0460E4B30
:100B900097E70027BB46002201236EE700210424CB
:100BA0008A46884601254FE70C2403254CE700259B
:100BB0008024A9462403A846034B82E7DA469046E0
:100BC00003991D1C6FE7C046FF07000001FCFFFFF3
:100BD000245E0000FFFF0F800DFCFFFF029F160C3C
:100BE000381804904046070C0004000C1204120C44
:100BF000031C5343041C3D1C7443554398463B1C43
:100C000073436419A44644460293230C63449D42F3
:100C100004D9029D802464022D1902951D0C0395B0
:100C200045462C041B04240C1C1905945C46230C1B
:100C3000051C58432404240C8446381C6043654337
:100C40005F438146CC44280C6044BB46814502D9B1
:100C500080277F02BB442D04070C2D0C0004401993
:100C60005546BC462F04E3448446280C3D0C2F1CFB
:100C70005743B8462F1C77434243B94647463F0C7B
:100C80009144BA46D14446434A4502D98022520291
:100C9000B6184F463A0CB6183A0447463F043F0C84
:100CA000B8462F1C67435D43444358436519019080
:100CB000380C2D184244B846AC4204D90198802320
:100CC0005B02C0180190039C029F201C6044C01965
:100CD0006045A44147466442A4462B043C0499461F
:100CE000240C4C44A046D8448018C246E2449042AA
:100CF0009241574652429146F219E245BF417F4226
:100D00004B46BC46D845BF41D4187F4263461F437B
:100D10002D0C7F19B24292414C45AD4152426D4279
:100D20001543019E7D19AB19E20D5B02059F13432C
:100D300042023A439A46531E9A41C30D101C18436F
:100D40006402204380465046C0010DD5454601222D
:100D50005646049C6B082A401A43F30701341A4391
:100D6000760804949046B246049E634FF319002B14
:100D700061DD404640070BD00F2244462240042A42
:100D800006D0424604324245804140428244904669
:100D90005546ED0107D5594B5646049F80201E400D
:100DA000C000B2463B18564A934200DDEAE644468C
:100DB0005546E2086807104301226C025B050A40B1
:100DC0008046240B5B0D91467BE6DA4690461D1C5F
:100DD00069E680242403574627421CD13C43240360
:100DE000240B484B6DE6031C283B311C99408B4675
:100DF0000022C3E6301C00F02BFC2030ADE6283B7F
:100E0000211C994000228A4690468EE6201C00F064
:100E10001FFC203078E65846204207D1044303994E
:100E20002403240B89469046364B4AE63C43240370
:100E3000240B344B45E6344B049E9B1B382B06DDBC
:100E400001230B4000249946A046002339E61F2BBE
:100E500025DC049C2D4D464660195246444686408A
:100E6000DC4082405746301C2243DF40441EA041F4
:100E700002433B1C540709D00F201040042805D022
:100E8000101D9042924152429B18021C1D021AD51D
:100E900001230B4000249946A046012311E61C487B
:100EA000049C5546001BC540281C202B16D0194E0B
:100EB0005746A21997403A1C43461A43531E9A417B
:100EC00002430023D6E758075B02D2081C0B01231C
:100ED0000B401043994680460023F2E50022EBE7E1
:100EE0008024240350460123044319402403240B87
:100EF0008946044BE5E5C046FF030000FFFFFFFE07
:100F0000FE070000FF07000002FCFFFF1E040000B8
:100F1000E2FBFFFF3E040000F8B55F46564644463C
:100F20004D46F0B40C034D00CF0F610A440F21432E
:100F3000C4001803DE0F8046B44646465800760AC1
:100F4000530F3343D600D14A6D0DBA46400DB34618
:100F5000904200D1F5E06246012672409446674512
:100F600000D1ABE02F1A002F00DC11E100283ED1A8
:100F70005846184300D0F1E0600700D197E00F23F6
:100F80002340042B00D122E1221DA242A44164424D
:100F9000802309191B04012750460B400740141CED
:100FA000002B00D179E0B94B01359D4200D10BE116
:100FB000B74BE40819404807490204430B0B0020D3
:100FC00000211B031A0B0B0D6D051B0513436A084B
:100FD000B04DFF071D4015436D006D08291C3943B6
:100FE000201C3CBC90469946A246AB46F8BDA7489B
:100FF0008542C1D0802000040343382F00DDFDE08E
:101000001F2F00DD31E12020C01B1A1C5E468240EC
:10101000FE40324394465A468240101C421E904184
:10102000FB40624602431F1CA21A9442A441644240
:10103000C91B091B141C0A029ED549024F0A002F26
:1010400000D1D6E0381C00F003FB021C083A1F2A2E
:1010500000DDC3E02821231C091A9740CB401F4321
:101060009440954200DDC0E0551B691C1F2900DD3E
:10107000EAE01F22551B3B1C221CAB40CA40AC407F
:10108000651EAC411343CF401C43391C002573E758
:1010900080217E4D0027C90300247C4B4807E408CB
:1010A0000443C9089D4250D009030B0B87E78023F6
:1010B0001B04012752460B40174071E72A1A944639
:1010C000002A00DCA1E0002854D07048854200D1FD
:1010D00052E78020000403436046382800DD0EE11B
:1010E0001F2800DD57E162462020801A1E1C864022
:1010F000B1465E46D6404A4632435E4686409046FA
:10110000301C421E9041424602436046C3401219C1
:10111000A242A441644259180919141C080200D4BF
:101120002AE75A4B01359D4200D131E1584B600806
:101130001940012323401C1C0443CB071C434908CE
:101140001AE71E4300D00AE705E7231C0B433BD0F8
:1011500080231B030B431B031B0B30E7013F002FB6
:101160006DD15E46A21B9442A4416442C91A091B78
:10117000141C60E75846184300D1FDE6012676426C
:10118000B4446046002800D0D0E05E463219BFE784
:10119000002F00D080E0681C4005400D012800DCD5
:1011A000E8E05A46A21A9442BF41C81A7F42C71BC0
:1011B0003E0200D498E05846041BA3459241591AB8
:1011C00052428F1AE2463AE700230024F7E68023D2
:1011D0001B04012756460B403740E1E6271C283800
:1011E00087400024954200DC3EE72949AD1A39408A
:1011F000C2E6201C00F02CFA203026E75A461A439B
:10120000531E9A41D2B200270EE7002A00D0DEE03A
:10121000681C4605760D012E00DC90E01B4DA842AF
:1012200000D1F5E05E463219A242A4416442591849
:101230000919CC07520814434908051C9CE61348B9
:10124000854200D0D9E697E62B1C1F3B3E1CDE40B2
:10125000331C20296FD03F22551BAF403C43601EFA
:1012600084411C430021002586E6381C20381E1CC2
:10127000C640301C202F60D04022D71BBB405A46AE
:101280001A43531E9A4102430027CDE6FF07000090
:10129000FFFF7FFFFFFF0F80002D37D0B64DA84224
:1012A00000D18FE080252D047F422943382F00DDB7
:1012B000A8E01F2F00DD24E12025ED1B0E1CAE4011
:1012C000B046261CFE404246AC401643651EAC416B
:1012D0003443F9405A46141BA34592415B1A5242CB
:1012E000991A051CE246A6E6131C3B43141C002B6E
:1012F00000D0A4E60027002100250024CDE65A46B0
:101300001A43531E9A41D2B2002300E70D1C254315
:1013100058D0FF43002F51D15A46141BA345924188
:10132000591A5242891A051CE24684E692488542BF
:1013300000D0D1E620E6002790E700239FE7081CB5
:101340002043002D00D0C2E0002800D1EFE0584635
:10135000184300D110E658460219A242A441644243
:1013600059180919141C0A0200D405E6834B0125FB
:10137000194001E6081C2043002D38D100286FD108
:101380005946194303D0191C5C46E246F4E5002790
:101390000021002481E6604620381A1CC2406646BF
:1013A000101C202E00D1AAE04022921B93405A46E6
:1013B0001A43531E9A4102430023A8E66E4DA842E9
:1013C00000D073E7191C5C46051CE246D4E5002DED
:1013D00022D10D1C254376D0D543002D70D15C441D
:1013E0005C459241591852428918051C96E600281E
:1013F0004CD15946194300D14AE6191C5C46E246D5
:101400005D4DB9E50C43611E8C41E4B2002161E7FA
:10141000051C0021002440E6574DA84253D05542F8
:10142000802216043143382D7BDC1F2D00DD8CE03B
:101430002022561B0A1CB446B240261CEE40324302
:10144000904662469440661EB44142461443E940C9
:101450005C445C459241CB1852429918051C5DE6EC
:101460005846184300D187E55E46A71BBC4292410F
:10147000C81A5242801A060260D55846041BA3457A
:101480009241591A5242891AE24675E55846184364
:1014900033D04807E40804438020C9080003014210
:1014A00008D0DD08054205D15946CA085C07144337
:1014B000291CE246630FC9001943E4002E4D5BE589
:1014C0002D4A9042AFD1191C5C46051C54E50028FA
:1014D00030D05846184310D080254807E408C90882
:1014E0002D0304432942E5D0D8082842E2D15D46C5
:1014F000EA085C071443011CDCE71F4D3CE50023B0
:1015000055E73D1C203D0E1CEE40351C202F2ED0F3
:101510004026F71BB9400C43611E8C412C4300212F
:10152000D8E60C43611E8C41E4B2002190E7191CFF
:101530005C4621E5191C5C460F4D1DE5031C3B4331
:1015400000D124E7011C3C1C16E5202676427619C2
:101550000A1CF2409046202D0BD04026751BA94056
:101560000C43611E8C4145462C43002170E700214D
:10157000D1E70021F4E7C046FF070000FFFF7FFF2F
:1015800070B50B1C124C09030E0B5900021C490DBF
:10159000DD0F0020A14211DD0E4881420FDC8020CA
:1015A000400306430C48401A1F280BDD0B4A521A11
:1015B000D640321C5042002D00D1101C70BD084B8B
:1015C000E818FBE7074BC240C9188E403243F1E7E9
:1015D000FE0300001D04000033040000130400009B
:1015E000FFFFFF7FEDFBFFFF10B5041E28D000F0CA
:1015F0002FF8154A121A0A2815DD0B3884402403E7
:101600005205240B520D0023002000212403181C36
:101610000B0D240B1B0523430C4C12051C401443DB
:101620006400610810BD031C1533211C99400B1C7C
:101630000B21081AC44024035205240B520DE3E782
:10164000002200240023DFE71E040000FFFF0F80BC
:101650001C2101231B04984201D3000C10391B0AE2
:10166000984201D3000A08391B09984201D30009A6
:10167000043902A2105C40187047C04604030202FD
:101680000101010100000000000000009C4603046D
:10169000F0B51B0C17043F0C150C1E1C041C000C91
:1016A0007E436B4347434543FB18300C1818874271
:1016B00002D980235B02ED18030CED1863465C43EE
:1016C0004A433604360CA118000480194919F0BDAC
:1016D000F0B544465F4656464D46F0B41C1C85B0F6
:1016E000002900DADBE00F1C0021061C8A46101CD2
:1016F000191C002C00DAC9E001960090894680464A
:10170000002951D1B84200D871E0FFF7A1FF0028AD
:1017100009D020234546311C1B1A85408740D940FB
:10172000A8460F4386404246150C13041B0C291C87
:10173000381C9B46FEF792FE5B464343041C291C63
:10174000381C9946FEF7CEFE330C08041843814539
:1017500009D94044631E804500D978E1814500D80D
:1017600075E1023C40444946411A8946081C291C3F
:10177000FEF774FE5A464243071C291C484693460E
:10178000FEF7B0FE36040904360C0E43B34507D904
:1017900046447B1EB04502D8023FB34500D81F1C0B
:1017A00024042743002403E0B94211D90024002770
:1017B0005246381C211C002A03D03B1C00215842F1
:1017C000A14105B03CBC90469946A246AB46F0BD4F
:1017D000081CFFF73DFF041E00D0BFE0B94500D252
:1017E00042E1019D0099071C8D424741E0E7002836
:1017F00004D101200021FEF731FE80464046FFF76C
:1018000027FF002852D1414644460B043C1B1B0CC9
:10181000A3460D0C00930124291C5846FEF71EFE1A
:10182000009F81464743291C5846FEF75BFE330C58
:10183000090419438F4208D94B464144013B88456E
:1018400002D88F4200D91AE19946C91B8B46081C61
:10185000291CFEF703FE009B291C4343071C584626
:101860000093FEF73FFE3604009D0904360C0E433C
:10187000B54207D946447B1EB04502D8023FB54267
:1018800000D81F1C49460E04374391E75246D24305
:10189000031C0C1C924600215842A1412CE7002752
:1018A00046428F41012149428A4620E720231B1AE4
:1018B0004246351C82403C1CDD40DC4087402B1CEE
:1018C000150C3B43291C8640201C009317049046AE
:1018D000FEF7C4FD3F0C011C794381468B46201C5A
:1018E000291CFEF7FFFD009C0904230C19438B45BE
:1018F0000CD94B464144013B884500D9BDE08B459E
:1019000000D8BAE002225242914441445C460C1B8A
:10191000201C291C0194FEF7A1FD391C4143041C25
:101920008B460198291CFEF7DDFD009A090413047B
:101930001B0C19438B4509D94144631E884500D9C6
:1019400097E08B4500D894E0023C41445B46CB1ABB
:1019500049469B460B041C4300975DE7009D2023EE
:101960001B1A4A468240DD401543391C009AD94073
:1019700082408846311C0092D9403A1C82400B1CA0
:10198000134301932F0C2B041B0C391C404602936C
:10199000FEF764FD029A81464243391C4046934655
:1019A000FEF7A0FD019A0904130C19438B450AD9CF
:1019B0004B464919013B8D425DD88B455BD90223CB
:1019C0005B42994449195A468A1A101C391C0392E1
:1019D000FEF744FD029B80464343391C03989B4617
:1019E000FEF780FD019A090413041B0C19438B4573
:1019F0000AD943464919013B8D4238D88B4536D91F
:101A000002235B42984449195D464D1BAB4649464B
:101A1000009D0F04424617432A04120C3B042D0C70
:101A20001B0C380C111C594342436B436843D318B9
:101A30000D0C5B198C469A4202D980225202801802
:101A40001D0C401983450CD303D00024B0E61C1CA8
:101A500089E665462A041B04120C9B18A6409E4288
:101A6000F3D2013F0024A3E600240127A0E6984614
:101A7000CAE71C1C6AE79946A5E7994646E7022291
:101A8000524291444144E0E6F0B55F4656464D4629
:101A90004446F0B40D1C85B0061C92469846029050
:101AA000019103921F1C141C8346A946002B59D197
:101AB000AA4269D9101CFFF7CBFD00280AD02023C9
:101AC0001B1A311CD94085400B1C2B438640844097
:101AD0009946B346250C23041B0C291C48469846FE
:101AE000FEF7BCFC4646071C4643291C4846FEF749
:101AF000F9FC5A460904130C19438E4209D90919F5
:101B00007B1E8C4200D957E18E4200D854E1023F3F
:101B10000919891B8946081C291CFEF79FFC4346AE
:101B20004343061C291C48469846FEF7DBFC5A46F0
:101B3000130409041B0C1943884508D90919731E9D
:101B40008C4200D936E1023E884500D832E13804A3
:101B500030430027391C05B03CBC90469946A2464C
:101B6000AB46F0BD019A934262D8181CFFF770FD96
:101B7000041E60D1019B9F4200D22CE1029F039979
:101B80008F4260410027E5E7002A04D101200021AF
:101B9000FEF764FC041C201CFFF75AFD002800D04F
:101BA000B9E023042D1B1B0CA946260C98460127DF
:101BB000311C4846FEF752FC41464143051C8A460B
:101BC0004846311CFEF78EFC5A460804130C184395
:101BD000824507D900196B1E844202D8824500D97C
:101BE00010E11D1C5346C31A181C311C9A46FEF7FF
:101BF00035FC41464143814688465046311CFEF73C
:101C000071FC5A46130409041B0C194388450BD96F
:101C10004B460919013B8C4200D9CFE0884500D8DA
:101C2000CCE002235B42994428044946084391E7EB
:101C3000002700208EE720231B1A42465746824089
:101C4000DF401743524682400192321CDA40291C81
:101C5000D9408540131C2B4302933D0C3B041B0CC5
:101C60008846081C291C9A46FEF7F8FB5346434356
:101C70008146291C40469B46FEF734FC029A090423
:101C8000130C19438B4506D94B46C919013B8F42AA
:101C900000D8ABE099465A468A1A101C291C934674
:101CA000FEF7DCFB53464343291C804658469A46C0
:101CB000FEF718FC029A090415042D0C29438A45E5
:101CC00006D94346C919013B8F4200D886E09846A1
:101CD0005746CF1BBA464946019F08044246104367
:101CE0003D042D0C03043F0C1B0C020C291C594312
:101CF00055437B437A43EB180F0CDB198C469D420E
:101D000002D980277F02D2191D0C521992455FD348
:101D100056D000271EE720231B1A311C2F1CD94048
:101D2000DF4085400B1C84402B4386400193B34623
:101D30002304260C1B0C381C311C9846FEF78EFB26
:101D400042464243051C311C381C9146FEF7CAFB33
:101D5000019F09043B0C1943894507D909196B1EDA
:101D60008C424DD889454BD9023D09194A468A1AF9
:101D7000101C311C9246FEF771FB43464343071C7F
:101D8000311C50469946FEF7ADFB019A0904130435
:101D90001B0C1943894507D909197B1E8C422DD884
:101DA00089452BD9023F09194B46CB1A2D04994678
:101DB0002F43FDE61E1CCAE61F1CAAE6994633E720
:101DC00061460A041B04120C9B18A6409E42A0D236
:101DD00001380027BEE600270120BBE68A4500D86F
:101DE00075E702235B429844C91971E78B4500D817
:101DF00050E702235B429944C9194CE71F1CD3E703
:101E00001D1CB3E7023D0019ECE6C04680B582B068
:101E100000AF064B1B687B607B68DB6B3B603B68FD
:101E200083F30888BD4602B080BDC04610F0FF1F96
:101E3000B0B582B000AF031C0A1C7B603B601C1C69
:101E4000032A00D8A4E0181C0121014007D07B60C0
:101E50007B68591C7960002119707B68013A181C55
:101E60000221014007D03B603B68991C396000218A
:101E700019803B68023A1C1C950940E0231C1C1D7C
:101E800000211960231C1C1D00211960231C1C1D2E
:101E900000211960231C1C1D00211960231C1C1D1E
:101EA00000211960231C1C1D00211960231C1C1D0E
:101EB00000211960231C1C1D00211960231C1C1DFE
:101EC00000211960231C1C1D00211960231C1C1DEE
:101ED00000211960231C1C1D00211960231C1C1DDE
:101EE00000211960231C1C1D00211960231C1C1DCE
:101EF00000211960231C1C1D00211960013D002DCB
:101F0000BCD191080F230B400F2B40D89900294BCF
:101F1000CB181B689F46231C1C1D00211960231C25
:101F20001C1D00211960231C1C1D00211960231C8D
:101F30001C1D00211960231C1C1D00211960231C7D
:101F40001C1D00211960231C1C1D00211960231C6D
:101F50001C1D00211960231C1C1D00211960231C5D
:101F60001C1D00211960231C1C1D00211960231C4D
:101F70001C1D00211960231C1C1D00211960231C3D
:101F80001C1D00211960231C1C1D00211960231C2D
:101F90000221114006D03B603B68991C396000214A
:101FA00019803B6801210A4001D000221A70BD4609
:101FB00002B0B0BD645E000080B584B000AF786050
:101FC00039607A683B68101C191C02F081F9031C07
:101FD000FB60FB68002B01D1FFF718FFFB68181CA2
:101FE000BD4604B080BDC046F0B5474680B484B05D
:101FF00000AFF860B9607A60FB6819685A68BB681E
:102000005C681B685B1854417A6813605460FB6815
:102010009E68BB689D68114B1A68A4235B00D15869
:1020200088464246531BB3420FD87B6819685A68EA
:10203000012300245B1854417A68136054604146C0
:102040006B1A9A197B689A6002E072197B689A6031
:10205000BD4604B004BC9046F0BDC04610F0FF1F62
:10206000F0B5474680B484B000AF7860164B1B686B
:10207000FB60FA68A4235B00D6587B689B68B34278
:102080001DD37B689B68181C311CFEF7E7F9031C05
:1020900098467B681A685B68444600210D1C101C3A
:1020A000191C00196941031C0C1C7A6813605460E8
:1020B0007B689A6843467343D21A7B689A60BD4630
:1020C00004B004BC9046F0BD10F0FF1F80B586B090
:1020D00000AF244B1B68FB60FB685533FF33BB60CC
:1020E000BB68DB687B617B69072B05D907237B61B4
:1020F000BB680722DA6007E07B69002B04D101236B
:102100007B61BB680122DA607B699BB2DB019AB21A
:10211000FF2313409AB2FB68DA8200233B6108E098
:10212000114B3A69C03292000021D1503B69013312
:102130003B613B69072BF3D90C4B7B6000233B6170
:1021400009E03B699B007A68D318012252421A6069
:102150003B6901333B613B69002BF2D0BD4606B0C1
:1021600080BDC04610F0FF1F00E100E080E100E00C
:1021700080B584B000AF274B1B687B607B68002272
:102180001A627A68C823D35802333B60224BFB6043
:102190003B68BB602FE0FB68FA681A60FB68FA686E
:1021A0005A60BB689AB2FB68DA817A68B0235B0038
:1021B000D258BB68D318002B10D17A68B0235B00CB
:1021C000D3589AB2BB689BB2D3189BB2DB019AB2C8
:1021D000FF2313409AB2FB689A8102E0FB68002259
:1021E0009A817B681A6AFB689A60FA68131C10333C
:1021F000FB607B681A62BB685A1EBA60002BCAD1AA
:102200007B681A6A7B685A620023181CBD4604B0BA
:1022100080BDC04610F0FF1F80F4FF1F80B588B05E
:1022200000AFF860B9607A603B600123FB617B68B6
:10223000013BBA68D3180F229343BB61BB695C3B77
:102240007B61FB68BA691A61BB680F330F22934345
:102250001A1CFB689A61FB687A695A617B69181CD1
:102260005C21FFF7E5FD0C4A7B699A637B69FA6A9A
:102270005A623B685B6801221A437B69DA637B69B7
:10228000802252041A647B69FA6A1A65FB69181C79
:10229000BD4608B080BDC046B151000080B582B0D7
:1022A00000AF7860BD4602B080BDC046B0B582B018
:1022B00000AF021C3960FB1D1A70FB1D1B787F2BC1
:1022C00032D93049FB1D1B781A1C0F231340083BE1
:1022D00098082C4AFB1D1B781C1C0F232340083B2D
:1022E0009B0806339B00D3185B68FA1D1278141CF8
:1022F00003222240D200FF24251C95402A1CD243F1
:102300001A403B689C01FF231C40FB1D1B781D1CD1
:1023100003232B40DB00251C9D402B1C1A43831DEF
:102320009B00CB185A6029E0174BFA1D127852B265
:1023300092081549F81D007840B28008C03080002E
:102340004158F81D0078041C03202040C000FF24E1
:10235000251C8540281CC043084039688C01FF219A
:102360000C40F91D09780D1C03212940C900251CCA
:102370008D40291C0143C0329200D150BD4602B0AD
:10238000B0BDC04600ED00E000E100E090B583B0D4
:1023900000AF224B1C688023DB01181C02F0CCFA32
:1023A0000F202F21FFF708FE031C7B607B68002BAA
:1023B00001D07B682DE00F2003F0BAFA184B0F20F4
:1023C000191C002201F042FF031C002B01D126231F
:1023D0001FE000F02BF8114B1C68124B1B68181CF7
:1023E000C8235900FEF73AF8031C1A1CA2235B000D
:1023F000E250A0235B00C822E250A2235B00E35816
:10240000181C03F0B9FA084B181C002103F0A0FABD
:102410000023181CBD4603B090BDC04610F0FF1F3E
:10242000712400000CF0FF1F8524000098B500AF58
:102430000D4B00221A600C4B00229A600A4C0B4B89
:102440001B68181CC821FEF709F8031C013B6360D8
:1024500001235B42181C0021FFF728FF024B0722D3
:102460001A60BD4698BDC04610E000E00CF0FF1FAA
:1024700080B582B000AF786003F08AF9BD4602B043
:1024800080BDC04680B586B000AF786000233B6158
:10249000124B5B681B021B0A0133FB600F4B9B68EE
:1024A0001B021B0A7B610E4B5A688023DB0413401E
:1024B00006D00A4B9B681B021B0A7B61FB683B61D1
:1024C0007B69002B01D1FB687B61FA687B69D21ABA
:1024D0003B69D318181CBD4606B080BD10E000E073
:1024E00000ED00E080B582B000AF78601423FF33C8
:1024F000181C01F0E3F9054B181C01F0A5F9C823DD
:102500009B00181C03F0D8F8F0E7C046805D00007F
:1025100080B582B000AF7860C82003F0CDF8892381
:102520005B00181C01F0CAF9044B181C01F08CF96F
:10253000C8239B00181C03F0BFF8F0E7945D00006F
:1025400080B582B000AF7860C8235B00181C03F030
:10255000B3F80A23FF33181C01F0B0F9044B181C20
:1025600001F072F9C8239B00181C03F0A5F8F0E7EE
:10257000AC5D000080B584B000AF7860194B181CCA
:1025800040210022002302F093F9174B1B780133FE
:10259000DAB2154B1A70144B1B78144A101C191C14
:1025A00001F052F90023FB600BE0114AFB68D318DD
:1025B0001B78104A101C191C01F046F9FB68013306
:1025C000FB600B4B5B78DA1CFB689A42EDDC0A4B34
:1025D000181C01F039F9034B181C402101F06CFF65
:1025E000CCE7C046E8FDFF1F78030020C05D000077
:1025F00014030020E45D0000E85D000080B584B0B5
:1026000002AF7860294B181C002101F043FF284BD2
:1026100000221A7072B61423FF33181C012101F036
:1026200037F989235B00181C012101F031F90A23D5
:10263000FF33181C012101F02BF996239B01022086
:10264000191C01F05FF91B4BA1229200009200209F
:102650000221002202F022FB174BA12292000092DD
:1026600000200321002202F019FB144BA12292004A
:10267000009200200421002202F010FB104BA12246
:102680009200009200200521002202F007FB0D4B72
:102690001E20191C002201F0D9FD022001F038FB98
:1026A00062B603F058FDBD4602B080BDE8FDFF1FD5
:1026B000780300200CFEFF1F7C0300209000002008
:1026C00000060020C926000090B585B000AF7860F4
:1026D0003B1C0E3301221A703C1C0F343B1C0E3382
:1026E0000220191C01F0B0FA031C23703B1C0E33AE
:1026F0001B78002B16D03B1C0F331B780220191CB3
:1027000001F04EFA3B1C0F331A78084B101C191CB1
:1027100000F010F8031C002B04D0054B181C4021BE
:1027200001F00AFFBD4605B090BDC046140300206D
:10273000E8FDFF1F80B584B000AF021C3960FB1DAF
:102740001A703B1C0F3300221A70324B1B78002B7F
:1027500002D0012B14D01FE0FB1D1B78412B0ED1A2
:102760003B68FA1D12781A702A4B1B780133DAB2D3
:10277000284B1A703B1C0F3300221A7043E042E0D2
:102780003B680133FA1D12781A70224B1B78013313
:10279000DAB2204B1A7036E01E4B1B78012B16D98B
:1027A0001C4B1B781A1C3B6801331B7801339A427F
:1027B0000DDC184B1B783A68D318FA1D12781A7082
:1027C000144B1B780133DAB2124B1A701BE0114B19
:1027D0001B781A1C3B6801331B7802339A4212DBC8
:1027E000FB1D1B78442B0AD10A4B1B783A68D3187F
:1027F000FA1D12781A703B1C0F3301221A70054B18
:1028000000221A70C0463B1C0F331B78181CBD46B3
:1028100004B080BD14F0FF1F80B500AF044B181C3E
:1028200002F068F902F0CAF90023181CBD4680BD09
:10283000A45E000080B582B000AF021CFB1D1A70C0
:10284000FB1D1B780220191C01F0AAF9BD4602B03D
:1028500080BDC04680B584B000AFF860B9607A60D2
:102860007B681B68012B02D0022B08D012E07B682A
:102870005B68FA68D2B252B2101C98470AE07B68D3
:102880009B68FA68D2B21A707B689B685A1C7B6896
:102890009A60C046BB681B685A1CBB681A60BD467C
:1028A00004B080BD00000000F0B5A7B000AFF86034
:1028B000B9607A603B1C5C3300221A6000225A60C7
:1028C00000229A600022DA6000221A613B1C103359
:1028D0001A1C4C23101C00211A1C03F041FA00237F
:1028E0009421C9190B60002300248022D21913609F
:1028F0005460FB685C681B68181C211CFDF7BCFE5B
:10290000031C9421C9190B60FB681D685E68942242
:10291000D2191068FEF768FE031C0C1C281C311C21
:102920001A1C231CFEF7F8FA031C0C1CBB67FC677F
:102930007B68002B24D1FB681D685E689423DB193B
:102940001868FEF751FE031C0C1C281C311C1A1CB5
:10295000231CFEF7E1FA031C0C1C181C211CB34BB2
:10296000B14AFEF749F8031C0C1C181C211CFDF78A
:10297000A3FE031C0C1C8021C9190B604C6019E0DC
:1029800009E0B86FF96FAA4AAA4BFEF735F8031CA5
:102990000C1CBB67FC677B685A1E7A60002BF0D169
:1029A000B86FF96FFDF788FE031C0C1C8022D2194A
:1029B00013605460FB681D685E689423DB19186817
:1029C000FEF712FE031C0C1C281C311C1A1C231CB5
:1029D000FEF7A2FA031C0C1C3B677C6700238821CE
:1029E000C9190B6010E0386F796F914A914BFEF76F
:1029F00003F8031C0C1C3B677C678822D219136800
:102A000001338821C9190B60386F796F8A4A8B4B63
:102A1000FDF7EAFD031C002BE5D18822D2191368CB
:102A2000013B8821C9190B6000239022D219136041
:102A30009421C9190B68002B0BD19022D21913686D
:102A40005A1C9021C9190A60BA68D31830221A702A
:102A50004BE000238C22D21913601EE08C23DB197B
:102A60001C68631C8C21C9190B609422D21913684D
:102A7000181C0A21FDF736FD0B1C191C3B1C5C338E
:102A8000A200D1509421C9190B68181C0A21FDF726
:102A9000E5FC031C9422D21913609421C9190B6818
:102AA000002BDBD11CE09022D21913685A1C902114
:102AB000C9190A60BA68D3188C21C9190A68511E4D
:102AC0003A1C5C3289008A58D2B23032D2B2D2B2C9
:102AD0001A708C22D2191368013B8C21C9190B6022
:102AE0008C22D2191368002BDDD19021C9190B68F3
:102AF0005A1C9021C9190A60BA68D3182E221A707C
:102B00008022D21913688421C9190A6813430BD192
:102B10009022D21913685A1C9021C9190A60BA6808
:102B2000D31830221A7070E000238C22D21913605F
:102B300027E08C23DB191D686B1C8C21C9190B60E5
:102B40008022D21913685468181C211C0A22002301
:102B5000FDF772FD1C1C131C191C3B1C1033AA0032
:102B6000D1508021C9190B684C68181C211C0A22FD
:102B70000023FDF761FD031C0C1C8022D219136099
:102B800054608021C9190B688421C9190A6813434C
:102B9000CFD112E08C22D21913685A1C8C21C9198A
:102BA0000A603A1C10329B00002199508822D219E9
:102BB0001368013B8821C9190B608822D219136858
:102BC000002BE7D11CE09021C9190B685A1C9021F9
:102BD000C9190A60BA68D3188C21C9190A68511E2C
:102BE0003A1C103289008A58D2B23032D2B2D2B2F4
:102BF0001A708C22D2191368013B8C21C9190B6001
:102C00008C22D2191368002BDDD1BA689021C91922
:102C10000B68D31800221A709022D2191368181C5E
:102C2000BD4627B0F0BDC04600A0D88557347643D6
:102C30000000000000002440000000000000F03F01
:102C400080B58CB000AFF860B9607A603B6000235B
:102C5000FB61FB68BB61BB695A1CBA6100221A7038
:102C60007B68002B33D0BB681B68FB62FB6A002BC0
:102C700006D1BB6930221A70FB690133FB6159E050
:102C800021E0F86A3968FDF737FC031C7B617B693A
:102C90003A685343FA6AD31ABB62BB6A002B04DA60
:102CA000BB6A3022D31ABB6202E0BB6A3033BB621C
:102CB0007B69FB62BB695A1CBA61BA6AD2B21A70EC
:102CC000FB690133FB61FB6A002BDAD132E0BB68A0
:102CD0001B687B627B6A002B06D1BB6930221A70AD
:102CE000FB690133FB6125E021E03B68786A191C30
:102CF000FDF7B4FB031C3B613B683A6953437A6AB6
:102D0000D31A3B623B6A092B03D83B6A30333B62E0
:102D100002E03B6A37333B623B697B62BB695A1C0A
:102D2000BA613A6AD2B21A70FB690133FB617B6AFD
:102D3000002BDAD1FB69181CBD460CB080BDC04623
:102D400080B586B000AFF860B9607A603B60FB6820
:102D50007B6109E07A683B683020111C1A1CFFF780
:102D600079FD7B6901337B617A69BB689A42F1DB4B
:102D7000BD4606B080BDC04680B586B000AFF860E5
:102D8000B9607A603B60FB687B6109E07A683B6808
:102D90002020111C1A1CFFF75DFD7B6901337B614C
:102DA0007A69BB689A42F1DBBD4606B080BDC04679
:102DB00090B5A7B000AFF860B9607A603B1C2C33C7
:102DC00000221A6000225A6000229A600022DA6013
:102DD00000221A6100225A6100229A610022DA61FF
:102DE0002022002199543B1C2C3330221A700023DE
:102DF000BB620023FB670123BB67BB689421C91931
:102E00000B6000F00FFD7B6E252B1FD07B6E0A2B15
:102E10000AD0796E3A1C2832FB68081C111C1A1C57
:102E2000FFF718FD00F0F7FC3A1C2832FB680D2074
:102E3000111C1A1CFFF70EFD3A1C2832FB680A20F1
:102E4000111C1A1CFFF706FD00F0E5FC002384228C
:102E5000D219136000238821C9190B604CE0942219
:102E6000D219136801339421C9190B609422D21925
:102E700013681B785BB2203B102B31D89A00D64BDD
:102E8000D3181B689F468421C9190B68012213437C
:102E90008422D21913602FE08421C9190B68022201
:102EA00013438422D219136026E08421C9190B68C8
:102EB000042213438422D21913601DE08421C9190E
:102EC0000B68082213438422D219136014E0842172
:102ED000C9190B68102213438422D21913600BE026
:102EE0009421C9190B68013B9422D2191360012364
:102EF0008821C9190B60C0468822D2191368002B9B
:102F0000ADD000238021C9190B6000238822D2197B
:102F100013602BE09421C9190B6801339422D21954
:102F200013609421C9190B681B785BB27B667B6EBA
:102F3000303B092B0ED88023DB191A68131C9B0029
:102F40009B185B001A1C7B6E303BD3188021C9197B
:102F50000B600BE09422D2191368013B9421C9192C
:102F60000B6001238822D2191360C0468821C91939
:102F70000B68002BCED09422D21913680133942110
:102F8000C9190B609422D21913681B785BB22E2BDF
:102F900034D100237B6700238821C9190B6027E007
:102FA0009422D219136801339421C9190B60942219
:102FB000D21913681B785BB27B667B6E303B092BA2
:102FC0000AD87A6F131C9B009B185B001A1C7B6E3F
:102FD000303BD3187B670BE09421C9190B68013B88
:102FE0009422D219136001238821C9190B60C046AD
:102FF0008822D2191368002BD2D00AE09421C91973
:103000000B68013B9422D21913600023BB67002395
:103010007B679421C9190B6801339422D21913607C
:103020009421C9190B681B785BB2682B16D06C2BE6
:1030300002D04C2B05D009E0FB6F01221343FB6744
:103040000DE0FB6F02221343FB6708E09422D219C4
:103050001368013B9421C9190B6000E0C04694221B
:10306000D219136801339421C9190B609422D21923
:1030700013681B785BB27B667B6E583B202B01D9B3
:1030800000F0BFFB9A00554BD3181B689F467B6826
:1030900004337B607B68043B1B687B623A1C2C32E8
:1030A0003B1C2433101C191C01220A23FFF7C8FD06
:1030B000031C8C21C9190B603A1C2C328C21C919B4
:1030C0000B68D3189022D21913607B6A002B09DA9F
:1030D0002D233B678C21C9190B6801338C22D2192F
:1030E000136021E08423DB191A680223134009D0FE
:1030F0002B233B678C21C9190B6801338C22D21911
:10310000136011E08423DB191A680423134009D0EB
:1031100020233B678C21C9190B6801338C22D219FB
:10312000136001E000233B670023FB668423DB1967
:103130001A68082313401FD03B6F002B08D0396F4B
:103140003A1C2832FB68081C111C1A1CFFF782FB72
:103150000123FB668C21C91908688022D2191168E5
:103160003A1C2832FB68FFF7EBFD8021C9190B6878
:103170008C22D21913601EE08423DB191A68012304
:10318000134018D18C21C91908688022D2191168FE
:103190003A1C2832FB68FFF7EFFD3B6F002B08D08D
:1031A000396F3A1C2832FB68081C111C1A1CFFF7E7
:1031B00051FB0123FB66FB6E002B0CD13B6F002BF8
:1031C00009D0396F3A1C2832FB68081C111C1A1CE4
:1031D000FFF740FB68E267E2705F0000B45F000049
:1031E000FB6F002B1DD17B6808337B607B68083B3D
:1031F0005C681B683B657C653B1C63333A1C503242
:10320000D2791A703B6D7B6500233B653B1C5033C4
:103210003A1C63321278DA703B6D7C6DBB61FC61E5
:1032200011E0FB6F012B02D0FB6F022B0BD17B68EF
:1032300004337B607B6808337B607B68083B5C6899
:103240001B68BB61FC61BB6F002B13D0391C1831AC
:103250003A1C2C327B6F081C111C1A1CFFF724FB34
:10326000031C8C21C9190B603B1C2C339022D219F2
:10327000136028E0FB6F002B12D13A1C18323B1C64
:103280002C33101C191C0822FFF70EFB031C8C2189
:10329000C9190B603B1C2C339022D219136012E029
:1032A000391C18313A1C2C327B6F081C111C1A1C5B
:1032B000FFF7FAFA031C8C21C9190B603B1C2C3355
:1032C0009022D2191360BB69FC69181C211CD14BD8
:1032D000CF4AFDF789F9031C002B09D02D233B674A
:1032E0008C21C9190B6801338C22D219136021E09B
:1032F0008423DB191A680223134009D02B233B6770
:103300008C21C9190B6801338C22D219136011E08A
:103310008423DB191A680423134009D020233B6758
:103320008C21C9190B6801338C22D219136001E07A
:1033300000233B670023FB668423DB191A680823FC
:1033400013401FD03B6F002B08D0396F3A1C283236
:10335000FB68081C111C1A1CFFF77CFA0123FB6692
:103360008C21C91908688022D21911683A1C2832A8
:10337000FB68FFF7E5FC8021C9190B688C22D21984
:1033800013601EE08423DB191A680123134018D14F
:103390008C21C91908688022D21911683A1C283278
:1033A000FB68FFF7E9FC3B6F002B08D0396F3A1C34
:1033B0002832FB68081C111C1A1CFFF74BFA01236A
:1033C000FB66FB6E002B0CD13B6F002B09D0396FD5
:1033D0003A1C2832FB68081C111C1A1CFFF73AFA29
:1033E00011E010E09021C9190B685A1C9021C919ED
:1033F0000A601B7859B23A1C2832FB68081C111C61
:103400001A1CFFF727FA9022D21913681B78002B99
:10341000E8D18423DB191A68012313400BD08C21D7
:10342000C91908688022D21911683A1C2832FB6831
:10343000FFF7A2FCEFE1EEE17B6804337B607B6881
:10344000043B1B687B613A1C2C323B1C1433101C60
:10345000191C00221023FFF7F3FB031C8C21C91950
:103460000B603A1C2C328C21C9190B68D31890229E
:10347000D21913600023FB668423DB191A68082322
:10348000134029D08421C9190A681023134011D090
:103490003A1C2832FB683020111C1A1CFFF7DAF99D
:1034A0003A1C2832FB687820111C1A1CFFF7D2F94D
:1034B0000123FB668C22D21910688023DB1919685E
:1034C0003A1C2832FB68FFF73BFC8021C9190B68C6
:1034D0008C22D219136035E08423DB191A6801238A
:1034E00013402FD18421C9190A681023134006D034
:1034F0008C22D219136802338C21C9190B608C22DB
:10350000D21910688023DB1919683A1C2832FB682D
:10351000FFF732FC8421C9190A681023134011D027
:103520003A1C2832FB683020111C1A1CFFF792F954
:103530003A1C2832FB687820111C1A1CFFF78AF904
:103540000123FB668423DB191A68102313401AD069
:10355000FB6E002B17D13A1C2832FB683020111C5F
:103560001A1CFFF777F93A1C2832FB687820111CE7
:103570001A1CFFF76FF98C21C9190B6802338C22D2
:10358000D219136090E08FE07B6804337B607B6826
:10359000043B1B687B613A1C2C323B1C1433101C0F
:1035A000191C00220823FFF74BFB031C8C21C919AF
:1035B0000B6046E07B6804337B607B68043B1B68E0
:1035C0007B613A1C2C323B1C1433101C191C00224A
:1035D0000223FFF735FB031C8C22D219136030E065
:1035E0007B6804337B607B68043B1B687B613A1C0F
:1035F0002C323B1C1433101C191C00221023FFF723
:103600001FFB031C8C21C9190B601AE0C046C04681
:1036100000000000000000007B6804337B607B68D2
:10362000043B1B687B613A1C2C323B1C1433101C7E
:10363000191C00220A23FFF703FB031C8C22D2195A
:1036400013603A1C2C328C21C9190B68D3189022B4
:10365000D21913608423DB191A680823134011D090
:103660008C21C91908688022D21911683A1C2832A5
:10367000FB68FFF765FB8021C9190B688C22D21902
:10368000136011E08423DB191A68012313400BD166
:103690008C21C91908688022D21911683A1C283275
:1036A000FB68FFF769FB11E010E09021C9190B6876
:1036B0005A1E9021C9190A601B7859B23A1C283247
:1036C000FB68081C111C1A1CFFF7C4F89022D219C1
:1036D00013681B78002BE8D18423DB191A680123B7
:1036E00013400BD08C21C91908688022D2191168A7
:1036F0003A1C2832FB68FFF73FFB8CE08BE07B68CD
:1037000004337B607B68043B1B68DBB25BB2FB6508
:10371000F96D3A1C2832FB68081C111C1A1CFFF7B3
:1037200099F878E07B6804337B607B68043B1B6816
:10373000BB66BB6E002B58D0BB6E181C02F018FB8A
:10374000031C8C21C9190B608423DB191A6801231F
:1037500013400AD18C21C91908688022D219116836
:103760003A1C2832FB68FFF707FB7B6F002B18D051
:1037700012E07B6F002B0FDD7B6F013B7B67BB6E25
:103780005A1CBA661B7859B23A1C2832FB68081CCE
:10379000111C1A1CFFF75EF8BB6E1B78002BE8D1DA
:1037A00011E00CE0BB6E5A1CBA661B7859B23A1C89
:1037B0002832FB68081C111C1A1CFFF74BF8BB6E63
:1037C0001B78002BEED18423DB191A6801231340E8
:1037D0000BD08C21C91908688022D21911683A1CB3
:1037E0002832FB68FFF7C8FA15E014E07B68043361
:1037F0007B607B68043B1B68BB65BA6ABB6D1A6063
:1038000009E0796E3A1C2832FB68081C111C1A1C4E
:10381000FFF720F8C0469421C9190B6801339422A0
:10382000D21913609421C9190B681B785BB27B66AF
:103830007B6E002B01D0FFF7E6FABB6A181CBD4671
:1038400027B090BDC046C0460FB480B586B000AF6B
:103850003B1D01221A603B1D0C4A5A603B1C24335D
:103860007B613A6A391D7B69081C111C1A1CFFF721
:103870009FFA031C3B6100237B613B69181CBD461A
:1038800006B080BC08BC04B01847C046352800000C
:1038900080B582B000AF0A1CBB1D011C19807B1DC6
:1038A0001A70BB1D1A887B1D1B78101C01211A1C65
:1038B00000F07EFABD4602B080BDC04680B582B041
:1038C00000AF021CBB1D1A80BB1D1B88181C00F01A
:1038D00023FBBD4602B080BD80B582B000AF021CA4
:1038E000FB1D1A70064BFA1D1278111C1F220A408C
:1038F0000121081C9040021C1A60BD4602B080BD28
:1039000000E100E080B586B000AF021C3960FB1D0D
:103910001A709B4B7B61FB1D1B78181C00F036FA5C
:10392000031C002B00D128E1FB1D1B78002B00D0CD
:1039300098E0944A9349944BCB588021C904194389
:10394000914BD1508F4A8F498F4BCB5880214902E0
:1039500019438D4BD1508D4B8C4A926BC0218900FD
:103960000A439A63894B894AD26BC02189000A4372
:10397000DA63C046834A8349854BCB588021C9000E
:103980001943834BD1507B69DB78DBB20C22934324
:10399000DAB27B69DA707F4B1B68181CFA23990036
:1039A000FCF75CFD031CFA2292005A433B681B01A2
:1039B000101C191CFCF752FD031C1A1C3B1C123373
:1039C0001A807B691B78DAB23B1C11331F218A43B2
:1039D0001A703B1C12331A88F8235B0113401B1228
:1039E000DAB21F231340DAB23B1C11331B781343A6
:1039F000DAB27B691A703B1C12331B88DAB27B691E
:103A00005A707B690F229A727B6900229A707B69D7
:103A100000229A717B6900221A727B6900225A7215
:103A20007B691B79DBB21F221343DAB27B691A71FF
:103A30007B695B79DBB2402252421343DAB27B6985
:103A40005A717B69DB78DAB27F231340DAB27B6983
:103A5000DA707B69DB78DBB20C221343DAB27B6964
:103A6000DA708AE0FB1D1B78012B02D0022B13D0E9
:103A700025E0494BC02292001A60474BC0229200B9
:103A80005A60C0463F4A3F49414BCB58802109010B
:103A900019433F4BD15012E03F4B8022D2009A6530
:103AA0003D4B8022D200DA65C046364A3549384B54
:103AB000CB58802149011943354BD150C046FB1DDD
:103AC0001B785A1E354B9200D358FB60FB68DB789D
:103AD000DBB20C229343DAB2FB68DA702D4B1B6821
:103AE000181CFA23D900FCF7B9FC031CFA22920037
:103AF0005A433B681B01101C191CFCF7AFFC031C4C
:103B00001A1C3B1C12331A80FB681B78DAB23B1C70
:103B100011331F218A431A703B1C12331A88F82371
:103B20005B0113401B12DAB21F231340DAB23B1CB5
:103B300011331B781343DAB2FB681A703B1C123343
:103B40001B88DAB2FB685A70FB6800229A70FB6827
:103B500000229A71FB6800225A71FB68DB78DAB2A6
:103B60007F231340DAB2FB68DA70FB68DB78DBB2E4
:103B70000C221343DAB2FB68DA70BD4606B080BD92
:103B800000A00640007004400410000000900440B3
:103B9000341000000CF0FF1F00D00440386000001B
:103BA00080B586B000AF0A1CFB1D011C1970BB1D3F
:103BB0001A70224B3B61FB1D1B785A1E204B920052
:103BC000D358FB60FB1D1B78181C00F0DFF8031CAA
:103BD000002B01D100232CE000237B611EE0FB1DA4
:103BE0001B78002B0BD13B691B79DBB2DBB25BB2DC
:103BF000002B10DA3B69BA1D1278DA7112E0FB680B
:103C00001B79DBB2DBB25BB2002B04DAFB68BA1DB6
:103C10001278DA7106E07B6901337B617A69094BBE
:103C20009A42DCD97A69074B9A4201D9002300E015
:103C30000123181CBD4606B080BDC04600A006404A
:103C400038600000BAFB000080B586B000AF021CEF
:103C50003960FB1D1A702B4BFB60FB1D1B785A1E35
:103C6000294B9200D358BB60FB1D1B78181C00F039
:103C70008DF8031C002B04D13B6800221A7000232E
:103C80003BE000237B6126E0FB1D1B78002B0FD15E
:103C9000FB681B79DBB21A1C2023134018D03B1C95
:103CA0001333FA68D2791A703B6801221A7016E051
:103CB000BB681B79DBB21A1C2023134008D03B1CC5
:103CC0001333BA68D2791A703B6801221A7006E081
:103CD0007B6901337B617A690C4B9A42D4D97A694A
:103CE0000A4B9A4206D93B1C1333FF221A703B68D9
:103CF00000221A703B1C13331B78181CBD4606B0FB
:103D000080BDC04600A0064038600000BAFB00003D
:103D100080B584B000AF021CFB1D1A70184BFB600D
:103D2000FB1D1B785A1E174B9200D358BB60FB1D1E
:103D30001B78181C00F02AF8031C002B00D11CE093
:103D4000FB1D1B78002B08D1FB68DB78DBB220223F
:103D50001343DAB2FB68DA7007E0BB68DB78DBB2EA
:103D600020221343DAB2BB68DA70FB1D1B78064AC7
:103D7000D35C5BB2181CFFF7AFFDBD4604B080BD3D
:103D800000A006403860000008F0FF1F80B582B038
:103D900000AF021CFB1D1A70FB1D1B78022B01D902
:103DA000002300E00123181CBD4602B080BDC046C0
:103DB00080B586B000AFBB1D18807B1D19703B1D00
:103DC0001A70BB1D19883A1C0F323B1C0E33081C9D
:103DD000111C1A1C00F0CAF83B1C0F331B781A1C6C
:103DE0002A4B9200D3587B613B1C0F331B781A1C63
:103DF000274B9200D3583B613B1C0E331B781A1C97
:103E00003B1C0E331B78191C7B698900C958214B58
:103E100019407B699200D1503B1C0E331B781A1C51
:103E20003B1C0E331B78191C7B698900CB58802101
:103E3000490019437B699200D1507B1D1B78012BEF
:103E400014D13B695A693B1C0E331B780121081CB5
:103E50009840031C1A433B695A61BB1D1A883B1DDD
:103E60001B78101C191C00F017F80CE03B695B690B
:103E70003A1C0E3212780121081C9040021CD243D9
:103E80001A403B695A61BD4606B080BD40600000E3
:103E900054600000FFF8FFFF80B584B000AF0A1C3B
:103EA000BB1D011C19807B1D1A70BB1D19883A1C93
:103EB0000B323B1C0A33081C111C1A1C00F056F86C
:103EC0003B1C0B331B781A1C124B9200D358FB601F
:103ED0007B1D1B78012B0CD1FB681A683B1C0A3335
:103EE0001B780121081C9840031C1A43FB681A60C8
:103EF0000CE0FB681B683A1C0A3212780121081C8E
:103F00009040021CD2431A40FB681A60BD4604B0C0
:103F100080BDC0465460000080B584B000AF021C74
:103F2000BB1D1A80BB1D19883A1C0B323B1C0A337F
:103F3000081C111C1A1C00F019F83B1C0B331B78D1
:103F40001A1C094B9200D358FB60FB68DA683B1CD3
:103F50000A331B780121081C9840031C1A43FB6894
:103F6000DA60BD4604B080BD5460000080B584B006
:103F700000AFB9607A603B1C0E33021C1A803B1CF8
:103F80000E331B881B0A9BB2DAB2BB681A703B1C4B
:103F90000E331B88DAB27B681A70BD4604B080BD50
:103FA00090B587B000AF00237B613B1C1333002228
:103FB0001A706B4A8023FF21D150694BFF221A608F
:103FC000EFF308831C1C231CFB60FB6883F3098848
:103FD000EFF31483BB60BB68022213437B607B68F2
:103FE00083F314885F4A88235B010021D1505E4B24
:103FF00014225A705C4B98221A7000237B610AE0ED
:10400000594B9B79DBB21A1C0223134000D006E007
:104010007B6901337B617A69544B9A42F0D9002362
:104020007B610AE0504B9B79DBB21A1C10231340D2
:1040300000D106E07B6901337B617A694C4B9A427F
:10404000F0D900237B610CE0474B9B79DBB21A1C53
:104050000C2313409B08022B00D106E07B6901333F
:104060007B617A69424B9A42EED93F4B3E4A527984
:10407000D2B220210A43D2B25A713B4B3A4A12794A
:10408000D2B201210A43D2B21A71374B5B79DAB24C
:104090003B1C13331A703B1C13333A1C1332127837
:1040A0001F218A431A703B1C13333A1C13321278B7
:1040B00040210A431A702C4B3A1C133212785A7161
:1040C00000237B610AE0284B9B79DBB21A1C20237A
:1040D000134000D006E07B6901337B617A69244B91
:1040E0009A42F0D900237B610AE01F4B9B79DBB237
:1040F0001A1C4023134000D006E07B6901337B612A
:104100007A691C4B9A42F0D9164A1B4B1B49D15075
:10411000154B154A1278D1B23F220A40D2B21A701A
:1041200000237B610CE0104B9B79DBB21A1C0C2343
:1041300013409B08032B00D106E07B6901337B61B0
:104140007A690B4B9A42EED9064A06490C4BCB587A
:10415000F821890119430A4BD150BD4607B090BDE3
:1041600000E100E000700440004006401F4E0000E7
:10417000CF0700009F0F0000441000000000011056
:104180003810000080B586B000AF7860134B1B6814
:104190007B617B69DB693B6100F022F83B699B68CE
:1041A0000B2B16D03B690B229A607A683B69DA6266
:1041B0003B69181C412101F0B7F93B695B68FB6062
:1041C0003B691B68BB60FB68BA681A60BB68FA6829
:1041D0005A6000F01BF8BD4606B080BD10F0FF1F0E
:1041E00080B582B000AF084B1B687B607B68DB69E1
:1041F0009B6C002B00D172B67B68DB699A6C013234
:104200009A64BD4602B080BD10F0FF1F80B582B039
:1042100000AF0D4B1B687B607B68DB699B6C002BE0
:104220000ED07B68DB699A6C013A9A649B6C002B18
:1042300006D17B681B8B002B01D062B600E062B612
:10424000BD4602B080BDC04610F0FF1F80B588B0EB
:1042500000AFF860B9607A601C4B1B68FB61FB69BA
:104260009B6B002B04D1182000F026FF002328E0D0
:10427000FB69DA6AFB689A4204D8FB691A6BFB682F
:104280009A4204D2142000F017FF002319E0FB69C2
:10429000996BFB69DB6AFA68D21A131C5B009B18E6
:1042A0009B00CB18BB61FFF79BFFBB691B687B6161
:1042B000BB69BA681A60BB697A689A60FFF7A6FFA3
:1042C0007B69181CBD4608B080BDC04610F0FF1FBA
:1042D00080B586B000AF786039603A687B689A42F2
:1042E00001D20C232CE0184B1B68FB60FA68BC233E
:1042F0001649D150FB68164A9A623A687B68D31A0D
:1043000001333B61134B7B61FB687A699A63FB68FD
:104310007A68DA62FB683A681A630BE07B690C4AD8
:104320001A607B685A1C7A601A1C7B699A607B69E8
:104330000C337B613B695A1E3A61002BEED100239E
:10434000181CBD4606B080BD10F0FF1F9F61000025
:104350008541000090F5FF1F80B588B000AFF86080
:10436000B9607A60494B1B68BB61FB680833FA6827
:1043700008321A60FB680833FA6808325A60FB6832
:10438000083300221A81FB68083300225A81FB6837
:1043900000229A61FB68BA68DA61BA6801231340A7
:1043A00004D0FB68012252421A6202E0FB6800223C
:1043B0001A62FFF715FFBA6990239B00D358002BB0
:1043C0001DD1BB69902189005B18BA6990218900D1
:1043D00052181A60BB69902292009B18BA6990210A
:1043E000890052185A60BB69902292009B180022E3
:1043F0001A81BB69902189005B1800225A81FB68F1
:10440000234A5A61BA6990239B00D358FB610BE0A1
:10441000FA69FB689A4204D1FFF7F8FE8223DB00B9
:104420002FE0FB691B68FB61BB69902189005A186A
:10443000FB699A42ECD1BB69902292009B185B68A1
:104440001B687B61FB687A691A60BB6990218900EF
:104450005B185B68FA681A60FB68BA69902189008A
:10446000521852685A60FA687B695A60BB69902298
:1044700092009B181A89013292B21A81FFF7C6FE88
:104480000023181CBD4608B080BDC04610F0FF1FB9
:104490006E76656C80B582B000AF786039607A68FE
:1044A0003B68101C191C0022FFF756FF031C181C48
:1044B000BD4602B080BDC04680B584B000AF786014
:1044C00039601B4B1B68FB60FB68DB699B6C002B36
:1044D00000D172B6FB68DB699A6C01329A647B6822
:1044E0005A69144B9A4203D0FFF790FE39231BE020
:1044F0007B689B693A68D2431A407B689A61FB6883
:10450000DB699B6C002B0ED0FB68DB699A6C013A6F
:104510009A649B6C002B06D1FB681B8B002B01D08F
:1045200062B600E062B60023181CBD4604B080BD30
:1045300010F0FF1F6E76656C80B58CB000AF7860B0
:1045400039606A4B1B687B627B6ADB699B6C002B62
:1045500000D172B67B6ADB699A6C01329A647B681F
:104560005A69634B9A4203D0FFF750FE3923B8E0F3
:104570007B689A693B681343BB627B6808331B897D
:10458000002B00D193E07B689B68FB6288E0FB6AAC
:104590003B623B6A303B3B62FB6A1B68FB613B6AE8
:1045A0009A6A8023134007D03B6A1B6FBA6A1A408D
:1045B0003B6A1B6F9A4209D03B6A9A6A8023134078
:1045C0006CD13B6A1B6FBA6A134067D0FB6A5B68A9
:1045D000BB61FB6A1B687B61BB697A691A607B6996
:1045E000BA695A607B6808331A89013A92B21A8113
:1045F0003B6A9A6880235B0013401ED03B6A5B686D
:104600003B613B6A1B68FB603B69FA681A60FB68A8
:104610003A695A607B6A2D33FF331A89013A92B2A4
:104620001A813B6A9A68334B1A403B6A9A603B6A2C
:104630009B6803221A433B6A9A603B6A0022DA6253
:104640003B6ADA697B6A5B6A9A4203D93B6ADA6938
:104650007B6A5A623B6A02229A603B6ADB695A684B
:104660003B6A5A603B6A5B681A683B6A1A603B6A3D
:104670005B683A6A1A603B6ADB693A6A5A603B6A6D
:104680001B6FBA6A1A403B6A1A677B681A6A3B6AF0
:104690001B6F1340DA43BB6A1340BB62FB69FB62CA
:1046A0007B681A1C0832FB6A9A4200D06FE77B686D
:1046B000BA6A9A617B6ADB699B6C002B0ED07B6ABD
:1046C000DB699A6C013A9A649B6C002B06D17B6A79
:1046D0001B8B002B01D062B600E062B601F0CAFC71
:1046E0000023181CBD460CB080BDC04610F0FF1F53
:1046F0006E76656CFFFEFFFF80B588B000AFF86096
:10470000B9607A603B60674B1B68BB61BB691B8B00
:10471000002B01D00D23C1E00023FB61BB69DB69E5
:104720007B61BB69DB699B6C002B00D172B6BB69F6
:10473000DB699A6C01329A64FB685A695A4B9A4257
:1047400003D0FFF763FD3923A8E07B68002B06D078
:10475000FB689B69BA681A40BB689A4207D07B68BD
:10476000002B2AD1FB689B69BA68134025D0FB68EF
:104770009B69BA681A407B691A67FB689A69FB688B
:104780001B6AB9680B40DB431A40FB689A61BB693E
:10479000DB699B6C002B0ED0BB69DB699A6C013A1C
:1047A0009A649B6C002B06D1BB691B8B002B01D03C
:1047B00062B600E062B6FB6970E07B69BA681A67AE
:1047C0007B68002B06D07B699B6A80221A437B6939
:1047D0009A6207E07B699B6A8022191C91430A1C3C
:1047E0007B699A62FB6808335B681B683B617B6985
:1047F00030333A691A60FB6808335B687A69303293
:104800001A607B693033FA68083252685A607B69F3
:104810001A1C30323B695A60FB6808331A8901322E
:1048200092B21A817B69214A9A60FB6808331A1C8C
:104830007B69DA623B68002B13D0BB6A002B04D083
:104840003B68181C00F072FF03E03B68181C00F086
:1048500081FE7B69DB6A002B05D0C4239B00FB61D2
:1048600001E001F078FCFB685B69002B01D1392382
:10487000FB61BB69DB699B6C002B0ED0BB69DB69FC
:104880009A6C013A9A649B6C002B06D1BB691B8B16
:10489000002B01D062B600E062B6FB69181CBD4671
:1048A00008B080BD10F0FF1F6E76656C2D0400000F
:1048B000B0B58CB002AF78613961FA60BB60BB689B
:1048C000002B24D03B1C18331A4A13CA13C3381CBC
:1048D000183078603B1C18331A685B68B868041C91
:1048E0000020051C101C191C00196941031C0C1C1C
:1048F00079680B604C6078693969FA683B1C183339
:1049000000240094FFF7F8FE031C7B620CE0796939
:104910003A69FB6800200090081C111C1A1C002337
:10492000FFF7EAFE031C7B627B6A181CBD460AB0D7
:10493000B0BDC0468408002080B584B000AF786068
:10494000044B1B68FB607B689AB2FB681A81BD460A
:1049500004B080BD10F0FF1F80B586B000AF5E4B85
:104960001B68BB60BB685D4A1A82BB68C8225A825A
:10497000BB6808221A60BB6801225A60BB68022229
:10498000DA81BB680F225A81BB680F229A81BA680C
:10499000BA235B00D358002B02D1012000F072F93A
:1049A000FDF794FBBB6848337B60BB687A68DA61CB
:1049B000BB68DA8ABB685A83BB68DA8A7B689A84E8
:1049C000BA68AA235B00D3581B04454A1A437B6884
:1049D000DA607B6803229A60BB68EC33BA68EC3219
:1049E0001A60BB68EC33BA68EC325A60BB68EC33CF
:1049F00000221A81BB68EC3300225A81BB682D3338
:104A0000FF33BA682D32FF321A60BB682D33FF3393
:104A1000BA682D32FF325A60BB682D33FF33002253
:104A20001A81BB682D33FF3300225A8100233B617A
:104A3000BA68BA235B00D3587B610023FB600DE0AA
:104A40007B69DA683B699A4202D97B69DB683B6122
:104A5000FB680133FB607B691C337B617B691B68EE
:104A6000002B03D0FA681F4B9A42E9D9BA68C823D1
:104A70003969D150BB68892292009B187B617B69A0
:104A8000194A1A60BA68B6235B00D2587B699A60EB
:104A90007B69164A1A617B69154A5A603B695A1C40
:104AA0007B69DA60BB68CC33BA68CC321A60BB6809
:104AB000CC33BA68CC325A60BB68CC3300221A813E
:104AC000BB68CC3300225A81BA68D8230121D15067
:104AD000BD4606B080BDC04610F0FF1FFA29000099
:104AE000FFFF0000FEFF000003000080145E0000D6
:104AF0009959000090B587B000AF786000237B61C2
:104B00007B685B683B612B4B3A691A603A69962374
:104B10009B00101C191CFDF78BF93969AA235B0057
:104B20007A68CB1813CA13C313CA13C313CA13C3A7
:104B3000FFF712FF3A69B4235B00D358002B33D040
:104B40003A69B4235B00D358FB603A69B2235B0037
:104B5000D3587B61FA687B69101C191C00F010FCAB
:104B60007B69013BFA68D3180F2293431A1C3B69F7
:104B7000DA63FDF7FDFA031C7B613B697933FF3390
:104B8000181C012100F0A6FF3B69F833181C012115
:104B900000F0A0FF084B181CFFF7CEFEFDF7F6FB58
:104BA000031C7B617B6900E00C23181CBD4607B029
:104BB00090BDC04610F0FF1F2F42000090B587B097
:104BC00002AF2E4B1B687B607B68892189005A18D5
:104BD0007B68DB69DB687868B821490040587C68ED
:104BE0008B218900615800900191101C191C002232
:104BF000002300F0F5FA031C3B603B68002B02D158
:104C0000042000F03FF83B68181C00F0D3FB0023A1
:104C1000BB607A68BA235B00D358FB6022E0FB6874
:104C20005A690123134017D07B68DB69D968FB6898
:104C30009A69134BB8688000C458FB689868FB6891
:104C400000940190181C002300F0CAFA031C3B607A
:104C50003B68181C00F0AEFBFB681C33FB60BB68B4
:104C60000133BB60FB681B68002BD8D101F0FCF955
:104C70000023181CBD4605B090BDC04610F0FF1FB4
:104C800000F0FF1F80B584B000AF7860FFF7A8FA8E
:104C9000014B1B68FB60FEE710F0FF1F90B58BB067
:104CA00002AFB9607A603B603B1C0E33021C1A8075
:104CB0002B4B1B68BB61BB68002B04DA152000F08E
:104CC000FBF9002347E03B1C0E331B88002B04D06C
:104CD000132000F0F1F900233DE0B86879683A68E4
:104CE0003B6B0024009400F00BFA031C7B617B6992
:104CF000002B28D07B69DB68FB61BB69DB699B6C9F
:104D0000002B00D172B6BB69DB699A6C01329A64E0
:104D10007B69181C00F04EFBBB69DB699B6C002BA8
:104D20000ED0BB69DB699A6C013A9A649B6C002BCC
:104D300006D1BB691B8B002B01D062B600E062B6C6
:104D400001F098F901E00023FB61064B1B685A1C37
:104D5000044B1A60FB69181CBD4609B090BDC046E3
:104D600010F0FF1F9408002080B594B000AF786069
:104D700039609C4B1B68BB647B68002B10D07B6840
:104D80001A0C3B1C46331A80BA6CAA235B00D3581A
:104D90009BB23A1C463212889A4201D012231CE17F
:104DA0007B68181C00F030F9031C3B643B6C002B43
:104DB00005D0BB6C1A1C48323B6C9A4201D11223BD
:104DC0000BE1BB6CF833181C00F040FFFFF708FA4A
:104DD0003B6C9B68092B08D1FFF718FABB6CF833C2
:104DE000181C00F089FE0023F7E03B6C9B68022B47
:104DF00011D1BB6CDA693B6C9A4250D03B6C5B685A
:104E0000FB633B6C1B68BB63FB6BBA6B1A60BB6BD1
:104E1000FA6B5A6043E03B6C9A6880235B00134056
:104E200025D03B6C9A6880235B00134037D03B6CE5
:104E30005B687B633B6C1B683B637B6B3A6B1A6004
:104E40003B6B7A6B5A60BB6C2D33FF331A89013A86
:104E500092B21A813B6C9A68634B1A403B6C9A6021
:104E60003B6C9B6803221A433B6C9A6017E03B6CD7
:104E70009A6880239B00134011D03B6C5B68FB62F7
:104E80003B6C1B68BB62FB6ABA6A1A60BB6AFA6A4F
:104E90005A603B6CDB6A1A89013A92B21A813B6C08
:104EA0009A688023DB00134013D03B6C30335B687F
:104EB0007B623B6C30331B683B627B6A3A6A1A60E8
:104EC0003B6A7A6A5A603B6CDB6A1A89013A92B291
:104ED0001A813B6C09229A60FFF798F90023FB6462
:104EE00013E0BA6CFB6C74339B00D3185B68002B27
:104EF00008D0BA6CFB6C74339B00D3185B683A6CB7
:104F0000101C9847FB6C0133FB64FB6C0F2BE8D93A
:104F10003B6CDA683B1C1E331A80BB6CDB69BB61DF
:104F20003B6C80221206DA60BB6CCC331B89012BF0
:104F300008D1BA6CD8230121D150BA6CDC230021EE
:104F4000D15014E0BA6CD823D2583B1C1E331B88B6
:104F50009A420CD93B1C1E331988BA6CD823D15005
:104F60003B6C1B6E191C5C39BA6CDC23D1503B6C5A
:104F70005C335B687B613B6C5C331B683B617B69CA
:104F80003A691A603B697A695A60BB6CCC331A89FA
:104F9000013A92B21A81BB6CF833181C00F0ACFDD8
:104FA0003A6CBB699A4213D1FFF71AF93B6C5B6804
:104FB000FB603B6C1B68BB60FB68BA681A60BB682F
:104FC000FA685A603B6C181CFDF768F901F04FF85D
:104FD0003B6C181CFDF762F90023181CBD4614B089
:104FE00080BDC04610F0FF1FFFFEFFFF80B582B0FE
:104FF00000AF78607B68181C0021FFF7B5FE031C2A
:10500000181CBD4602B080BD80B586B000AF786088
:10501000284B1B68FB607B68002B02D1FB68DB69B7
:1050200043E0FB685A6D7B689A4202D1FB684833C3
:105030003BE0FB68DB699B6C002B00D172B6FB6820
:10504000DB699A6C01329A64FA68CC23D3585C3BD2
:105050007B61FB68CC331B893B611EE07B69DA68AE
:105060007B689A4215D1FB68DB699B6C002B0ED0E4
:10507000FB68DB699A6C013A9A649B6C002B06D141
:10508000FB681B8B002B01D062B600E062B67B6927
:105090000BE07B69DB6D5C3B7B613B695A1E3A61CF
:1050A000002BDBD1FFF7B2F80023181CBD4606B079
:1050B00080BDC04610F0FF1FB0B582B000AF786071
:1050C0000E4B1C68238B002B02D0636BDD6801E064
:1050D000E369DD6C7B68002B01D0002D09D1238BA7
:1050E000002B03D0636B7A68DA6002E0E3697A68C8
:1050F000DA642B1C181CBD4602B0B0BD10F0FF1FB7
:1051000090B58DB002AFF860B9607A603B60274B14
:105110001B68BB61FB68002B1CD000233B62BB6893
:10512000FB61BA69BA235B00D3587B6202E07B6AF9
:105130001C337B627B6A1B68002B04D07B6A1A6875
:10514000FB689A42F3D17B6A1B68002B09D10023CC
:105150007B6206E0BB687B627B6A9B69FB61012323
:105160003B627B6A002B04D11020FFF7A5FF0023D0
:1051700018E0BB69F833181C00F068FDBB69DB69F7
:10518000D968786AFA693B6A7C6800943C68019443
:1051900000F026F8031C7B61BB69F833181C00F093
:1051A000ABFC7B69181CBD460BB090BD10F0FF1F17
:1051B00080B582B000AF094B1B687B607B68DB6900
:1051C0003B603B685B6E002B02D03B685B6E984790
:1051D0000020FFF70BFFBD4602B080BD10F0FF1F9F
:1051E00090B58FB002AFF860B9607A603B60634BF6
:1051F0001B683B62FB68DA68396AC823CB589A425D
:105200000BD93B6A892080001A18FB689A4204D0A7
:105210000E20FFF751FF0023ACE03B6C002B22D0A7
:105220007B6C7B627A6A88235B009A4204D80220F6
:10523000FFF742FF00239DE0796A3A1C14323B6C71
:10524000081C111C1A1C002300F0D6F8031CFB627A
:105250007B697A6AD31A7B623B68002B21D07B6A18
:105260001C3B7B621DE0FB689B687B627B6A9C2B1E
:1052700001D89C237B627B6A0F330F2293437B62AE
:105280003B68002B02D07B6A1C3300E07B6A3A1C2F
:105290001432181C111C0022002300F0ADF8031C6E
:1052A000FB62FB6A03229A60FB6ADB6E002B03D071
:1052B000FB6ADB6EBB6203E07B69FA6AD318BB62F0
:1052C0003B68002B15D0BB6AFB61BB6A1C33BB6219
:1052D000FB69FA6813CA13C313CA13C312681A60AE
:1052E000FB69FB60FB681B68802212061A43FB689F
:1052F0001A60BA6A7B6A101C191C00F041F83B6AFC
:105300001A6AFB68DB681B015B42D318BB61FB6A4E
:10531000BA69DA61FB6ABA691A62BB699A89FB6A7F
:105320009A84FB685A69FB6A9A623B6C002B05D031
:10533000FB6A9B6A20221A43FB6A9A62BB699B89BB
:105340001C1CF86AB96A7A6AFB6800947C6801944C
:10535000FCF764FF031C002B01D100230AE0FB6A69
:10536000FA689A65FB681A68FB6A5A65FB6ABA684C
:105370001A65FB6A181CBD460DB090BD10F0FF1FEA
:1053800080B582B000AF786039603B689B0801331C
:105390003B6004E07B681A1D7A60054A1A603B682E
:1053A000013B3B603B68002BF4D1BD4602B080BDA1
:1053B0006B617473B0B584B000AF78600D4B1B683F
:1053C000FB607B68DC696568FB685B6AA34201D2AD
:1053D000FB685C627B6802229A607B685D602A6879
:1053E0007B681A607B682B607B686360BD4604B095
:1053F000B0BDC04610F0FF1F80B58EB000AFF860A2
:10540000B9607A603B6074237B62454B1B683B62EA
:105410003B6ACC331A89434B9A4201D900237AE084
:10542000BB687A6A1A607B68002B07D07B687B6355
:105430007A6B7B6A101C191CFCF7FAFC3A6AD823B9
:10544000D2583B1C2A331A803A6ADC23D358FB61BA
:105450003A6AAA235B00D3581A043B1C2A331B88E0
:105460001A437B6BDA60FB69002B03D13B6ACC33B8
:10547000FB6202E0FB695C33FB62FB6A1B68BB6199
:105480007B6B5C33BA691A607B6B1A1C5C32FB6AFB
:105490001A607B6B5C33FA6A5A607B6B1A1C5C3255
:1054A000BB695A603B6ACC331A89013292B21A81C5
:1054B0007B6B3B633B6BFB61FB69DB6D5C3B7B6147
:1054C0007B693B633B1C2A331A883B1C2A3301321D
:1054D0001A803B1C2A331B88002B03D13B1C2A3328
:1054E00001221A803B6A1A1CCC327B699A4207D08F
:1054F0007B69DB689BB23A1C2A3212889A42D9D067
:105500003A6ADC23F969D1503B1C2A3319883A6A7C
:10551000D823D1507B6B181CBD460EB080BDC04651
:1055200010F0FF1FFDFF000080B584B000AF786071
:1055300039607B68DB6CFB603B68002B02D0FB684A
:10554000002B02D17B683A68DA64FB68181CBD4600
:1055500004B080BDB0B500AF021C184B1C68002A17
:1055600003D10C20FFF7A8FD26E0E569E3699B6CF9
:10557000002B00D172B6E369996C013199648A23DA
:105580005B00E1182B1C3833101C1A1CFCF72CFD97
:10559000281C00F015F8E3699B6C002B0CD0E36924
:1055A0009A6C013A9A649B6C002B05D1238B002BDB
:1055B00001D062B600E062B6BD46B0BD10F0FF1F7C
:1055C000F0B557464E464546E0B484B000AF031CE4
:1055D000384A10688146962149000E1C4E44962098
:1055E0004000021C4A441289002A3AD096225200F6
:1055F000494688588046962149000A1C4A44128927
:105600000132924627E042463832146855681A1C27
:10561000383211685268954214D801D18C4211D8A1
:105620004246383211685268181C383004684568A0
:10563000954202D804D18C4202D90122524202E0A2
:10564000002200E00122141C002C00DB09E0464689
:10565000404602689046012149428A445246002A47
:10566000D1D15A68FA601A68BA60FA68B9681160EC
:10567000BA68F968516032687A607A681A60336093
:105680005E607A68536096204000021C4A4411898B
:10569000013189B211819A68802149000A439A60D8
:1056A00000F0F4FCBD4604B01CBC90469946A246EE
:1056B000F0BDC04610F0FF1FF8B500AF061C1A4938
:1056C0000C68002E00D12DE0E569E169896C0029A4
:1056D00000D172B6E169886C0130886438214919BB
:1056E0008C468A235B00E11808684968321C002652
:1056F000331C12184B4161460A604B60281CFFF7AF
:105700005FFFE3699B6C002B0CD0E3699A6C013A54
:105710009A649B6C002B05D1238B002B01D062B6C1
:1057200000E062B6BD46F8BD10F0FF1FF8B500AF4F
:10573000021C164B1C68002A03D10C20FFF7BCFC8E
:1057400021E0E5692B1C383343CA43C3E3699B6CF2
:10575000002B00D172B6E3699A6C01329A64281C5E
:10576000FFF72EFFE3699B6C002B0CD0E3699A6C6A
:10577000013A9A649B6C002B05D1238B002B01D03E
:1057800062B600E062B6BD46F8BDC04610F0FF1F2D
:10579000F0B54F464646C0B485B000AF614B1D68BA
:1057A0008A225200A81801684268012300245B186D
:1057B000544103604460EB699B6C002B00D172B6CE
:1057C000EB699A6C01329A64A6235B00EB58002BBC
:1057D0000BD0A6235B00EB58A8225200AA58101C3D
:1057E0009847021C8E235B00EA508A225200AB18B5
:1057F000181CFCF735FC96225200AB181B891E1CA6
:10580000002E00D176E096235B00EC5801366EE066
:10581000236898468A225200AB1818685968231CDE
:1058200038331A685B68994215D801D1904212D872
:105830008A225200AB181A685B68211C383108684C
:105840004968994202D804D1904202D901235B42AF
:1058500002E0002300E0012399464B46002B45DB84
:105860009A235B00EB5A013B9AB29A235B00EA52FF
:105870006368FB602368BB60FB68BA681A60BB683A
:10588000FA685A60A268284B1340A360A26880237C
:10589000DB00134016D0A268244B1340A360231CE6
:1058A00030335B687B60231C30331B683B607B6854
:1058B0003A681A603B687A685A60E36A1A89013A62
:1058C00092B21A81E2696B6A9A4201D9E3696B620A
:1058D0000223A360E3695B68636063681B682360FD
:1058E00063681C60E3695C60444600E002E0013EDE
:1058F000002E8DD1EB699B6C002B0CD0EB699A6C60
:10590000013A9A649B6C002B05D12B8B002B01D0A4
:1059100062B600E062B6BD4605B00CBC9046994642
:10592000F0BDC04610F0FF1FFFFEFFFFFFFBFFFFB3
:1059300090B583B000AF7860044B1C689C235B007B
:105940007A68E250BD4603B090BDC04610F0FF1F1C
:1059500090B583B000AF78603960064B1C68A62311
:105960005B007A68E250A8235B003A68E250BD46CB
:1059700003B090BD10F0FF1F90B583B000AF78600A
:10598000044B1C68A4235B007A68E250BD4603B058
:1059900090BDC04610F0FF1F80B584B000AF7860A6
:1059A000194B1B68FB60FB68852292009A58511CBA
:1059B000852292009950852292009B58002B22D17B
:1059C000FB68862292009A58511C862292009950B8
:1059D000862292009B58002B15D1FB6887229200EB
:1059E0009A58511C872292009950872292009B5806
:1059F000002B08D1FB68882292009A58511C8822FB
:105A000092009950CFE7CEE710F0FF1F80B588B025
:105A100000AFF860B9607A603B602C4B1B68BB61DB
:105A2000FB68BA689A61FB680833FA6808321A6042
:105A3000FB680833FA6808325A60FB6808330022B2
:105A40001A81FB68083300225A81FEF7C9FB7B6884
:105A5000002B31D1BA69EC23D358FB610BE0FA6912
:105A6000FB689A4204D1FEF7D1FB8223DB0029E0D8
:105A7000FB691B68FB61BB691A1CEC32FB699A422B
:105A8000EDD1BB69EC335B681B687B61FB687A69AD
:105A90001A60BB69EC335B68FA681A60BB69EC3367
:105AA0005A68FB685A607B69FA685A60BB69EC33D4
:105AB0001A89013292B21A81FB68054A5A61FEF7CF
:105AC000A5FB0023181CBD4608B080BD10F0FF1FC9
:105AD0006D73776C80B582B000AF786039607A689A
:105AE0003B68101C191C00220023FFF78FFF031CCA
:105AF000181CBD4602B080BD80B588B000AF78608C
:105B00004F4B1B68FB617B685A694E4B9A4201D030
:105B10001F2390E0FB69DB699B6C002B00D172B600
:105B2000FB69DB699A6C01329A647B689B69002B84
:105B300067DB7B6808331B89002B62D07B680833E6
:105B40001B68BB61BB695B687B61BB691B683B61B0
:105B50007B693A691A603B697A695A607B680833E5
:105B60001A89013A92B21A81BB69303BBB61BB69A9
:105B70009A6880235B0013401ED0BB695B68FB60A2
:105B8000BB691B68BB60FB68BA681A60BB68FA68CF
:105B90005A60FB692D33FF331A89013A92B21A8198
:105BA000BB699A68284B1A40BB699A60BB699B68BD
:105BB00003221A43BB699A60BB690022DA62BB699F
:105BC000DA69FB695B6A9A4203D9BB69DA69FB69E6
:105BD0005A62BB6902229A60BB69DB695A68BB6979
:105BE0005A60BB695B681A68BB691A60BB695B680D
:105BF000BA691A60BB69DB69BA695A6000F03AFA9F
:105C000004E07B689B695A1C7B689A61FB69DB69CD
:105C10009B6C002B0ED0FB69DB699A6C013A9A648D
:105C20009B6C002B06D1FB691B8B002B01D062B64D
:105C300000E062B60023181CBD4608B080BDC04617
:105C400010F0FF1F6D73776CFFFEFFFF80B588B00B
:105C500000AF78603F4B1B68FB61FB691B8B002B1F
:105C600001D00D2372E07B685A693B4B9A4201D008
:105C70001F236BE0FB69DB699B6C002B00D172B6C4
:105C8000FB69DB699A6C01329A647B689B69002B23
:105C900039DCFB69DB69BB61BB69304A9A607B68B0
:105CA00008331A1CBB69DA62BB695B687B61BB693C
:105CB0001B683B617B693A691A603B697A695A6083
:105CC0007B6808335B681B68FB60BB693033FA682C
:105CD0001A607B6808335B68BA6930321A60BB6946
:105CE00030337A68083252685A60BB691A1C303205
:105CF000FB685A607B6808331A89013292B21A81B4
:105D000000F0C4F904E07B689B695A1E7B689A61C5
:105D10007B685A69104B9A4203D0FEF777FA1F232B
:105D200014E0FB69DB699B6C002B0ED0FB69DB691F
:105D30009A6C013A9A649B6C002B06D1FB691B8B11
:105D4000002B01D062B600E062B60023181CBD46ED
:105D500008B080BD10F0FF1F6D73776C2B0400003E
:105D6000031C8218934202D019700133FAE770477E
:105D70000023C25C0133002AFBD1581E704700008B
:105D80006C696E677420726564206368616E676514
:105D90000D0A00006C6967687420677265656E2083
:105DA0006368616E67650D0A000000006C696768D2
:105DB0007420626C7565206368616E67650D0A000A
:105DC000B4AEBFDA32BDD3CAD5B5C4CDEAD5FBCAAD
:105DD000FDBEDDD6A1A3BA282D2D3078253032584E
:105DE0002D2D2900257800000D0A00006D61696ED7
:105DF000000000007461736B5F4100007461736B9D
:105E00005F4200007461736B5F4300007461736BE9
:105E10005F4400005F6D71785F69646C655F7461F9
