:1000000000300020110400005504000055040000D9
:1000100000000000000000000000000000000000E0
:100020000000000000000000000000005504000077
:10003000000000000000000055040000550400000E
:10004000550400005504000055040000550400004C
:10005000550400005504000055040000550400003C
:100060005106000039070000550400005504000047
:1000700055040000FD040000550400005504000074
:10008000550400005504000055040000550400000C
:1000900055040000550400005504000055040000FC
:1000A00055040000550400005504000055040000EC
:1000B00055040000550400005504000055040000DC
:10040000FFFFFFFFFFFFFFFFFFFFFFFFFEFFFFFFFD
:1004100072B600F00FFE62B609490A4A0A4B9B1AEF
:1004200003DD043BC858D050FBDC0849084A521A87
:1004300003DD00208850043AFCDA00F0F1F90000F6
:10044000E411000000F0FF1F04F0FF1F04F0FF1F85
:1004500020F0FF1F0048004755040000002934D059
:100460000123002210B488422CD301242407A14286
:1004700004D2814202D209011B01F8E7E400A14243
:1004800004D2814202D249005B00F8E7884201D3DE
:10049000401A1A434C08A04202D3001B5C082243B6
:1004A0008C08A04202D3001B9C082243CC08A04227
:1004B00002D3001BDC082243002803D01B0901D013
:1004C0000909E3E7101C10BC7047002801D0002088
:1004D000C04307B4024802A14018029003BDC046C1
:1004E000190000000029F0D003B5FFF7B9FF0EBCDA
:1004F0004243891A1847C0467047C04690B583B03A
:1005000000AFBB1D01221A7072B6FC1DBB1D01207D
:10051000191C00F097FB031C2370BB1D1B78002BDC
:1005200005D1FB1D1B780120191C00F009FB62B6E8
:10053000BD4603B090BDC04680B584B000AF021C7C
:10054000FB1D1A703B1C0C331C4A1A803B1C0E33DB
:1005500000221A801BE0FB1D1B78542B10D1184B76
:10056000DB78DBB21A1C0223134009D0144B144A67
:10057000D278D2B202210A43D2B2DA70002318E054
:100580003B1C0E331A883B1C0E3301321A803A1C76
:100590000E323B1C0C3312881B889A42DBD33A1C68
:1005A0000E323B1C0C3312881B889A4201D3012364
:1005B000FFE7181CBD4604B080BDC046F609000028
:1005C0000060064080B584B000AF021CFB1D1A70AD
:1005D0003B1C0C331C4A1A803B1C0E3300221A8031
:1005E0001BE0FB1D1B78542B10D1184BDB78DBB2C2
:1005F0001A1C0223134009D0144B144AD278D2B2E9
:1006000002210A43D2B2DA70002318E03B1C0E33F9
:100610001A883B1C0E3301321A803A1C0E323B1CE6
:100620000C3312881B889A42DBD33A1C0E323B1CD7
:100630000C3312881B889A4201D30123FFE7181C50
:10064000BD4604B080BDC046F609000000700640FB
:1006500080B582B000AF72B65420FFF76DFF031C67
:10066000002B04D02F4ABB1D12791A7056E02D4B77
:10067000DB78DBB21A1C4023134021D0294BDB78F6
:10068000D9B2BB1D04220A401A70274B1B78002BDD
:1006900003D0254B00221A7040E0224B214A927869
:1006A000D2B210218A43D2B29A701E4ABB1D12796F
:1006B0001A701D4B1B780133DAB21B4B1A702DE0F8
:1006C000194B1B78012B0BD1164B1B79DAB2174B48
:1006D0001A70154B1B780133DAB2134B1A701DE0F8
:1006E000114B1B78022B09D10E4AFB1D12791A708F
:1006F0000D4B1B780133DAB20B4B1A700A4B1B7887
:10070000032B08D1094B1B78094AF91D0978D154EC
:10071000084B01221A70044B00221A7062B6BD46C3
:1007200002B080BD0060064008F0FF1F09F0FF1F07
:100730000CF0FF1F04F0FF1F80B582B000AF72B64F
:100740005420FFF73FFF031C002B04D02F4ABB1D92
:1007500012791A7056E02D4BDB78DBB21A1C40235D
:10076000134021D0294BDB78D9B2BB1D04220A40AB
:100770001A70274B1B78002B03D0254B00221A70D0
:1007800040E0224B214A9278D2B210218A43D2B261
:100790009A701E4ABB1D12791A701D4B1B780133CB
:1007A000DAB21B4B1A702DE0194B1B78012B0BD1C1
:1007B000164B1B79DAB2174B1A70154B1B780133A5
:1007C000DAB2134B1A701DE0114B1B78022B09D1C2
:1007D0000E4AFB1D12791A700D4B1B780133DAB2E9
:1007E0000B4B1A700A4B1B78032B08D1094B1B7853
:1007F000094AF91D0978D154084B01221A70044B9B
:1008000000221A7062B6BD4602B080BD007006407C
:1008100008F0FF1F09F0FF1F0CF0FF1F04F0FF1F7F
:1008200080B582B000AF72B60120002173224B2345
:1008300000F094FA96239B010120191C00F06EF839
:10084000104B0120191C00F0C5F9012000F050FAEE
:10085000012000F0C3FB62B60B4B1B78002B10D0BD
:10086000FB1D1A78FB1D01321A70084B1B78084AD1
:10087000D35C0120191C00F063F9034B00221A70AD
:10088000EAE7E9E7BC11000004F0FF1F09F0FF1FD1
:100890000CF0FF1F80B582B000AF021CFB1D1A7068
:1008A000064BFA1D1278111C1F220A400121081C58
:1008B0009040021C1A60BD4602B080BD00E100E01D
:1008C00080B582B000AF021CFB1D1A70FB1D1B78A7
:1008D0005BB2202B02DDFB1D20221A70FB1D1B7852
:1008E0005BB2181CFFF7D6FFBD4602B080BDC04604
:1008F00080B582B000AF021CFB1D1A70064BFA1DBA
:100900001278111C1F220A400121081C9040021C71
:100910001A60BD4602B080BD00E100E080B586B03F
:1009200000AF021C3960FB1D1A707D4B7B61FB1D03
:100930001B78002B76D17B4A7A497B4BCB588021A0
:10094000C9041943784BD150764A7649764BCB5837
:10095000802149021943744BD150724A7149734B3B
:10096000CB588021C9001943704BD1507B69DB788B
:10097000DBB20C229343DAB27B69DA703B681B016D
:100980006B48191CFFF76AFD031C1A1C3B1C123331
:100990001A807B691B78DAB23B1C11331F218A4312
:1009A0001A703B1C12331A88F8235B0113401B1288
:1009B000DAB21F231340DAB23B1C11331B78134306
:1009C000DAB27B691A703B1C12331B88DAB27B697E
:1009D0005A70534B0F229A72514B00229A70504B0F
:1009E00000229A714E4B00221A724D4B00225A720D
:1009F0004B4B4B4A1279D2B21F210A43D2B21A7121
:100A0000474B474A5279D2B2402149420A43D2B2B7
:100A10005A717B69DB78DBB20C221343DAB27B6953
:100A2000DA707AE0FB1D1B78012B02D0022B13D069
:100A300025E0404BC02292001A603E4BC02292003B
:100A40005A60C046374A3749384BCB588021090194
:100A50001943364BD15012E0364B8022D2009A65B2
:100A6000344B8022D200DA65C0462E4A2D492F4BE6
:100A7000CB588021490119432C4BD150C046FB1D56
:100A80001B785A1E2C4B9200D358FB60FB68DB7816
:100A9000DBB20C229343DAB2FB68DA70FB68002207
:100AA0009A703B681B012548191CFFF7D7FC031CF3
:100AB0001A1C3B1C12331A80FB681B78DAB23B1CF1
:100AC00011331F218A431A703B1C12331A88F823F2
:100AD0005B0113401B12DAB21F231340DAB23B1C36
:100AE00011331B781343DAB2FB681A703B1C1233C4
:100AF0001B88DAB2FB685A70FB6800229A70FB68A8
:100B000000229A71FB6800225A71FB68DB78DBB225
:100B10000C221343DAB2FB68DA70BD4606B080BD22
:100B200000A00640007004400410000034100000D3
:100B3000006CDC0200D00440D011000000366E01D1
:100B400080B586B000AF0A1CFB1D011C1970BB1DCF
:100B50001A701D4B3B61FB1D1B785A1E1B4B9200EC
:100B6000D358FB6000237B611EE0FB1D1B78002B2C
:100B70000BD13B691B79DBB2DBB25BB2002B10DA25
:100B80003B69BA1D1278DA7112E0FB681B79DBB29F
:100B9000DBB25BB2002B04DAFB68BA1D1278DA71A3
:100BA00006E07B6901337B617A69094B9A42DCD9A3
:100BB0007A69074B9A4201D9012300E00023181CEF
:100BC000BD4606B080BDC04600A00640D011000062
:100BD000BAFB000080B584B000AF021C3960FB1D79
:100BE0001A703B1C0E3300221A803B68BB603B1C12
:100BF0000E3300221A8017E03B1C0E331B88BA68A4
:100C0000D3181B78FA1D1278101C191CFFF798FFD7
:100C1000031C002B01D001230FE03B1C0E331A886C
:100C20003B1C0E3301321A803B1C0E331B88BA6802
:100C3000D3181B78002BDFD10023181CBD4604B04D
:100C400080BDC04680B586B000AF021C3960FB1D78
:100C50001A70244BFB60FB1D1B785A1E224B92001E
:100C6000D358BB6000237B6126E0FB1D1B78002B63
:100C70000FD1FB681B79DBB21A1C2023134018D05C
:100C80003B1C1333FA68D2791A703B6800221A7041
:100C900016E0BB681B79DBB21A1C2023134008D076
:100CA0003B1C1333BA68D2791A703B6800221A7061
:100CB00006E07B6901337B617A690C4B9A42D4D997
:100CC0007A690A4B9A4206D93B1C1333FF221A70E9
:100CD0003B6801221A703B1C13331B78181CBD465D
:100CE00006B080BD00A00640D0110000BAFB000095
:100CF00080B584B000AF021CFB1D1A70144BFB6062
:100D0000FB1D1B785A1E134B9200D358BB60FB1D72
:100D10001B78002B08D1FB68DB78DBB22022134361
:100D2000DAB2FB68DA7007E0BB68DB78DBB220225E
:100D30001343DAB2BB68DA70FB1D1B78064AD35C3A
:100D40005BB2181CFFF7D4FDBD4604B080BDC046A1
:100D500000A00640D011000000F0FF1F90B585B044
:100D600000AF041C081C111C1A1CFB1D1C70BB1DB1
:100D700018707B1D19703B1D1A70FB1D1B78181C09
:100D800000F03EF9031CBB60FB1D1B78012B02D950
:100D9000FB1D00221A70BA688A4B9A4200D087E085
:100DA000894A8949894BCB5840211943874BD150F7
:100DB000844B00229A70834B824AD278D2B20221AD
:100DC0000A43D2B2DA70824B802292001A62804BC0
:100DD000802292005A627B4B7A1D12781A703B1C5B
:100DE0000F3300221A701EE03B1C0F331B78794A28
:100DF000D35C3A1D12789A420ED13B1C0F331A78FD
:100E00003B1C0F3301321A706E4B3A1C0F321278B2
:100E100070498A5C5A700BE03B1C0F333A1C0F324E
:100E2000127802321A703B1C0F331B78092BDBD966
:100E3000BB1D1B78012B11D1624B624A9278D2B252
:100E4000802149420A43D2B29A705E4B5D4A927841
:100E5000D2B208210A43D2B29A70B0E0594B594A33
:100E60009278D2B2802149420A43D2B29A70554B4D
:100E7000544A9278D2B240210A43D2B29A70514B6E
:100E8000504A9278D2B220210A43D2B29A704D4B86
:100E90004C4A9278D2B210218A43D2B29A70494B0E
:100EA000484A9278D2B220218A43D2B29A7086E020
:100EB000454A4549454BCB5880211943434BD150B6
:100EC000454B00229A70444B434AD278D2B2022159
:100ED0000A43D2B2DA703E4B802292005A603C4BF9
:100EE000802292009A603C4B7A1D12781A703B1C4B
:100EF0000F3300221A701EE03B1C0F331B78354A5B
:100F0000D35C3A1D12789A420ED13B1C0F331A78EB
:100F10003B1C0F3301321A702F4B3A1C0F321278E0
:100F20002C498A5C5A700BE03B1C0F333A1C0F3281
:100F3000127802321A703B1C0F331B78092BDBD955
:100F4000BB1D1B78012B11D1234B234A9278D2B2BF
:100F5000802149420A43D2B29A701F4B1E4A9278AE
:100F6000D2B208210A43D2B29A7028E01A4B1A4A28
:100F70009278D2B2802149420A43D2B29A70164B7B
:100F8000154A9278D2B240210A43D2B29A70124BDB
:100F9000114A9278D2B220210A43D2B29A700E4BF3
:100FA0000D4A9278D2B210218A43D2B29A700A4B7B
:100FB000094A9278D2B220218A43D2B29A70BD46B1
:100FC00005B090BD00600640007004403410000081
:100FD00000B00440D81100000070064080B582B017
:100FE00000AF021CFB1D1A70FB1D1B780833DBB21F
:100FF000DBB25BB2181CFFF763FCBD4602B080BDDC
:1010000080B582B000AF021CFB1D1A70FB1D1B785F
:10101000002B02D0012B02D003E0044B01E0044B73
:10102000FFE7181CBD4602B080BDC0460060064008
:101030000070064080B500AF534A88235B01002151
:10104000D150524B1B78DBB21A1C012313400ED037
:101050004F4B9B78DBB21A1C0823134007D04C4B34
:101060004B4A9278D2B208210A43D2B29A70494BC5
:101070002A221A70444A484B4849D150424B424AAE
:101080001268C02109030A431A603F4A3E49444B93
:10109000CB58802149021943414BD1503A4A3A4931
:1010A0003F4BC9583F4B0B408021490419433C4BEF
:1010B000D150354A34493C4BCB58802189001943E3
:1010C000394BD150394B394A916C394A0A409A64AC
:1010D000364B364AD16C364A0A40DA64354B002228
:1010E0001A72344B24225A70334B80221A70314BBF
:1010F0009A221A70C0462F4B9B79DBB21A1C02232E
:101100001340F8D0C0462B4B9B79DBB21A1C10233E
:101110001340F8D1274B274AD278D1B21F220A4078
:10112000D2B2DA70234B01221A71224B00225A717B
:10113000204B204A5279D2B240210A43D2B25A718E
:10114000C0461C4B9B79DBB21A1C40231340F8D0DD
:10115000184B184A1278D1B23F220A40D2B21A7004
:10116000C046144B9B79DBB21A1C0C2313400C2B8A
:10117000F7D1054A04490C4BCB58F8218901194392
:10118000094BD150BD4680BD0070044000F00740BF
:1011900000D0074000E007404410000000000110AC
:1011A00004100000FFFFFFFC381000000090044016
:1011B000FFF8FFFE00400640005006405468697387
:1011C000206973206969632054657374210D0A00D6
:1011D00000B0064000C006402C149654641F4B25F6
:0411E000325F00007A
:0411E4000C0D0E00E0
:0400000300000411E4
:00000001FF
